:100000000C940F030C9437030C9437030C94600C7E
:100010000C94600C0C94600C0C9437030C94370314
:100020000C9437030C9437030C94670F0C94CA0E8E
:100030000C9411100C9437030C9437030C94370371
:100040000C9471100C9437030C9434130C946613B5
:100050000C9437030C9437030C9437030C94370338
:100060000C9437030C9437034E6F20666164696EFD
:10007000672C20736F756E642077617320616C72DA
:1000800065616479206F66660020656E6420666134
:1000900064656F7574002000466164696E673A009C
:1000A000434D443A204E6F74654F66662056697220
:1000B000747561526163696E67203A2053544F50E2
:1000C00020736F756E6400434D443A20436F6E7425
:1000D000726F6C4368616E676520566972747561F2
:1000E000526163696E673A2042474D202300434DB9
:1000F000443A20466164654F757420566972747580
:1001000061466967687465722000434D443A205324
:10011000797374656D20726573657420636F6D6D9E
:10012000616E6420726563656976656400434D4461
:100130003A20466164656F75742000494E464F3A17
:10014000204E6F742073656E7420746F2064665047
:100150006C61796572206265636175736520766F85
:100160006C756D652077617320616C72656164796F
:10017000207468652073616D6500203D3E204761F5
:100180006D652073657474696E673A2000434D4451
:100190003A20566F6C756D65206368616E67652ED9
:1001A0002056616C75653A2000434D443A20424721
:1001B0004D2023302053544F5000434D443A2042A9
:1001C000474D202300535441525455503A205379FF
:1001D0007374656D207265616479005354415254A3
:1001E00055503A204D49444920696E7465726661E4
:1001F0006365206C697374656E696E670053544162
:10020000525455503A205374617274696E67204D90
:1002100049444920696E7465726661636500535490
:1002200041525455503A204D503320706C617965DD
:100230007220737461727465640053544152545552
:10024000503A2053657474696E67204551005354C9
:1002500041525455503A2053657474696E67207644
:100260006F6C756D6520746F200053544152545566
:10027000503A205374617274696E67204D50332078
:10028000706C617965720044534220436C6F6E65F7
:10029000202D20646562756720696E7465726661E1
:1002A00063652073746172746564004446506C61C8
:1002B0007965723A20466C6173682C200044465080
:1002C0006C617965723A20555342204469736B2CF6
:1002D00020004446506C617965723A2053442043B3
:1002E0006172642C20004446506C617965723A203A
:1002F000506C61792066696E697368656420666F09
:10030000722023004446506C617965723A2044663D
:100310004D70335F4572726F725F416476657274BF
:10032000697365203D2037202D2028736565206383
:1003300068697020646F63756D656E746174696F50
:100340006E2920496E206164766572746973656DEB
:10035000656E742E004446506C617965723A204493
:10036000664D70335F4572726F725F46696C654DA2
:1003700069736D61746368203D2036202D202873D9
:100380006565206368697020646F63756D656E7460
:100390006174696F6E292043616E206E6F742066F0
:1003A000696E642066696C652E004446506C617904
:1003B00065723A2044664D70335F4572726F725FAA
:1003C00046696C65496E6465784F7574203D2035CB
:1003D000202D2028736565206368697020646F6331
:1003E000756D656E746174696F6E292046696C6500
:1003F00020696E646578206F7574206F6620626F67
:10040000756E64732E004446506C617965723A20B3
:1004100044664D70335F4572726F725F4368656307
:100420006B53756D4E6F744D61746368203D20345D
:10043000202D2028736565206368697020646F63D0
:10044000756D656E746174696F6E2920436F6D6D93
:10045000756E69636174696F6E73206572726F7215
:10046000206F6E20746865206861726477617265C0
:10047000206C6576656C2E20436865636B20776918
:1004800072696E6720616E6420474E4420636F6E10
:100490006E656374696F6E732E004446506C6179AB
:1004A00065723A2044664D70335F4572726F725FB9
:1004B000736F667453657269616C446562756767D2
:1004C000657257726F6E67537461636B203D2033A2
:1004D000202D2028736565206368697020646F6330
:1004E000756D656E746174696F6E29004446506C59
:1004F000617965723A2044664D70335F4572726F60
:10050000725F536C656570696E67203D2032202DE7
:100510002028736565206368697020646F63756D5A
:10052000656E746174696F6E292054686520636814
:10053000697020697320696E20736C656570206D29
:100540006F64652E004446506C617965723A2044B0
:10055000664D70335F4572726F725F4275737920BA
:100560003D2031202D202873656520636869702047
:10057000646F63756D656E746174696F6E29205563
:100580007375616C6C7920746865206D6564696150
:1005900020776173206E6F7420666F756E642E0015
:1005A0004446506C617965723A20436F6D20457204
:1005B000726F7220000000000900030200000405B1
:1005C0000800000000000000000000000102040814
:1005D00010204080010204081020010204081020AD
:1005E00040804004040404040404040202020202E1
:1005F00002030303030303020203000000002300BD
:100600002600290000000000250028002B00000023
:100610000000240027002A00D00A9613640B11243E
:100620001FBECFEFD8E0DEBFCDBF11E0A0E0B1E04C
:10063000ECEBFBE202C005900D92A437B107D9F7AD
:1006400024E0A4E7B1E001C01D92A830B207E1F7B1
:1006500013E0CEE0D3E004C02197FE010E949D1577
:10066000CC30D107C9F70E9438150C94D1150C94E1
:100670000000CF93DF93EC0160EA75E08DE791E035
:100680000E94FF134AE050E0BE018DE791E00E9416
:10069000C814FE013197E730F10528F5EE5AFC4FFA
:1006A0000C949D1559036103640367036A036D038A
:1006B000700365E475E08DE791E0DF91CF910C94D4
:1006C00027146CEE74E0F7CF6AE974E0F4CF66E0CB
:1006D00074E0F1CF6AEA73E0EECF65E573E0EBCF4B
:1006E00064E073E0E8CFDF91CF9108950F931F93FB
:1006F000CF93C82F8B0181FF06C062ED72E08DE7BA
:1007000091E00E94FF13C0FF06C06DEB72E08DE721
:1007100091E00E94FF13C3FF06C06BEA72E08DE711
:1007200091E00E94FF13B8018DE791E0CF911F91F6
:100730000F910C943914CF93DF93EB0161E071E0DA
:100740000E94760366EE72E08DE791E00E94FF134F
:100750004AE050E0BE018DE791E0DF91CF910C942B
:10076000C814AF92BF92CF92DF92EF92FF920F9395
:100770001F93CF93DF93CDB7DEB72A970FB6F894C8
:10078000DEBF0FBECDBF8C018AE0A82ECE01019640
:100790007C01CC24C394DD24DA94BB24B394D80127
:1007A0008D919C91DC01ED91FC910084F185E02D0F
:1007B00009950A970CF499C0F7018A2D11928A9530
:1007C000E9F741E050E0B701D8018D919C910E947A
:1007D0000E15813009F071C089818E3791F749E09B
:1007E00050E0BE016E5F7F4FF801808191810E94D1
:1007F0000E158F5F8A3008F46FC08A818F3F09F031
:100800006EC08B81863009F06AC08A858F3E09F000
:1008100066C0EC812D818E2F90E00696280F392F2F
:10082000311D8E81280F311D8F81820F932F911DD5
:100830009601281B390B8885998598278927982741
:100840002817390709F04EC08E819F819827892784
:100850009827EA53E73008F0A2CFF0E0EE5CFB4FB8
:100860000C949D154F04540439043F044304470479
:100870005A04BC0181E090E00E949B0390CFBC0130
:1008800082E090E0F9CFBC0188E090E0F5CFD8019C
:100890001896BC9261E071E00E94760380CFF80167
:1008A000B08668E071E0F8CFD8011896BC9261E19B
:1008B00071E0F2CF0E94390372CF81E890E00E948C
:1008C0003903F80180819181DC01ED91FC91008474
:1008D000F185E02D099563CF82E890E0F0CF83E8C1
:1008E00090E0EDCF84E890E0EACF2A960FB6F89436
:1008F000DEBF0FBECDBFDF91CF911F910F91FF9053
:10090000EF90DF90CF90BF90AF9008958F929F921D
:10091000AF92BF92EF92FF920F931F93CF93DF930B
:10092000CDB7DEB72A970FB6F894DEBF0FBECDBFA6
:100930008C01790186E0DE011596FD01982F119258
:100940009A95E9F79EE799839FEF9A838B838FEEC1
:100950008A876C83E52FF0E05E834F8370E06B5FE6
:100960007E4F8D81680F711DE60FF71F4E0F5F2FB1
:10097000511D519541955109588749870E94BB10D7
:10098000D80112968D909D90AD90BC901597AB01BB
:10099000BC01481959096A097B0916968D919C91E9
:1009A000B0E0A0E0481759076A077B0750F4C80178
:1009B0000E94B10361E070E080E090E00E94EC10E2
:1009C000DDCFF801F782E68280819181DC01ED9133
:1009D000FC910280F381E02D4AE050E0BE016F5FA0
:1009E0007F4F09950E94BB10F80162837383848353
:1009F00095832A960FB6F894DEBF0FBECDBFDF9168
:100A0000CF911F910F91FF90EF90BF90AF909F906B
:100A10008F90089522E330E050E040E066E10C94CE
:100A200086046AE071E08DE791E00E94271484E774
:100A300091E00C940A05823061F461110AC084E7E8
:100A400091E00E940A0560EA70E08DE791E00C9465
:100A500027140895CF92DF92EF92FF9290910001B8
:100A600068E670E0992391F1C82E68E970E08DE79F
:100A700091E00E94FF13D12CF12CE12C4091000158
:100A80004423F1F041504093000150E022E330E074
:100A900066E084E791E00E948604C701B6010E94E7
:100AA000EC1066E970E08DE791E00E94FF134AE0E8
:100AB00050E0609100018DE791E00E94A914DECF23
:100AC00084E791E00E940A0569E870E08DE791E013
:100AD000FF90EF90DF90CF900C9427141F93CF934B
:100AE000DF93D62FC42F603111F06F36C9F4CC23B9
:100AF00009F45EC04C2F50E022E330E062E184E76D
:100B000091E00E9486046AEB71E08DE791E00E941B
:100B1000FF134AE050E06C2F8DE791E00E94B01483
:100B20008FEF8D0F823060F51C2F169516956DE8AE
:100B300071E08DE791E00E94FF134AE050E06C2FD6
:100B40008DE791E00E94A9146AE771E08DE791E0DA
:100B50000E94FF134AE050E0612F8DE791E00E9470
:100B6000B01480910001811771F1412F50E022E310
:100B700030E066E084E791E00E9486041093000173
:100B8000D350D23038F56DE271E08DE791E00E94EC
:100B9000FF134AE050E06C2F8DE791E00E94B01403
:100BA0008C2F86958695DF91CF911F910C942A0505
:100BB00084E791E00E940A0569EA71E08DE791E01F
:100BC0000E942714ADCF6BE371E08DE791E00E94A6
:100BD0002714D6CFDF91CF911F910895CF93DF9344
:100BE000C62FD42F8F30B1F4683171F56EEE70E0FE
:100BF0008DE791E00E94FF134AE050E068E18DE745
:100C000091E00E94B0148D2F86958695DF91CF914B
:100C10000C942A058130C1F4462F50E022E330E0E5
:100C200062E184E791E00E94860467EC70E08DE762
:100C300091E00E94FF134AE050E06C2F8DE791E0B5
:100C4000DF91CF910C94B014DF91CF910895CF93A1
:100C5000DF9361E08DE00E94761140E052EC61E0AC
:100C600070E08DE791E00E945E0D67E872E08DE72D
:100C700091E00E94271469E171E08DE791E00E9404
:100C8000391468EB7BE080E090E00E94EC106AE6AB
:100C900072E08DE791E00E94271463E876E080E03F
:100CA00090E00E94250EC4E7D1E040E157E260E009
:100CB00070E0888199810E9408150E94BB106A83A8
:100CC0007B838C839D836EE472E08DE791E00E94CC
:100CD000FF134AE050E0609100018DE791E00E942F
:100CE000B0144091000150E022E330E066E0CE0114
:100CF0000E9486046AE372E08DE791E00E94271467
:100D000022E330E045E050E067E0CE010E94860437
:100D100022E330E048EE53E062E1CE010E94860417
:100D20006EE172E08DE791E00E942714C8EAD1E0FD
:100D30008EE695E09987888781E195E099A788A755
:100D40008EEE95E09B878A878BE195E09D838C836F
:100D50006DEF71E08DE791E00E942714EAA5FBA5F5
:100D600026E042E15AE760E070E0808191810E94D4
:100D7000DC121CA61EA61DA61DAA1CAA1BAA1AAA26
:100D80008FEF9FEF9FAB8EAB99AF88AF0E94BB10E8
:100D900060936A0270936B0280936C0290936D0271
:100DA000109267021CAE1BAE1DAE1EAE1092690201
:100DB00010926802E2EEF1E08081817082608160D1
:100DC00080836BED71E08DE791E00E94271465EC64
:100DD00071E08DE791E0DF91CF910C942714CF93D0
:100DE000DF93EC01E881F981309711F0CB960995FA
:100DF0008CAD823F09F49EC090F5803C09F486C01A
:100E000090F4803909F454C030F4803809F445C0B6
:100E1000DF91CF910895803A09F475C0803BC1F706
:100E2000EA85FB853CC0803E09F459C058F4803DFA
:100E300079F7EE85FF85309759F36DAD8BADDF9176
:100E4000CF910994803F09F464C0813F09F7EC8990
:100E5000FD893097E9F28DADDF91CF9109948A3FFA
:100E600091F180F4863F09F477C028F4833F81F63E
:100E7000E88DF98DEECF883FF1F0893F49F6E8A182
:100E8000F9A11BC08C3F29F108F18E3F29F18F3F5A
:100E900009F0BECFE8A5F9A510C0EC81FD8130971F
:100EA00009F4B6CF4EAD6DAD8BADDF91CF91099406
:100EB000EE81FF81F4CFEC8DFD8D309709F4A8CF42
:100EC000DF91CF910994EE8DFF8DF7CFEAA1FBA1C1
:100ED000F4CFECA1FDA1F1CFEEA1FFA1EECFE88907
:100EE000F989309709F494CF6EAD20E8629FB00184
:100EF000112460787F738DAD8F77682B70528BAD26
:100F0000DF91CF910994E885F985C9CFEC85FD85FE
:100F100092CFEA89FB89309709F47ACF6DAD7EAD27
:100F20006138710510F060E870E0CE01CF96DF9176
:100F3000CF910994EE89FF89309709F469CF8EAD7E
:100F400020E8829FC001112480789F732DAD2F77F8
:100F5000822BDF91CF910994EA8DFB8DAECF982F34
:100F60009F7E282F2F7C203839F0803E29F081E0A9
:100F7000903C19F080E0089581E0089587FF0AC051
:100F80009CE0980F923030F08D3F21F0803F18F4B4
:100F9000807F089580E00895DC018D919C91DC01B3
:100FA000ED91FC910190F081E02D09946D3F48F4A2
:100FB0006A3F10F4683F39F4FC01808191810C9400
:100FC000CC076E3FC8F70895EF92FF920F931F93DF
:100FD000CF93DF93613E38F50150003178F567FF1C
:100FE0002DC0D22F142FC62F7C01602F6C2BFC013B
:100FF00082A593A50E94CC07612F6F77F70182A588
:1010000093A50E94CC07CF7EC03CC1F06D2F6F77B7
:10101000F70182A593A5DF91CF911F910F91FF90CA
:10102000EF900C94CC07683F48F08A96DF91CF91FF
:101030001F910F91FF90EF900C94D607DF91CF9105
:101040001F910F91FF90EF900895EF92FF920F93F1
:101050001F93CF93DF93EC019AAD292F217090FF5E
:101060001EC0892F8E7FD9F0362F6CAD80E8860F99
:101070008136F8F40BAD031719F021E0311120E0AF
:101080009695923051F0933089F0913041F42EAD25
:101090004DADCE010E94E40702C02111F8CFDF91CF
:1010A000CF911F910F91FF90EF9008952111F7CFED
:1010B000EECFE0E1E60FE03190F7F0E0EE59F74FC8
:1010C0000C949D157C08C008A70895084F084F0888
:1010D00072084F0872084F087208720872084F08A9
:1010E00072087208CE018A96DF91CF911F910F91FD
:1010F000FF90EF900C94D6077E018FE3E80EF11C71
:101100000DAD1EAD0138110510F000E810E00E0D18
:101110001F1DE016F10609F4C2CFF70161917F01AE
:101120008AA59BA50E94CC07F4CF1DAD63EF8AA5CD
:101130009BA50E94CC07612F6F778AA59BA5DF91A5
:10114000CF911F910F91FF90EF900C94CC070EADB3
:10115000F0E80F9F800111248DAD082B62EF8AA566
:101160009BA50E94CC07602F6F778AA59BA50E9444
:10117000CC07000F012F001F110B1195602FDCCF42
:101180006DAD80E1689FB001112460771EAD1F70C6
:10119000162B61EF8AA59BA50E94CC07612FCDCFAE
:1011A000EF92FF921F93CF93DF9384E791E00E9429
:1011B000B1031091D401113108F076C0E091D20151
:1011C000F091D30180819181DC01ED91FC9100844B
:1011D000F185E02D0995892B09F466C0809177028D
:1011E0008E7F80937702E091D201F091D3018081CC
:1011F0009181DC01ED91FC910284F385E02D09954C
:10120000C82F8D3F09F450C08091DC019091DD0121
:10121000009709F0F6C0C093D701D091D5018D2F6A
:101220000E94BE070E94AF07882361F0C7FD0AC075
:10123000D093D701C093D80181E090E09093DD0175
:101240008093DC01C091D7018C2F0E94BE07813FA3
:1012500009F496C0F0F5803B39F048F4803921F06C
:10126000803A11F0803851F423E030E08BC0803DAB
:1012700009F486C0F8F4803C09F482C080917702BA
:10128000816080937702E091AA01F091AB013097E1
:1012900009F009951092DD011092DC011092DB013A
:1012A0001092DA011092D501DF91CF911F91FF903A
:1012B000EF900895803EC1F2803F01F720E830E0D2
:1012C0003093DB012093DA011092D5018093E7017E
:1012D0005DC0873F99F308F04CC0833F09F450C0CC
:1012E00018F2863F59F68093E4011092E3011092C0
:1012F000E5011092E60181E0809367021092DD0122
:101300001092DC011092DB011092DA018091E4016D
:10131000803939F48091E601811103C080E880931F
:10132000E4018091E4018058813638F48091E30132
:10133000181719F0C0E0111105C088EA91E00E9469
:10134000EF06C1E0612F88EA91E00E942508CC23D6
:1013500009F4AACF8DE00E94E01161E0892B09F029
:1013600060E08DE0DF91CF911F91FF90EF900C94A2
:10137000B2118D3F08F4B7CF8E3F08F0B4CF7ECFC7
:1013800022E030E03093DB012093DA01C13811F024
:10139000C03B31F422E030E03093DB012093DA01EE
:1013A0002091DC013091DD014091DA015091DB01A7
:1013B0004150510924173507E8F08093E401CF70BC
:1013C000CF5FC093E3018091D8018093E501109233
:1013D000E60181E090E090936902809368021092A8
:1013E000DD011092DC011092DB011092DA01809392
:1013F00067028CCF2F5F3F4F3093DD012093DC01DC
:1014000053CFC7FF0CC0CD3F08F04DC0C83F08F018
:101410004DC0C03F09F459C0C73F09F456C02091E0
:10142000D701FC01E855FE4F203F19F0273F09F096
:1014300075C0C7AFE090DA01F090DB019701215051
:1014400031098217930708F4A9C0D091D701D03F82
:1014500019F0D73F09F064C0C091660280EF809315
:1014600066028093E40180E88093E5011092E60132
:101470001092E30180E890E0909369028093680203
:1014800081E08093670288EA91E00E94EF0687EF8F
:101490008093E701C093E80182E090E09093DD0142
:1014A0008093DC0101CFCE3F08F4B9CFC093E401B3
:1014B0001092E5011092E6011092E30181E090E0C4
:1014C000909369028093680292CF2091E701203FB8
:1014D00019F0273F09F0D2CE9C012F5F3F4F88556E
:1014E0009E4FFC01C7AF80EF8093E4012093E5019C
:1014F0003093E6011092E301309369022093680271
:1015000081E0809367021092DD011092DC0110925D
:10151000DB011092DA011092D501F8CEC7A78ACF6D
:101520008D2F0E94BE07C82F8093E4010E94AF0751
:10153000882349F18D2F8F708F5F8093E301809115
:10154000D8018093E5018091D901F3E0EF16F10411
:1015500009F080E08093E6011092DD011092DC0139
:101560001092DB011092DA0181E080936702C03BA8
:1015700039F060F4C03921F0C03A11F0C03859F6A2
:10158000D093D501C3CE1092E301D9CFC03DC1F3B2
:10159000C03EB1F3C03C09F0BECFF2CF01967ECF82
:1015A000CF93DF938BE693E0909379028093780258
:1015B000E8EAF1E01182108213821282158214820D
:1015C0001782168211861086138612861586148657
:1015D00017861686118A108A138A128A158A148A27
:1015E000178A168A118E108E138E128E158E148EF7
:1015F000178E168E11A210A213A212A215A214A267
:1016000017A216A211A610A688E792E093A782A7B8
:1016100014A615A616A613AA12AA15AA14AA8FEF25
:101620009FEF97AB86AB91AF80AF83E08093E201F1
:1016300013AE14AE15AE16AE10926702E7EEF1E0EF
:1016400080E8DF011D928A95E9F710926A021092F4
:101650006B0210926C0210926D0210926E02109248
:101660006F02109270021092710210927202109228
:101670007302109274021092750210927602109208
:101680007702CCE9D1E01B821A8288EE93E0A0E0D9
:10169000B0E08C839D83AE83BF8380E591E0998326
:1016A000888320E04CE06BE08DE791E00E94330DF1
:1016B000E4E7F1E0D183C08382E390E097838683FF
:1016C0001086DF91CF9108958DE791E00E94D80CAC
:1016D00080E591E090939D0180939C010C945D10B6
:1016E00090E080E008952091BC023091BD0228175F
:1016F0003907B9F490917A0280917B02981789F0AA
:10170000E0917A02F0E0E458FD4F808120917A0266
:1017100030E02F5F3F4F2F73332720937A0290E002
:1017200008958FEF9FEF0895EF92FF920F931F930D
:10173000CF93DF93DC015C96ED90FC905D97E11414
:10174000F10479F481E090E013969C938E931297C4
:1017500090E080E0DF91CF911F910F91FF90EF908B
:1017600008955196ED91FC91529750968C91509717
:10177000982F90950FB75E962C915E97122F12704E
:1017800021FD6095F8942081112319F1282B2083E5
:10179000E7012197F1F728E0462F50E0308160FF04
:1017A0001AC0382B3083E7012197F1F7BA017595FC
:1017B0006795215089F7112381F0808189238083E7
:1017C0000FBF5C968D919C910197F1F781E090E0BD
:1017D000C1CF2923DCCF3923E5CF9081892BEFCFEF
:1017E00008952091BC023091BD022817390771F489
:1017F00090917A0280917B02981741F0E0917A02F1
:10180000F0E0E458FD4F808190E008958FEF9FEF66
:1018100008952091BC023091BD022817390771F458
:1018200080917B0220917A0290E0805C9F4F821B26
:10183000910960E470E00E944815089590E080E00E
:101840000895E091BC02F091BD02E817F90769F430
:10185000A389B4899C918589809589238C93109262
:10186000BD021092BC0281E0089580E00895CF93FC
:10187000DF93EC018A8D9B8D892B01F18091BC0255
:101880009091BD028C179D07C9F0009711F00E943E
:10189000210C8E8D8E7F8E8F10927B0210927A0299
:1018A000D093BD02C093BC02EB89FC8980819D89E5
:1018B000892B808381E0DF91CF91089580E0FBCF79
:1018C0001F920F920FB60F9211242F933F934F93B5
:1018D0005F936F937F938F939F93AF93BF93EF9398
:1018E000FF93E091BC02F091BD02309749F0A685CC
:1018F000B7858585968D91FF14C09C918923A1F4AD
:10190000FF91EF91BF91AF919F918F917F916F91D7
:101910005F914F913F912F910F900FBE0F901F90AD
:1019200018959C91892361F7A389B4899C91858935
:10193000809589238C93868997890197F1F7608D2B
:10194000718DA685B785558538E020E0CB010197DC
:10195000F1F7822F90E095958795282F4C9145239C
:1019600009F02068315091F7868D81FD2095809196
:101970007B0290E001968F73992730917A02381795
:1019800099F0A0917B02B0E0A458BD4F2C938093B6
:101990007B02828D938D0197F1F7A389B4898C9195
:1019A0009589892B8C93ACCF868D8160868FF1CF02
:1019B0002EE331E0FC01318320830C94210C1F9332
:1019C000CF93DF93EC01162F6E8D6695617081E0E9
:1019D0006827812F0E94B21161E0812F0E94761149
:1019E000812F110F990BFC01E453FA4FE491E88B1E
:1019F000FC01ED51FA4FE491F0E0EE0FFF1FEC5FB8
:101A0000F94F859194919A8B898BDF91CF911F919A
:101A100008951F93CF93DF93EC01162F60E0812F81
:101A20000E9476118E8D81FD04C061E0812F0E949D
:101A3000B2111C87812F110F990BFC01E453FA4F4F
:101A4000E491ED87FC01ED51FA4FE491F0E0EE0FE7
:101A5000FF1FE650FA4F859194919F878E87DF9103
:101A6000CF911F9108951F93CF93DF93EC01162F11
:101A70001B821A8288EE93E0A0E0B0E08C839D8305
:101A8000AE83BF838EE391E0998388831F8A1E8A89
:101A9000198E188E1B8E1A8E1D8E1C8E8E8D8E7F2B
:101AA00020FB81F98E8F642FCE010E94DF0C612F05
:101AB000CE01DF91CF911F910C94090DCF93DF934D
:101AC000EC019A01AB011B8E1A8E198E188E1F8A9B
:101AD0001E8A60E079E08DE390E00E947E15F901B6
:101AE000C90103972430310510F481E090E09D8F07
:101AF0008C8F6C85673108F054C0C9019695879525
:101B00008431910508F452C043979F8B8E8BC90195
:101B10000597369710F481E090E0998F888FC9017E
:101B2000880F991F280F391F3695279536952795C9
:101B30002D30310508F43DC02C5031093B8F2A8FE0
:101B40009091680084E0683054F081E06E303CF0A1
:101B500082E0643124F081E0663109F480E0892B71
:101B6000809368009C852DE630E0983064F09E30CC
:101B70001CF1943134F09631FCF030E020E09631E5
:101B800011F42CE630E03C8B2B8B9830C4F481E0D0
:101B900001C0880F9A95EAF78D8B8C8D9D8D0197EA
:101BA000F1F7CE01DF91CF910C94370C81E090E0FA
:101BB000ACCF21E030E0C2CF2BE630E0E4CF9E3066
:101BC00014F49850E4CF963114F49E50E0CF80E4A2
:101BD000963111F380E0E0CF809158039091570344
:101BE000891769F09F5F903508F090E0E92FF0E0E9
:101BF000E95FFC4F80819093570390E008958FEF49
:101C00009FEF089580915803E09157038E1751F08C
:101C1000EF5FE03508F0E0E0F0E0E95FFC4F808145
:101C200090E008958FEF9FEF0895509158034091F1
:101C30005703852F90E0242F30E0541718F0821BB3
:101C4000930B0895805B9F4FFACF9B01AC01213627
:101C500068E136074105510540F410926F0010927B
:101C6000800081E88093810018C0DC01C90173E025
:101C7000B695A795979587957A95D1F7813668E1BE
:101C80009607A105B105C8F510926F00109280006B
:101C900022E8209381009C01AD01309361032093E1
:101CA0006003A5E2B0E00E94A31522E09695879517
:101CB000779567952A95D1F770935A0360935903E6
:101CC00062E088E00E94761161E089E00E94B21132
:101CD00061E089E00E94761110925F031092580330
:101CE00010925703109206031092030310920203FE
:101CF00080E286BB80936F000895232F342F452FF9
:101D00005527213688E1380741055105A8F710927B
:101D10006F001092800084E8A5CF909103039F5F2D
:101D2000943408F090E0209102032917E1F32FB7D3
:101D3000F89430910603332349F0E92FF0E0E254A0
:101D4000FD4F8083909303032FBF089591E09093FC
:101D50000603809305031092040382E086BB809102
:101D60006F00826080936F00809180008F7B80681D
:101D7000809380008091840090918500409690939C
:101D8000890080938800E0CF862F0E948D0E81E02D
:101D900090E008951F920F920FB60F9211242F9387
:101DA0003F934F935F936F937F938F939F93EF93A3
:101DB000FF93209106036091050380918800909124
:101DC00089004091600350916103309104032A30EF
:101DD00070F5840F951F762F7170293009F471E02A
:101DE00066952F5F371799F3309180007723E1F0E4
:101DF000306C3093800090938900809388007093BA
:101E000004036093050320930603FF91EF919F91D4
:101E10008F917F916F915F914F913F912F910F9093
:101E20000FBE0F901F9018953F7B3068E2CF309126
:101E30000303E09102033E1319C02A3051F42BE052
:101E400020930603840F951F909389008093880048
:101E5000DCCF10920603809180008F738093800006
:101E600080916F008D7F80936F00CFCFEF5FE43460
:101E700008F0E0E0E0930203F0E0E254FD4F30812F
:101E80003093050310920403309180003F7B30684B
:101E9000309380002A3071F4209160033091610307
:101EA000820F931F909389008093880081E0809334
:101EB0000603ABCF80918400909185004096F2CFCD
:101EC000809106038111FCCF08950C94600F1F923E
:101ED0000F920FB60F9211242F933F934F935F935E
:101EE0006F937F938F939F93AF93BF93EF93FF93E2
:101EF000809186009091870040915D032091810040
:101F00004423F1F12F7B2093810010925D033091E7
:101F10005F0331113CC0411122C02091590330911F
:101F20005A03280F391F30938B0020938A0024E036
:101F300026BB20916F00246020936F0020916003E6
:101F400030916103820F931F36952795280F391F13
:101F500030935C0320935B0381E080935F03FF91E8
:101F6000EF91BF91AF919F918F917F916F915F9111
:101F70004F913F912F910F900FBE0F901F9018958A
:101F800020642093810020E820935D03C0CF40911E
:101F90005B0350915C036091600370916103DB010E
:101FA000A095B09520915E03E0915D03841B950B95
:101FB000A817B90768F126952E2B460F571F3F5FCC
:101FC000861B970B3930A0F320935E0380916F003E
:101FD0008B7F80936F00809158038F5F803508F06E
:101FE00080E090915703981749F0E82FF0E0909126
:101FF0005E03E95FFC4F90838093580380918100DA
:102000008F7B8093810010925D0310925F03A7CFB6
:1020100020935E0350935C0340935B0330935F0314
:102020009ECF1F920F920FB60F9211242F938F9372
:102030009F93EF93FF9380916F008B7F80936F004E
:10204000809181008F7B8093810080915F0320913C
:102050005D03205890915E03893020F49695922B71
:102060008F5FFACF90935E03809158038F5F803526
:1020700008F080E020915703281739F0E82FF0E0AE
:10208000E95FFC4F90838093580310925F03809127
:1020900081008F7B8093810010925D03FF91EF910F
:1020A0009F918F912F910F900FBE0F901F901895B9
:1020B00080915703809358030895CF93DF93CFE621
:1020C000D0E088818B7F888388818F7D88830E9480
:1020D00058100E94600F88818D7F8883DF91CF9197
:1020E00008951F920F920FB60F9211242F933F93D2
:1020F0008F939F93AF93BF938091670390916803F1
:10210000A0916903B0916A033091660323E0230F25
:102110002D3768F126E8230F0296A11DB11D2093EB
:1021200066038093670390936803A0936903B09359
:102130006A038091620390916303A0916403B0915C
:1021400065030196A11DB11D809362039093630303
:10215000A0936403B0936503BF91AF919F918F915A
:102160003F912F910F900FBE0F901F9018950196E1
:10217000A11DB11DD4CF2FB7F89460916703709162
:1021800068038091690390916A032FBF08953FB758
:10219000F8948091620390916303A0916403B091DD
:1021A000650326B5A89B05C02F3F19F00196A11D18
:1021B000B11D3FBFBA2FA92F982F8827BC01CD0191
:1021C000620F711D811D911D42E0660F771F881FF0
:1021D000991F4A95D1F708958F929F92AF92BF921F
:1021E000CF92DF92EF92FF926B017C010E94C710A9
:1021F0004B015C01C114D104E104F104E9F00E9437
:1022000047150E94C710681979098A099B09683E19
:1022100073408105910570F321E0C21AD108E108ED
:10222000F10888EE880E83E0981EA11CB11CC11431
:10223000D104E104F10429F7FF90EF90DF90CF90F3
:10224000BF90AF909F908F900895789484B58360ED
:1022500084BD85B5836085BDEEE6F0E08081816058
:102260008083E1E8F0E082E0808380818160808388
:10227000E0E8F0E0808181608083E1EBF0E0808144
:1022800084608083E0EBF0E080818160808387E878
:1022900080937A001092C1000895843081F028F470
:1022A0008230E9F08330F9F00895883071F0893098
:1022B00091F08530B9F4809180008F7D03C08091CA
:1022C00080008F778093800008958091B0008F7791
:1022D0008093B00008958091B0008F7DF9CF84B5D0
:1022E0008F7784BD089584B58F7DFBCFCF93DF9327
:1022F00090E0FC01E453FA4F24918D519A4FFC0178
:1023000084918823C9F090E0880F991FFC01E25F57
:10231000F94FA591B491FC01EC5FF94FC591D491AF
:1023200061110DC09FB7F8948C91209582238C93F6
:102330008881282328839FBFDF91CF910895623041
:1023400051F49FB7F8943C91822F809583238C930E
:10235000E8812E2BEFCF8FB7F894EC912E2B2C9396
:102360008FBFEACF1F93CF93DF93282F30E0F9017F
:10237000EB54FA4F8491F901E453FA4FD491F901E7
:10238000ED51FA4FC491CC23A9F0162F81110E9470
:102390004D11EC2FF0E0EE0FFF1FEC5FF94FA59110
:1023A000B4918FB7F894EC91111108C0D095DE2349
:1023B000DC938FBFDF91CF911F910895DE2BF8CF73
:1023C000CF93DF93282F30E0F901EB54FA4F84913B
:1023D000F901E453FA4FD491F901ED51FA4FC49148
:1023E000CC23A1F081110E944D11EC2FF0E0EE0FF3
:1023F000FF1FE650FA4FA591B491EC91ED2381E0D7
:1024000090E009F480E0DF91CF91089580E090E0C2
:10241000FACFFC01918D228D892F90E0805C9F4F37
:10242000821B91098F7399270895FC01918D828DEC
:10243000981731F0828DE80FF11D858D90E0089599
:102440008FEF9FEF0895FC01918D828D981761F0B9
:10245000A28DAE0FBF2FB11D5D968C91928D9F5FA7
:102460009F73928F90E008958FEF9FEF0895FC0186
:10247000538D448D252F30E0842F90E0821B930BE9
:10248000541710F0CF960895019708958CE893E1C2
:10249000892B49F080E090E0892B29F00E948C1371
:1024A00081110C9400000895FC01A48DA80FB92F90
:1024B000B11DA35ABF4F2C91848D90E001968F736C
:1024C0009927848FA689B7892C93A089B1898C918B
:1024D00080648C93938D848D981306C00288F38951
:1024E000E02D80818F7D80830895CF93DF93EC0171
:1024F000888D8823B9F0AA89BB89E889F9898C91EC
:1025000085FD03C0808186FD0DC00FB607FCF7CFA7
:102510008C9185FFF2CF808185FFEDCFCE010E94A7
:102520005412E9CFDF91CF910895EF92FF920F936C
:102530001F93CF93DF93EC0181E0888F9B8D8C8D6F
:10254000981316C0E889F989808185FF11C0EE894A
:10255000FF896083E889F98980818064808381E0D4
:1025600090E0DF91CF911F910F91FF90EF90089530
:10257000F62E0B8D10E00F5F1F4F0F731127E02E0B
:102580008C8D8E110CC00FB607FCFACFE889F98943
:10259000808185FFF5CFCE010E945412F1CFEB8DE3
:1025A000EC0FFD2FF11DE35AFF4FF0820B8FEA89EC
:1025B000FB8980818062D2CFCF92DF92EF92FF922F
:1025C0001F93CF93DF93EC016A017B01122FE889FF
:1025D000F98982E08083C11481EED806E104F10418
:1025E000A1F060E079E08DE390E0A70196010E9400
:1025F0005C15215031094109510956954795379588
:102600002795211580E1380798F0E889F98910822B
:1026100060E874E88EE190E0A70196010E945C15E5
:10262000215031094109510956954795379527950C
:10263000EC85FD853083EE85FF852083188EEC893F
:10264000FD891083EA89FB89808188698083EA8912
:10265000FB8980818F7D8083DF91CF911F91FF90D7
:10266000EF90DF90CF9008951F920F920FB60F92C8
:1026700011242F938F939F93EF93FF93E0917B030C
:10268000F0917C038081E0918103F091820382FDCF
:102690001BC09081809184038F5F8F73209185038D
:1026A000821741F0E0918403F0E0E559FC4F958FEB
:1026B00080938403FF91EF919F918F912F910F90C1
:1026C0000FBE0F901F9018958081F4CF1F920F922C
:1026D0000FB60F9211242F933F934F935F936F93F5
:1026E0007F938F939F93AF93BF93EF93FF938BE66B
:1026F00093E00E945412FF91EF91BF91AF919F918F
:102700008F917F916F915F914F913F912F910F909A
:102710000FBE0F901F9018958BE693E00E94091250
:1027200021E0892B09F420E0822F0895EBE6F3E005
:102730001382128288EE93E0A0E0B0E08483958358
:10274000A683B78382E691E09183808385EC90E055
:102750009587848784EC90E09787868780EC90E06B
:10276000918B808B81EC90E0938B828B82EC90E05C
:10277000958B848B86EC90E0978B868B118E128ED6
:10278000138E148E0895AF92BF92CF92DF92EF9284
:10279000FF920F931F93CF93DF936C017B018B010B
:1027A000040F151FEB015E01AE18BF08C017D1075B
:1027B00059F06991D601ED91FC910190F081E02DE5
:1027C000C6010995892B79F7C501DF91CF911F913A
:1027D0000F91FF90EF90DF90CF90BF90AF90089552
:1027E000FB0101900020E9F73197AF01461B570B21
:1027F000DC01ED91FC910280F381E02D0994EF92D0
:10280000FF920F931F93CF93DF938C017B01D0E056
:10281000C0E0F701EC0FFD1F6491662361F0D80161
:10282000ED91FC910190F081E02DC8010995892B73
:1028300011F02196EECFCE01DF91CF911F910F9134
:10284000FF90EF90089560E771E00C94F0130F9300
:102850001F93CF93DF93EC010E94FF138C01CE01F5
:102860000E942314800F911FDF91CF911F910F9130
:1028700008950F931F93CF93DF938C01D0E0C0E0B6
:102880006115710519F00E94F013EC01C8010E9456
:1028900023148C0F9D1FDF91CF911F910F910895ED
:1028A0008F929F92AF92BF92EF92FF920F931F93DE
:1028B000CF93DF93CDB7DEB7A1970FB6F894DEBF05
:1028C0000FBECDBF7C01FA01CB0119A2223008F462
:1028D0002AE08E010F5D1F4F822E912CB12CA12C6E
:1028E000BF01A50194010E945C15F901CA016A307B
:1028F0000CF5605DD8016E938D01232B242B252BC5
:1029000079F790E080E0109721F0BD01C7010E94A7
:10291000F013A1960FB6F894DEBF0FBECDBFDF91C6
:10292000CF911F910F91FF90EF90BF90AF909F902C
:102930008F900895695CDECF2115310541F4DC01EB
:10294000ED91FC910190F081E02D642F09940C949D
:1029500050149A01462F50E070E060E00C949C14F3
:102960000F931F93CF93DF93EC010E94A9148C0166
:10297000CE010E942314800F911FDF91CF911F91F0
:102980000F9108959A01AB0170E060E00C949C14E3
:102990000F931F93CF93DF93EC010E94C2148C011D
:1029A000CE010E942314800F911FDF91CF911F91C0
:1029B0000F9108950F931F93CF93DF93EC010E9423
:1029C000BB10688779878A879B87E881F9810284B1
:1029D000F385E02DCE01099597FF15C00E94BB102D
:1029E000088519852A853B85601B710B820B930B2B
:1029F0000C811D812E813F8160177107820793072B
:102A000020F38FEF9FEFDF91CF911F910F910895EA
:102A1000FC0144835583668377830895AF92BF9208
:102A2000CF92DF92EF92FF920F931F93CF93DF939A
:102A30005C017B018B01040F151FEB016E01CE18A9
:102A4000DF08C017D10739F0C5010E94DA1497FDDD
:102A500002C08993F3CFC601DF91CF911F910F91EF
:102A6000FF90EF90DF90CF90BF90AF9008950895C2
:102A70000E9425110E9437150E942706C6E4D2E164
:102A80000E94D0082097E1F30E944612F9CF0895E2
:102A900097FB072E16F4009407D077FD09D00E940B
:102AA000AE1507FC05D03EF4909581959F4F089593
:102AB000709561957F4F0895A1E21A2EAA1BBB1B4A
:102AC000FD010DC0AA1FBB1FEE1FFF1FA217B307FA
:102AD000E407F50720F0A21BB30BE40BF50B661F10
:102AE000771F881F991F1A9469F7609570958095D4
:102AF00090959B01AC01BD01CF010895052E97FB78
:102B00001EF400940E94951557FD07D00E945C1595
:102B100007FC03D04EF40C949515509540953095D4
:102B200021953F4F4F4F5F4F089590958095709539
:102B300061957F4F8F4F9F4F0895EE0FFF1F0590B8
:102B4000F491E02D09940E94C215A59F900DB49FA9
:102B5000900DA49F800D911D11240895AA1BBB1BED
:102B600051E107C0AA1FBB1FA617B70710F0A61B8D
:102B7000B70B881F991F5A95A9F780959095BC01AE
:102B8000CD010895A29FB001B39FC001A39F700D16
:102B9000811D1124911DB29F700D811D1124911D65
:102BA000089513E0CEE0D3E004C0FE010E949D151D
:0C2BB0002196CF30D107C9F7F894FFCF71
:102BBC00146F6E6C696E6500696E73657274656412
:102BCC000072656D6F766564004275696C74206F78
:102BDC006E204175672032392032303231206174D9
:102BEC002031353A31393A31330000000000940B72
:102BFC00C313700BF00B090C730BF10B00000000EE
:102C0C00C40EC313700B650F150EEC0D020E0000F5
:102C1C0000009512C31337127512091223121512E4
:042C2C000D0A00008D
:107E000001C0B7C0112484B790E89093610010922C
:107E10006100882361F0982F9A70923041F081FFC1
:107E200002C097EF94BF282E80E0C6D0E9C085E05D
:107E30008093810082E08093C00088E18093C1003C
:107E400080E18093C40086E08093C2008EE0B4D0CD
:107E5000259A84E020E33CEF91E030938500209365
:107E6000840096BBB09BFECF1D9AA8954091C000A0
:107E700047FD02C0815089F793D0813479F490D0C6
:107E8000182FA0D0123811F480E004C088E0113817
:107E900009F083E07ED080E17CD0EECF823419F40B
:107EA00084E198D0F8CF853411F485E0FACF853598
:107EB00041F476D0C82F74D0D82FCC0FDD1F82D0DC
:107EC000EACF863519F484E085D0DECF843691F58B
:107ED00067D066D0F82E64D0D82E00E011E05801AB
:107EE0008FEFA81AB80A5CD0F80180838501FA10D8
:107EF000F6CF68D0F5E4DF1201C0FFCF50E040E0DC
:107F000063E0CE0136D08E01E0E0F1E06F0182E067
:107F1000C80ED11C4081518161E0C8012AD00E5F9A
:107F20001F4FF601FC10F2CF50E040E065E0CE01BB
:107F300020D0B1CF843771F433D032D0F82E30D086
:107F400041D08E01F80185918F0123D0FA94F11070
:107F5000F9CFA1CF853739F435D08EE11AD085E934
:107F600018D08FE097CF813509F0A9CF88E024D0D1
:107F7000A6CFFC010A0167BFE895112407B600FCF3
:107F8000FDCF667029F0452B19F481E187BFE89594
:107F900008959091C00095FFFCCF8093C60008958E
:107FA0008091C00087FFFCCF8091C00084FD01C09C
:107FB000A8958091C6000895E0E6F0E098E19083EE
:107FC00080830895EDDF803219F088E0F5DFFFCF80
:107FD00084E1DFCFCF93C82FE3DFC150E9F7CF9122
:027FE000F1CFDF
:027FFE00000879
:0400000300007E007B
:00000001FF
