:100000000C9469000C9491000C9491000C943E07A0
:100010000C943E070C943E070C9491000C949100B4
:100020000C9491000C9491000C9431090C94940858
:100030000C94DB090C9491000C9491000C949100A9
:100040000C943B0A0C9491000C94FE0C0C94300D13
:100050000C9491000C9491000C9491000C949100DC
:100060000C9491000C949100000000090003020020
:10007000000405080000000000000000000000016E
:10008000020408102040800102040810200102042C
:100090000810204080400404040404040404020204
:1000A000020202020303030303030202030000002F
:1000B0000023002600290000000000250028002B56
:1000C0000000000000240027002A0000A606600DA2
:1000D000330711241FBECFEFD8E0DEBFCDBF11E044
:1000E000A0E0B1E0EEEEFCE102C005900D92A63278
:1000F000B107D9F723E0A6E2B1E001C01D92AB3908
:10010000B207E1F710E0C8E6D0E004C02197FE0195
:100110000E944A0EC636D107C9F70E94180E0C94E9
:100120006A0E0C940000AF92BF92CF92DF92EF92D2
:10013000FF920F931F93CF93DF93CDB7DEB72A972C
:100140000FB6F894DEBF0FBECDBF8C018AE0B82E8B
:10015000CE0101967C01CC24C394DD24DA94AA2438
:10016000A394D8018D919C91DC01ED91FC910084C8
:10017000F185E02D09950A970CF45BC0F7018B2DF2
:1001800011928A95E9F741E050E0B701D8018D91CD
:100190009C910E94EE0D813009F040C089818E371C
:1001A00091F749E050E0BE016E5F7F4FF80180811A
:1001B00091810E94EE0D8F5F8A3080F18A818F3F9E
:1001C00069F58B81863051F58A858F3E39F58C81B2
:1001D000282F30E02A5F3F4F4D81420F532F511D92
:1001E0002E81420F511D2F81240F352F311DA60165
:1001F000421B530B28853985322723273227421784
:10020000530761F48A3308F4ACCF8C3318F08F3382
:1002100009F0A7CFD8011896AC92A3CFF80180813E
:100220009181DC01ED91FC910084F185E02D09952F
:1002300098CF2A960FB6F894DEBF0FBECDBFDF91E0
:10024000CF911F910F91FF90EF90DF90CF90BF90D3
:10025000AF9008958F929F92AF92BF92EF92FF92CC
:100260000F931F93CF93DF93CDB7DEB72A970FB6C7
:10027000F894DEBF0FBECDBF8C01790186E0DE01B0
:100280001596FD01982F11929A95E9F79EE79983AB
:100290009FEF9A838B838FEE8A876C83E52FF0E044
:1002A0005E834F8370E06B5F7E4F8D81680F711DA1
:1002B000E60FF71F4E0F5F2F511D519541955109C4
:1002C000588749870E94850AD80112968D909D9083
:1002D000AD90BC901597AB01BC01481959096A094A
:1002E0007B0916968D919C91B0E0A0E048175907C4
:1002F0006A077B0750F4C8010E94930061E070E038
:1003000080E090E00E94B60ADDCFF801F782E68235
:1003100080819181DC01ED91FC910280F381E02DDF
:100320004AE050E0BE016F5F7F4F09950E94850A49
:10033000F80162837383848395832A960FB6F894B9
:10034000DEBF0FBECDBFDF91CF911F910F91FF9008
:10035000EF90BF90AF909F908F90089522E330E090
:1003600050E040E066E10C942A0186E291E00C94B2
:10037000AE01823031F4611104C086E291E00C9448
:10038000AE010895CF92DF92EF92FF92909100011B
:10039000992301F1C82ED12CF12CE12C40910001C0
:1003A000442381F041504093000150E022E330E0CB
:1003B00066E086E291E00E942A01C701B6010E9430
:1003C000B60AECCF86E291E0FF90EF90DF90CF90FD
:1003D0000C94AE01FF90EF90DF90CF9008951F93A3
:1003E000CF93DF93C62FD42F603111F06F3659F4BD
:1003F000DD2351F14D2F50E022E330E062E186E24F
:1004000091E00E942A018FEF8C0F823090F41D2F13
:100410001695169580910001811759F0412F50E0F3
:1004200022E330E066E086E291E00E942A01109328
:100430000001C350C23068F48D2F86958695DF91F8
:10044000CF911F910C94C20186E291E00E94AE010F
:10045000DACFDF91CF911F910895CF93DF9361E0C1
:100460008DE00E94400B68EB7BE080E090E00E9412
:10047000B60A63E876E080E090E00E94EF07C6E20B
:10048000D1E040E157E260E070E0888199810E940C
:10049000E80D0E94850A6A837B838C839D8340914B
:1004A000000150E022E330E066E0CE010E942A0124
:1004B00022E330E045E050E067E0CE010E942A01EF
:1004C00022E330E048EE53E062E1CE010E942A01CF
:1004D000CBE3D1E08FEE91E09987888785EB91E0BF
:1004E00099A788A780EB92E09B878A8789EB91E0A8
:1004F0009D838C83EAA5FBA526E042E15AE760E0F4
:1005000070E0808191810E94A60C1CA61EA61DA6EB
:100510001DAA1CAA1BAA1AAA8FEF9FEF9FAB8EAB36
:1005200099AF88AF0E94850A6093FD017093FE0128
:100530008093FF01909300021092FA011CAE1BAE53
:100540001DAE1EAE1092FC011092FB01E5E7F1E03A
:1005500080818170826081608083DF91CF91089576
:100560008F3039F4683181F4842F869586950C9408
:10057000C201813049F4462F50E022E330E062E1CD
:1005800086E291E00C942A010895CF93DF93EC0169
:10059000E881F981309711F0CB9609958CAD823FB7
:1005A00009F49EC090F5803C09F486C090F480392F
:1005B00009F454C030F4803809F445C0DF91CF917C
:1005C0000895803A09F475C0803BC1F7EA85FB8540
:1005D0003CC0803E09F459C058F4803D79F7EE855F
:1005E000FF85309759F36DAD8BADDF91CF910994B5
:1005F000803F09F464C0813F09F7EC89FD89309799
:10060000E9F28DADDF91CF9109948A3F91F180F4A9
:10061000863F09F477C028F4833F81F6E88DF98D91
:10062000EECF883FF1F0893F49F6E8A1F9A11BC060
:100630008C3F29F108F18E3F29F18F3F09F0BECFA1
:10064000E8A5F9A510C0EC81FD81309709F4B6CF7B
:100650004EAD6DAD8BADDF91CF910994EE81FF81F1
:10066000F4CFEC8DFD8D309709F4A8CFDF91CF91B9
:100670000994EE8DFF8DF7CFEAA1FBA1F4CFECA199
:10068000FDA1F1CFEEA1FFA1EECFE889F989309766
:1006900009F494CF6EAD20E8629FB0011124607818
:1006A0007F738DAD8F77682B70528BADDF91CF91BB
:1006B0000994E885F985C9CFEC85FD8592CFEA8953
:1006C000FB89309709F47ACF6DAD7EAD6138710545
:1006D00010F060E870E0CE01CF96DF91CF910994E1
:1006E000EE89FF89309709F469CF8EAD20E8829FAB
:1006F000C001112480789F732DAD2F77822BDF915D
:10070000CF910994EA8DFB8DAECF982F9F7E282F35
:100710002F7C203839F0803E29F081E0903C19F0A0
:1007200080E0089581E0089587FF0AC09CE0980F5B
:10073000923030F08D3F21F0803F18F4807F089593
:1007400080E00895DC018D919C91DC01ED91FC919C
:100750000190F081E02D09946D3F48F46A3F10F458
:10076000683F39F4FC01808191810C94A2036E3FB3
:10077000C8F70895EF92FF920F931F93CF93DF93E3
:10078000613E38F50150003178F567FF2DC0D22F5A
:10079000142FC62F7C01602F6C2BFC0182A593A522
:1007A0000E94A203612F6F77F70182A593A50E9493
:1007B000A203CF7EC03CC1F06D2F6F77F70182A5F9
:1007C00093A5DF91CF911F910F91FF90EF900C9423
:1007D000A203683F48F08A96DF91CF911F910F9155
:1007E000FF90EF900C94AC03DF91CF911F910F918C
:1007F000FF90EF900895EF92FF920F931F93CF9386
:10080000DF93EC019AAD292F217090FF1EC0892F34
:100810008E7FD9F0362F6CAD80E8860F8136F8F4E4
:100820000BAD031719F021E0311120E096959230BD
:1008300051F0933089F0913041F42EAD4DADCE01A1
:100840000E94BA0302C02111F8CFDF91CF911F910E
:100850000F91FF90EF9008952111F7CFEECFE0E1D7
:10086000E60FE03190F7F0E0E85CFB4F0C944A0EA5
:10087000520496047D046B042504250448042504D1
:10088000480425044804480448042504480448044E
:10089000CE018A96DF91CF911F910F91FF90EF903B
:1008A0000C94AC037E018FE3E80EF11C0DAD1EAD80
:1008B0000138110510F000E810E00E0D1F1DE016C4
:1008C000F10609F4C2CFF70161917F018AA59BA5CA
:1008D0000E94A203F4CF1DAD63EF8AA59BA50E94E1
:1008E000A203612F6F778AA59BA5DF91CF911F91FE
:1008F0000F91FF90EF900C94A2030EADF0E80F9FC4
:10090000800111248DAD082B62EF8AA59BA50E9462
:10091000A203602F6F778AA59BA50E94A203000FF8
:10092000012F001F110B1195602FDCCF6DAD80E101
:10093000689FB001112460771EAD1F70162B61EF08
:100940008AA59BA50E94A203612FCDCFEF92FF92B3
:100950001F93CF93DF9386E291E00E949300109162
:100960006701113108F076C0E0916501F0916601F0
:1009700080819181DC01ED91FC910084F185E02D75
:100980000995892B09F466C080910A028E7F8093B5
:100990000A02E0916501F091660180819181DC019C
:1009A000ED91FC910284F385E02D0995C82F8D3FD0
:1009B00009F450C080916F0190917001009709F087
:1009C000F6C0C0936A01D09168018D2F0E949403F4
:1009D0000E948503882361F0C7FD0AC0D0936A0195
:1009E000C0936B0181E090E09093700180936F0160
:1009F000C0916A018C2F0E949403813F09F496C034
:100A0000F0F5803B39F048F4803921F0803A11F05C
:100A1000803851F423E030E08BC0803D09F486C07B
:100A2000F8F4803C09F482C080910A0281608093CE
:100A30000A02E0913D01F0913E01309709F00995DD
:100A40001092700110926F0110926E0110926D0160
:100A500010926801DF91CF911F91FF90EF90089560
:100A6000803EC1F2803F01F720E830E030936E0114
:100A700020936D011092680180937A015DC0873FD9
:100A800099F308F04CC0833F09F450C018F2863F38
:100A900059F68093770110927601109278011092A6
:100AA000790181E08093FA011092700110926F0138
:100AB00010926E0110926D0180917701803939F4A6
:100AC00080917901811103C080E880937701809142
:100AD00077018058813638F480917601181719F023
:100AE000C0E0111105C08BE391E00E94C502C1E096
:100AF000612F8BE391E00E94FB03CC2309F4AACF82
:100B00008DE00E94AA0B61E0892B09F060E08DE086
:100B1000DF91CF911F91FF90EF900C947C0B8D3F54
:100B200008F4B7CF8E3F08F0B4CF7ECF22E030E09C
:100B300030936E0120936D01C13811F0C03B31F448
:100B400022E030E030936E0120936D0120916F011F
:100B50003091700140916D0150916E0141505109E9
:100B600024173507E8F080937701CF70CF5FC093EB
:100B7000760180916B01809378011092790181E078
:100B800090E09093FC018093FB0110927001109211
:100B90006F0110926E0110926D018093FA018CCF5B
:100BA0002F5F3F4F3093700120936F0153CFC7FFEA
:100BB0000CC0CD3F08F04DC0C83F08F04DC0C03F4D
:100BC00009F459C0C73F09F456C020916A01FC01DD
:100BD000E55CFE4F203F19F0273F09F075C0C7AF15
:100BE000E0906D01F0906E0197012150310982175C
:100BF000930708F4A9C0D0916A01D03F19F0D73FFC
:100C000009F064C0C091F90180EF8093F9018093ED
:100C1000770180E880937801109279011092760133
:100C200080E890E09093FC018093FB0181E0809349
:100C3000FA018BE391E00E94C50287EF80937A016D
:100C4000C0937B0182E090E09093700180936F01EC
:100C500001CFCE3F08F4B9CFC0937701109278014D
:100C6000109279011092760181E090E09093FC015E
:100C70008093FB0192CF20917A01203F19F0273F0A
:100C800009F0D2CE9C012F5F3F4F855C9E4FFC0147
:100C9000C7AF80EF8093770120937801309379017B
:100CA000109276013093FC012093FB0181E0809348
:100CB000FA011092700110926F0110926E01109261
:100CC0006D0110926801F8CEC7A78ACF8D2F0E94C0
:100CD0009403C82F809377010E948503882349F1EC
:100CE0008D2F8F708F5F8093760180916B01809341
:100CF000780180916C01F3E0EF16F10409F080E0D7
:100D0000809379011092700110926F0110926E0120
:100D100010926D0181E08093FA01C03B39F060F4DC
:100D2000C03921F0C03A11F0C03859F6D0936801AB
:100D3000C3CE10927601D9CFC03DC1F3C03EB1F30E
:100D4000C03C09F0BECFF2CF01967ECF8EEF92E08D
:100D500090930C0280930B02EBE3F1E0118210827E
:100D600013821282158214821782168211861086CF
:100D7000138612861586148617861686118A108A9F
:100D8000138A128A158A148A178A168A118E108E6F
:100D9000138E128E158E148E178E168E11A210A21F
:100DA00013A212A215A214A217A216A211A610A68F
:100DB0008BE092E093A782A714A615A616A613AA05
:100DC00012AA15AA14AA8FEF9FEF97AB86AB91AF2B
:100DD00080AF83E08093750113AE14AE15AE16AEEE
:100DE0001092FA01EAE7F1E080E8DF011D928A95AE
:100DF000E9F71092FD011092FE011092FF0110928E
:100E0000000210920102109202021092030210924C
:100E1000040210920502109206021092070210922C
:100E200008021092090210920A02EFE2F1E0138226
:100E3000128288EE93E0A0E0B0E084839583A683DD
:100E4000B78385E091E091838083A6E2B1E01196BB
:100E5000FC93EE9382E390E017969C938E93169703
:100E600018961C92089585E091E09093300180934C
:100E70002F010C94270A90E080E008951F920F92B2
:100E80000FB60F9211242F933F934F935F936F935D
:100E90007F938F939F93AF93BF93EF93FF93E091D3
:100EA0004F02F0915002309749F0A685B7858585AD
:100EB000968D91FF14C09C918923A1F4FF91EF912D
:100EC000BF91AF919F918F917F916F915F914F9162
:100ED0003F912F910F900FBE0F901F9018959C91EE
:100EE000892361F7A389B4899C9185898095892399
:100EF0008C93868997890197F1F7608D718DA6850E
:100F0000B785558538E020E0CB010197F1F7822FB6
:100F100090E095958795282F4C91452309F02068FE
:100F2000315091F7868D81FD209580910E0290E0E1
:100F300001968F73992730910D02381799F0A0917F
:100F40000E02B0E0A15FBD4F2C9380930E02828D04
:100F5000938D0197F1F7A389B4898C919589892B99
:100F60008C93ACCF868D8160868FF1CF8091EB0220
:100F70009091EA02891769F09F5F903508F090E040
:100F8000E92FF0E0E656FD4F80819093EA0290E071
:100F900008958FEF9FEF08958091EB02E091EA02B0
:100FA0008E1751F0EF5FE03508F0E0E0F0E0E65634
:100FB000FD4F808190E008958FEF9FEF089550914D
:100FC000EB024091EA02852F90E0242F30E0541785
:100FD00018F0821B930B0895805B9F4FFACF9B0103
:100FE000AC01213668E136074105510540F4109205
:100FF0006F001092800081E88093810018C0DC01AE
:10100000C90173E0B695A795979587957A95D1F71D
:10101000813668E19607A105B105C8F510926F0009
:101020001092800022E8209381009C01AD01309352
:10103000F4022093F302A5E2B0E00E94500E22E0F9
:1010400096958795779567952A95D1F77093ED02D8
:101050006093EC0262E088E00E94400B61E089E06E
:101060000E947C0B61E089E00E94400B1092F2022A
:101070001092EB021092EA021092990210929602DC
:101080001092950280E286BB80936F000895232F13
:10109000342F452F5527213688E138074105510562
:1010A000A8F710926F001092800084E8A5CF90916D
:1010B00096029F5F943408F090E0209195022917E2
:1010C000E1F32FB7F89430919902332349F0E92FD7
:1010D000F0E0EF5AFD4F8083909396022FBF089562
:1010E00091E090939902809398021092970282E087
:1010F00086BB80916F00826080936F00809180003A
:101100008F7B80688093800080918400909185001F
:1011100040969093890080938800E0CF862F0E94AC
:10112000570881E090E008951F920F920FB60F923A
:1011300011242F933F934F935F936F937F938F93DC
:101140009F93EF93FF932091990260919802809171
:101150008800909189004091F3025091F4023091FF
:1011600097022A3070F5840F951F762F7170293001
:1011700009F471E066952F5F371799F3309180007D
:101180007723E1F0306C3093800090938900809356
:101190008800709397026093980220939902FF91C0
:1011A000EF919F918F917F916F915F914F913F91BF
:1011B0002F910F900FBE0F901F9018953F7B3068B6
:1011C000E2CF30919602E09195023E1319C02A3089
:1011D00051F42BE020939902840F951F909389007E
:1011E00080938800DCCF10929902809180008F73E9
:1011F0008093800080916F008D7F80936F00CFCFB0
:10120000EF5FE43408F0E0E0E0939502F0E0EF5A9D
:10121000FD4F3081309398021092970230918000F8
:101220003F7B3068309380002A3071F42091F302C4
:101230003091F402820F931F90938900809388006D
:1012400081E080939902ABCF8091840090918500DA
:101250004096F2CF809199028111FCCF08950C94B1
:101260002A091F920F920FB60F9211242F933F93CA
:101270004F935F936F937F938F939F93AF93BF939E
:10128000EF93FF9380918600909187004091F00248
:10129000209181004423F1F12F7B20938100109253
:1012A000F0023091F20231113CC0411122C0209174
:1012B000EC023091ED02280F391F30938B00209300
:1012C0008A0024E026BB20916F00246020936F00E9
:1012D0002091F3023091F402820F931F36952795E7
:1012E000280F391F3093EF022093EE0281E08093A4
:1012F000F202FF91EF91BF91AF919F918F917F91FA
:101300006F915F914F913F912F910F900FBE0F9072
:101310001F90189520642093810020E82093F0020C
:10132000C0CF4091EE025091EF026091F3027091B4
:10133000F402DB01A095B0952091F102E091F0025A
:10134000841B950BA817B90768F126952E2B460F1D
:10135000571F3F5F861B970B3930A0F32093F10294
:1013600080916F008B7F80936F008091EB028F5F85
:10137000803508F080E09091EA02981749F0E82F54
:10138000F0E09091F102E656FD4F90838093EB02DE
:10139000809181008F7B809381001092F0021092E7
:1013A000F202A7CF2093F1025093EF024093EE0296
:1013B0003093F2029ECF1F920F920FB60F9211241C
:1013C0002F938F939F93EF93FF9380916F008B7F69
:1013D00080936F00809181008F7B8093810080914A
:1013E000F2022091F00220589091F102893020F40D
:1013F0009695922B8F5FFACF9093F1028091EB023A
:101400008F5F803508F080E02091EA02281739F0DC
:10141000E82FF0E0E656FD4F90838093EB021092A8
:10142000F202809181008F7B809381001092F00204
:10143000FF91EF919F918F912F910F900FBE0F9081
:101440001F9018958091EA028093EB020895CF9344
:10145000DF93CFE6D0E088818B7F888388818F7D82
:1014600088830E94220A0E942A0988818D7F8883AE
:10147000DF91CF9108951F920F920FB60F92112412
:101480002F933F938F939F93AF93BF938091FA02D3
:101490009091FB02A091FC02B091FD023091F90203
:1014A00023E0230F2D3768F126E8230F0296A11DB4
:1014B000B11D2093F9028093FA029093FB02A0934E
:1014C000FC02B093FD028091F5029091F602A0918A
:1014D000F702B091F8020196A11DB11D8093F502AB
:1014E0009093F602A093F702B093F802BF91AF91E8
:1014F0009F918F913F912F910F900FBE0F901F9052
:1015000018950196A11DB11DD4CF2FB7F894609105
:10151000FA027091FB028091FC029091FD022FBFB4
:1015200008953FB7F8948091F5029091F602A0914A
:10153000F702B091F80226B5A89B05C02F3F19F01D
:101540000196A11DB11D3FBFBA2FA92F982F882743
:10155000BC01CD01620F711D811D911D42E0660F1E
:10156000771F881F991F4A95D1F708958F929F92F0
:10157000AF92BF92CF92DF92EF92FF926B017C010C
:101580000E94910A4B015C01C114D104E104F104F1
:10159000E9F00E94270E0E94910A681979098A09C8
:1015A0009B09683E73408105910570F321E0C21AE2
:1015B000D108E108F10888EE880E83E0981EA11C8E
:1015C000B11CC114D104E104F10429F7FF90EF909C
:1015D000DF90CF90BF90AF909F908F9008957894B8
:1015E00084B5836084BD85B5836085BDEEE6F0E09B
:1015F000808181608083E1E8F0E082E08083808107
:1016000081608083E0E8F0E0808181608083E1EBAD
:10161000F0E0808184608083E0EBF0E08081816095
:10162000808387E880937A001092C1000895843007
:1016300081F028F48230E9F08330F9F008958830A1
:1016400071F0893091F08530B9F4809180008F7D00
:1016500003C0809180008F778093800008958091EF
:10166000B0008F778093B00008958091B0008F7D97
:10167000F9CF84B58F7784BD089584B58F7DFBCF76
:10168000CF93DF9390E0FC01E158FF4F24918A56FD
:101690009F4FFC0184918823C9F090E0880F991F27
:1016A000FC01EF53FF4FA591B491FC01E954FF4FAA
:1016B000C591D49161110DC09FB7F8948C9120957C
:1016C00082238C938881282328839FBFDF91CF9129
:1016D0000895623051F49FB7F8943C91822F809521
:1016E00083238C93E8812E2BEFCF8FB7F894EC9166
:1016F0002E2B2C938FBFEACF1F93CF93DF93282FEE
:1017000030E0F901E859FF4F8491F901E158FF4FAA
:10171000D491F901EA56FF4FC491CC23A9F0162FBA
:1017200081110E94170BEC2FF0E0EE0FFF1FE95420
:10173000FF4FA591B4918FB7F894EC91111108C0A7
:10174000D095DE23DC938FBFDF91CF911F91089559
:10175000DE2BF8CFCF93DF93282F30E0F901E85943
:10176000FF4F8491F901E158FF4FD491F901EA56F6
:10177000FF4FC491CC23A1F081110E94170BEC2FD5
:10178000F0E0EE0FFF1FE355FF4FA591B491EC91F0
:10179000ED2381E090E009F480E0DF91CF9108959E
:1017A00080E090E0FACFFC01918D228D892F90E0AE
:1017B000805C9F4F821B91098F7399270895FC01CC
:1017C000918D828D981731F0828DE80FF11D858DF6
:1017D00090E008958FEF9FEF0895FC01918D828D29
:1017E000981761F0A28DAE0FBF2FB11D5D968C9141
:1017F000928D9F5F9F73928F90E008958FEF9FEF80
:101800000895FC01538D448D252F30E0842F90E006
:10181000821B930B541710F0CF96089501970895EB
:1018200086E59DE0892B49F080E090E0892B29F046
:101830000E94560D81110C9400000895FC01A48DA6
:10184000A80FB92FB11DA35ABF4F2C91848D90E0E2
:1018500001968F739927848FA689B7892C93A089C5
:10186000B1898C9180648C93938D848D981306C07C
:101870000288F389E02D80818F7D80830895CF9346
:10188000DF93EC01888D8823B9F0AA89BB89E889A8
:10189000F9898C9185FD03C0808186FD0DC00FB64E
:1018A00007FCF7CF8C9185FFF2CF808185FFEDCFCC
:1018B000CE010E941E0CE9CFDF91CF910895EF92E7
:1018C000FF920F931F93CF93DF93EC0181E0888FFA
:1018D0009B8D8C8D981316C0E889F989808185FFCE
:1018E00011C0EE89FF896083E889F989808180646D
:1018F000808381E090E0DF91CF911F910F91FF9065
:10190000EF900895F62E0B8D10E00F5F1F4F0F73B1
:101910001127E02E8C8D8E110CC00FB607FCFACF6C
:10192000E889F989808185FFF5CFCE010E941E0CE0
:10193000F1CFEB8DEC0FFD2FF11DE35AFF4FF0823D
:101940000B8FEA89FB8980818062D2CFCF92DF92B0
:10195000EF92FF921F93CF93DF93EC016A017B011B
:10196000122FE889F98982E08083C11481EED806BC
:10197000E104F104A1F060E079E08DE390E0A701DB
:1019800096010E94280E21503109410951095695AE
:10199000479537952795211580E1380798F0E88914
:1019A000F989108260E874E88EE190E0A701960161
:1019B0000E94280E21503109410951095695479539
:1019C00037952795EC85FD853083EE85FF8520834F
:1019D000188EEC89FD891083EA89FB8980818869EA
:1019E0008083EA89FB8980818F7D8083DF91CF911D
:1019F0001F91FF90EF90DF90CF9008951F920F926C
:101A00000FB60F9211242F938F939F93EF93FF9311
:101A1000E0910E03F0910F038081E0911403F091A7
:101A2000150382FD1BC09081809117038F5F8F7318
:101A300020911803821741F0E0911703F0E0E25083
:101A4000FD4F958F80931703FF91EF919F918F9199
:101A50002F910F900FBE0F901F9018958081F4CF9B
:101A60001F920F920FB60F9211242F933F934F9313
:101A70005F936F937F938F939F93AF93BF93EF93F6
:101A8000FF938EEF92E00E941E0CFF91EF91BF91A9
:101A9000AF919F918F917F916F915F914F913F9106
:101AA0002F910F900FBE0F901F9018958EEF92E020
:101AB0000E94D30B21E0892B09F420E0822F0895A6
:101AC000EEEFF2E01382128288EE93E0A0E0B0E045
:101AD00084839583A683B78387E191E09183808394
:101AE00085EC90E09587848784EC90E097878687E3
:101AF00080EC90E0918B808B81EC90E0938B828BDB
:101B000082EC90E0958B848B86EC90E0978B868BB3
:101B1000118E128E138E148E0895AF92BF92CF92B3
:101B2000DF92EF92FF920F931F93CF93DF936C019D
:101B30007B018B01040F151FEB015E01AE18BF087E
:101B4000C017D10759F06991D601ED91FC91019030
:101B5000F081E02DC6010995892B79F7C501DF9148
:101B6000CF911F910F91FF90EF90DF90CF90BF909A
:101B7000AF9008950F931F93CF93DF93EC010E94D2
:101B8000850A688779878A879B87E881F98102843B
:101B9000F385E02DCE01099597FF15C00E94850AB7
:101BA000088519852A853B85601B710B820B930B79
:101BB0000C811D812E813F81601771078207930779
:101BC00020F38FEF9FEFDF91CF911F910F91089539
:101BD000FC0144835583668377830895AF92BF9257
:101BE000CF92DF92EF92FF920F931F93CF93DF93E9
:101BF0005C017B018B01040F151FEB016E01CE18F8
:101C0000DF08C017D10739F0C5010E94BA0D97FD52
:101C100002C08993F3CFC601DF91CF911F910F913D
:101C2000FF90EF90DF90CF90BF90AF900895089510
:101C30000E94EF0A0E94170E0E942D02C0E1DCE014
:101C40000E94A6042097E1F30E94100CF9CF08959A
:101C5000A1E21A2EAA1BBB1BFD010DC0AA1FBB1FB0
:101C6000EE1FFF1FA217B307E407F50720F0A21B22
:101C7000B30BE40BF50B661F771F881F991F1A948F
:101C800069F760957095809590959B01AC01BD01B9
:101C9000CF010895EE0FFF1F0590F491E02D0994F8
:101CA0000E945B0EA59F900DB49F900DA49F800D88
:101CB000911D11240895A29FB001B39FC001A39F5D
:101CC000700D811D1124911DB29F700D811D112475
:101CD000911D089510E0C8E6D0E004C0FE010E9406
:0E1CE0004A0E2196C936D107C9F7F894FFCFF6
:101CEE0014000000008E088D0D3B072F09DF07B68C
:101CFE0007CC07000000005F0C8D0D010C3F0CD3CC
:061D0E000BED0BDF0B00E2
:107E000001C0B7C0112484B790E89093610010922C
:107E10006100882361F0982F9A70923041F081FFC1
:107E200002C097EF94BF282E80E0C6D0E9C085E05D
:107E30008093810082E08093C00088E18093C1003C
:107E400080E18093C40086E08093C2008EE0B4D0CD
:107E5000259A84E020E33CEF91E030938500209365
:107E6000840096BBB09BFECF1D9AA8954091C000A0
:107E700047FD02C0815089F793D0813479F490D0C6
:107E8000182FA0D0123811F480E004C088E0113817
:107E900009F083E07ED080E17CD0EECF823419F40B
:107EA00084E198D0F8CF853411F485E0FACF853598
:107EB00041F476D0C82F74D0D82FCC0FDD1F82D0DC
:107EC000EACF863519F484E085D0DECF843691F58B
:107ED00067D066D0F82E64D0D82E00E011E05801AB
:107EE0008FEFA81AB80A5CD0F80180838501FA10D8
:107EF000F6CF68D0F5E4DF1201C0FFCF50E040E0DC
:107F000063E0CE0136D08E01E0E0F1E06F0182E067
:107F1000C80ED11C4081518161E0C8012AD00E5F9A
:107F20001F4FF601FC10F2CF50E040E065E0CE01BB
:107F300020D0B1CF843771F433D032D0F82E30D086
:107F400041D08E01F80185918F0123D0FA94F11070
:107F5000F9CFA1CF853739F435D08EE11AD085E934
:107F600018D08FE097CF813509F0A9CF88E024D0D1
:107F7000A6CFFC010A0167BFE895112407B600FCF3
:107F8000FDCF667029F0452B19F481E187BFE89594
:107F900008959091C00095FFFCCF8093C60008958E
:107FA0008091C00087FFFCCF8091C00084FD01C09C
:107FB000A8958091C6000895E0E6F0E098E19083EE
:107FC00080830895EDDF803219F088E0F5DFFFCF80
:107FD00084E1DFCFCF93C82FE3DFC150E9F7CF9122
:027FE000F1CFDF
:027FFE00000879
:0400000300007E007B
:00000001FF
