:020000040000FA
:100000000C9469000C9491000C9491000C94F909E3
:100010000C94F9090C94F9090C9491000C9491003A
:100020000C9491000C9491000C94EC0B0C944F0BDD
:100030000C94960C0C9491000C9491000C949100EB
:100040000C94500F0C9491000C94210E0C94530EB0
:100050000C9491000C9491000C9491000C949100DC
:100060000C9491000C949100000000090003020020
:10007000000405080000000000000000000000016E
:10008000020408102040800102040810200102042C
:100090000810204080400404040404040404020204
:1000A000020202020303030303030202030000002F
:1000B0000023002600290000000000250028002B56
:1000C0000000000000240027002A00006B08830EB7
:1000D000FB0811241FBECFEFD8E0DEBFCDBF11E07B
:1000E000A0E0B1E0E4ECF4E202C005900D92A0348F
:1000F000B107D9F723E0A0E4B1E001C01D92A03C14
:10010000B207E1F710E0C8E6D0E004C02197FE0195
:100110000E940B11C636D107C9F70E943D0F0C94FF
:1001200055120C9400000895DC011E96ED91FC918F
:10013000099460E170E00C944E0FFC012081318144
:100140002C3DF5E03F0728F4265F3F4FFC0131834B
:1001500020838DE00E94BF1061E0892B09F060E0F0
:100160008DE00C949110FC0131962FEF3FEF079634
:10017000E817F90721F04191241B3109F9CFC90192
:1001800001960895CF93DF93EC010E94B3009F8303
:100190008887DF91CF910895CF93DF93EC010E9480
:1001A000B3002F81388532272327322741E02817D3
:1001B000390709F040E0842FDF91CF9108954F92E5
:1001C0005F926F927F928F929F92AF92BF92CF92E7
:1001D000DF92EF92FF920F931F93CF93DF937C01F7
:1001E0002A013B0169010E949A0F4B015C0180E1E9
:1001F00090E00E944C0FEC0195018401B301A20133
:100200000E9470098BE091E099838883DF86CE8617
:10021000D701CD93DC9380912C0290912D02892BF4
:10022000A9F4D0932D02C0932C02DF91CF911F919E
:100230000F91FF90EF90DF90CF90BF90AF909F9085
:100240008F907F906F905F904F9008950E949A0FCB
:100250006B017C01E0912C02F0912D0230E020E056
:10026000309719F34681578160857185828193812A
:10027000A481B581840F951FA61FB71FAC01BD01D6
:100280004C195D096E097F098E819F81A885B9850A
:100290008A809B80AC80BD80880D991DAA1DBB1DE6
:1002A0008C199D09AE09BF0984179507A607B707E2
:1002B00094F42115310551F0D9011D96DC93CE93AC
:1002C0001C97FD87EC87B1CFFC01CACFD0932D02DC
:1002D000C0932C02F6CF848595859F010097A1F7E6
:1002E000D587C487A2CFEF92FF920F931F93CF932E
:1002F000DF93CDB7DEB72A970FB6F894DEBF0FBEF7
:10030000CDBF8C01F62EEE24E39441E050E0BE0117
:100310006F5F7F4FD80112968D919C910E94110FB3
:100320008130D9F589818E3781F749E050E0BE01EF
:100330006E5F7F4FF801828193810E94110F8F5F62
:100340008A3058F18A818F3F41F58B81863029F5BB
:100350008A858F3E11F5CE0101960E94CC0088233C
:10036000E1F09C812E813F81322723273227FF2015
:1003700051F1F91245C0C9012A960FB6F894DEBFB3
:100380000FBECDBFDF91CF911F910F91FF90EF90E6
:100390000895C8010E949D0030C080912A0290916A
:1003A0002B02019690932B0280932A02F8018281FE
:1003B0009381DC01ED91FC910084F185E02D09959C
:1003C000892B51F41AC09F3321F048F49A5392308C
:1003D000A0F4D8011A96EC92F11097CF0EC0903489
:1003E00061F480912A0290912B02019690932B0246
:1003F00080932A022330310561F230E020E0BBCF48
:100400009F3339F320F49A53923018F37ECF90340F
:1004100009F07BCFE6CFCF93DF93EC018A819B81FC
:10042000DC01ED91FC910084F185E02D09950A979E
:100430002CF060E0CE010E947301F0CFDF91CF91EC
:1004400008958F929F92AF92BF92EF92FF920F9377
:100450001F93CF93DF93CDB7DEB72A970FB6F894EB
:10046000DEBF0FBECDBF8C01790186E0FE0135965F
:10047000DF01982F1D929A95E9F79EE799839FEFE8
:100480009A838B838FEE8A876C835E834F83CE0142
:1004900001960E94C200D8018D919C91E80EF91E30
:1004A0000E949A0FF80184809580A680B780AB01E6
:1004B000BC01481959096A097B0980859185B0E01A
:1004C000A0E0481759076A077B0750F4C8010E944B
:1004D0000B0261E070E080E090E00E94CB0FE0CF83
:1004E000F186E08682819381DC01ED91FC910280AE
:1004F000F381E02D4AE050E0BE016F5F7F4F099528
:100500000E949A0FF80164837583868397832A96E5
:100510000FB6F894DEBF0FBECDBFDF91CF911F9114
:100520000F91FF90EF90BF90AF909F908F900895A4
:10053000462F50E030E020E066E00C94210230E0ED
:1005400020E050E040E066E10C94210280E491E07C
:100550000E949F0284E080932902089530E020E009
:1005600050E040E069E180E491E00C9421028F9238
:100570009F92AF92BF92CF92DF92EF92FF926C0167
:100580000E949A0F4B015C01F12CE12C0E949A0F02
:10059000681979098A099B096C157D058E059F05E7
:1005A00058F480E491E00E940B0261E070E080E08A
:1005B00090E00E94CB0FEACFFF90EF90DF90CF90BA
:1005C000BF90AF909F908F9008951F93CF93DF932C
:1005D00090912902933009F110910601C82FD0E0C3
:1005E000123050F01150612F80E491E00E94980287
:1005F000CE010E94B702F4CF80E491E00E949F02F6
:1006000082E390E00E94B7026091060180E491E0ED
:10061000DF91CF911F910C949802DF91CF911F91A0
:100620000895FF920F931F93CF93DF9300D0CDB720
:10063000DEB78F3008F443C0042F162FF82E603138
:1006400011F06F36E1F4002309F441C0402F50E06F
:1006500030E020E062E180E491E00E94210281E04C
:100660008093290280E1F8120AC02EEA32E044EFBA
:1006700051E060E070E0CE0101960E94DF008FEF54
:10068000810F823088F4F02EF694F6948091060162
:10069000F81639F06F2D80E491E00E949802F092F4
:1006A000060185E0809329021350123040F4802F18
:1006B000869586950E94E50283E0809329020F903B
:1006C0000F90DF91CF911F910F91FF90089580E4DB
:1006D00091E00E949F0282E080932902D0CFCF93C5
:1006E000C0E010922B0210922A0280E491E00E9456
:1006F0009F0230E020E050E040E068E180E491E0DB
:100700000E9421028091420190914301DC01ED9110
:10071000FC910084F185E02D09951816190634F432
:1007200060E080E491E00E947301ECCF30E020E0D3
:1007300050E040E062E480E491E00E94210262E443
:1007400080E491E00E947301892B31F080912A02AC
:1007500090912B02892B79F0809140019091410179
:100760008C3DB5E09B0708F0BBCF0A969093410102
:1007700080934001B5CFCF5FCA3008F4B2CF80E498
:1007800091E0CF910C949F02CF93DF9361E08DE0D5
:100790000E94551063E876E080E090E00E94AA0A8B
:1007A00048EE53E060E070E0809142019091430197
:1007B0000E940B0F0E949A0F6093440170934501B1
:1007C00080934601909347018EE190E09093410120
:1007D0008093400128E532E050E040E06CE080E4A6
:1007E00091E00E94210210924A0184EF91E00E9460
:1007F000B70260E080E491E00E94980228EC30E0CB
:1008000042E050E069E080E491E00E942102C4E10E
:10081000D0E084E690E00E94B70280914A01811105
:1008200002C02197B1F70E946F036091060180E436
:1008300091E00E94980230E020E045E050E067E05F
:1008400080E491E00E94210284EF91E00E94B702CF
:1008500030E020E048EE53E062E180E491E00E9465
:10086000210288EB9BE00E94B70281E193E0909324
:10087000600180935F0186EA92E09093800180930B
:100880007F01E0918101F091820126E042E15AE787
:1008900060E070E0808191810E94C90D1092830117
:1008A000109285011092840110928C0110928B019C
:1008B00010928A01109289018FEF9FEF90938E0121
:1008C00080938D019093900180938F010E949A0FE5
:1008D0006093190270931A0280931B0290931C027A
:1008E00010921602109293011092920110929401AC
:1008F00010929501109218021092170280919101A6
:1009000081708260816080939101DF91CF91089521
:10091000CF93DF93EC01E881F981309711F0CB960A
:1009200009958CAD823F09F49EC090F5803C09F496
:1009300086C090F4803909F454C030F4803809F44A
:1009400045C0DF91CF910895803A09F475C0803B8E
:10095000C1F7EA85FB853CC0803E09F459C058F4D4
:10096000803D79F7EE85FF85309759F36DAD8BADFE
:10097000DF91CF910994803F09F464C0813F09F76A
:10098000EC89FD893097E9F28DADDF91CF91099423
:100990008A3F91F180F4863F09F477C028F4833FC1
:1009A00081F6E88DF98DEECF883FF1F0893F49F669
:1009B000E8A1F9A11BC08C3F29F108F18E3F29F174
:1009C0008F3F09F0BECFE8A5F9A510C0EC81FD81ED
:1009D000309709F4B6CF4EAD6DAD8BADDF91CF91B1
:1009E0000994EE81FF81F4CFEC8DFD8D309709F4F1
:1009F000A8CFDF91CF910994EE8DFF8DF7CFEAA1BB
:100A0000FBA1F4CFECA1FDA1F1CFEEA1FFA1EECFB0
:100A1000E889F989309709F494CF6EAD20E8629F98
:100A2000B001112460787F738DAD8F77682B705281
:100A30008BADDF91CF910994E885F985C9CFEC851D
:100A4000FD8592CFEA89FB89309709F47ACF6DADA5
:100A50007EAD6138710510F060E870E0CE01CF9690
:100A6000DF91CF910994EE89FF89309709F469CF1E
:100A70008EAD20E8829FC001112480789F732DAD38
:100A80002F77822BDF91CF910994EA8DFB8DAECF2A
:100A9000982F9F7E282F2F7C203839F0803E29F018
:100AA00081E0903C19F080E0089581E0089587FF8F
:100AB0000AC09CE0980F923030F08D3F21F0803FCB
:100AC00018F4807F089580E00895DC018D919C9159
:100AD000DC01ED91FC910190F081E02D09946D3FD6
:100AE00048F46A3F10F4683F39F4FC018081918139
:100AF0000C9465056E3FC8F70895EF92FF920F932F
:100B00001F93CF93DF93613E38F50150003178F5A4
:100B100067FF2DC0D22F142FC62F7C01602F6C2BA6
:100B2000FC0182A593A50E946505612F6F77F701EF
:100B300082A593A50E946505CF7EC03CC1F06D2FB4
:100B40006F77F70182A593A5DF91CF911F910F9148
:100B5000FF90EF900C946505683F48F08A96DF910E
:100B6000CF911F910F91FF90EF900C946F05DF9143
:100B7000CF911F910F91FF90EF900895EF92FF9208
:100B80000F931F93CF93DF93EC019AAD292F217020
:100B900090FF1EC0892F8E7FD9F0362F6CAD80E874
:100BA000860F8136F8F40BAD031719F021E03111EF
:100BB00020E09695923051F0933089F0913041F4D5
:100BC0002EAD4DADCE010E947D0502C02111F8CFA2
:100BD000DF91CF911F910F91FF90EF900895211118
:100BE000F7CFEECFE0E1E60FE03190F7F0E0E5502F
:100BF000FA4F0C940B111506590640062E06E8050F
:100C0000E8050B06E8050B06E8050B060B060B06C8
:100C1000E8050B060B06CE018A96DF91CF911F9156
:100C20000F91FF90EF900C946F057E018FE3E80E1B
:100C3000F11C0DAD1EAD0138110510F000E810E0FB
:100C40000E0D1F1DE016F10609F4C2CFF7016191E8
:100C50007F018AA59BA50E946505F4CF1DAD63EFBA
:100C60008AA59BA50E946505612F6F778AA59BA524
:100C7000DF91CF911F910F91FF90EF900C9465053C
:100C80000EADF0E80F9F800111248DAD082B62EFAF
:100C90008AA59BA50E946505602F6F778AA59BA5F5
:100CA0000E946505000F012F001F110B1195602F89
:100CB000DCCF6DAD80E1689FB001112460771EAD7F
:100CC0001F70162B61EF8AA59BA50E946505612FF9
:100CD000CDCFEF92FF921F93CF93DF9380E491E00B
:100CE0000E940B020E94860910918301113108F0C5
:100CF00076C0E0918101F091820180819181DC01D7
:100D0000ED91FC910084F185E02D0995892B09F482
:100D100066C0809126028E7F80932602E091810139
:100D2000F091820180819181DC01ED91FC9102843E
:100D3000F385E02D0995C82F8D3F09F450C08091AF
:100D40008B0190918C01009709F0F6C0C093860149
:100D5000D09184018D2F0E9457050E944805882359
:100D600061F0C7FD0AC0D0938601C093870181E07E
:100D700090E090938C0180938B01C09186018C2F21
:100D80000E945705813F09F496C0F0F5803B39F089
:100D900048F4803921F0803A11F0803851F423E092
:100DA00030E08BC0803D09F486C0F8F4803C09F443
:100DB00082C080912602816080932602E0915901D1
:100DC000F0915A01309709F0099510928C01109218
:100DD0008B0110928A011092890110928401DF9197
:100DE000CF911F91FF90EF900895803EC1F2803F18
:100DF00001F720E830E030938A01209389011092B6
:100E00008401809396015DC0873F99F308F04CC040
:100E1000833F09F450C018F2863F59F6809393013E
:100E200010929201109294011092950181E08093AA
:100E3000160210928C0110928B0110928A0110926E
:100E4000890180919301803939F480919501811154
:100E500003C080E88093930180919301805881368C
:100E600038F480919201181719F0C0E0111105C0F3
:100E700087E591E00E948804C1E0612F87E591E059
:100E80000E94BE05CC2309F4AACF8DE00E94BF10BA
:100E900061E0892B09F060E08DE0DF91CF911F9137
:100EA000FF90EF900C9491108D3F08F4B7CF8E3FD8
:100EB00008F0B4CF7ECF22E030E030938A01209357
:100EC0008901C13811F0C03B31F422E030E03093A9
:100ED0008A012093890120918B0130918C014091EE
:100EE000890150918A014150510924173507E8F0D2
:100EF00080939301CF70CF5FC0939201809187015F
:100F0000809394011092950181E090E090931802F3
:100F10008093170210928C0110928B0110928A011B
:100F200010928901809316028CCF2F5F3F4F309330
:100F30008C0120938B0153CFC7FF0CC0CD3F08F02D
:100F40004DC0C83F08F04DC0C03F09F459C0C73F6D
:100F500009F456C020918601FC01E95AFE4F203F5A
:100F600019F0273F09F075C0C7AFE0908901F090F4
:100F70008A019701215031098217930708F4A9C00B
:100F8000D0918601D03F19F0D73F09F064C0C091DD
:100F9000150280EF809315028093930180E880937F
:100FA0009401109295011092920180E890E0909344
:100FB00018028093170281E08093160287E591E082
:100FC0000E94880487EF80939601C093970182E086
:100FD00090E090938C0180938B0101CFCE3F08F479
:100FE000B9CFC09393011092940110929501109281
:100FF000920181E090E0909318028093170292CFC3
:1010000020919601203F19F0273F09F0D2CE9C0194
:101010002F5F3F4F895A9E4FFC01C7AF80EF8093EF
:101020009301209394013093950110929201309393
:1010300018022093170281E08093160210928C010F
:1010400010928B0110928A011092890110928401F2
:10105000F8CEC7A78ACF8D2F0E945705C82F80933F
:1010600093010E944805882349F18D2F8F708F5F6F
:1010700080939201809187018093940180918801EF
:10108000F3E0EF16F10409F080E0809395011092EF
:101090008C0110928B0110928A011092890181E0DB
:1010A00080931602C03B39F060F4C03921F0C03A99
:1010B00011F0C03859F6D0938401C3CE109292013A
:1010C000D9CFC03DC1F3C03EB1F3C03C09F0BECFA3
:1010D000F2CF01967ECF86E193E090932802809331
:1010E0002702E7E5F1E01182108213821282158255
:1010F0001482178216821186108613861286158630
:10110000148617861686118A108A138A128A158AFF
:10111000148A178A168A118E108E138E128E158ECF
:10112000148E178E168E11A210A213A212A215A24F
:1011300014A217A216A211A610A687E292E093A706
:1011400082A714A615A616A613AA12AA15AA14AA4F
:101150008FEF9FEF97AB86AB91AF80AF83E080932B
:10116000910113AE14AE15AE16AE10921602E6E95A
:10117000F1E080E8DF011D928A95E9F710921902EB
:1011800010921A0210921B0210921C0210921D0261
:1011900010921E0210921F02109220021092210241
:1011A0001092220210922302109224021092250221
:1011B00010922602ABE4B1E013961C921E92129795
:1011C00048EE53E060E070E014964D935D936D93AC
:1011D0007C9317978FE191E011969C938E93E0E4B6
:1011E000F1E08AE090E091838083B383A2839187CA
:1011F0008087128608958FE191E090934C0180934F
:101200004B010C94E20C8F929F92AF92BF92CF92BF
:10121000DF92EF92FF92CF93DF9320912C023091D7
:101220002D02232B79F490932D0280932C02DF91D1
:10123000CF91FF90EF90DF90CF90BF90AF909F90B5
:101240008F900895EC010E949A0F6B017C01E09150
:101250002C02F0912D0230E020E0309741F34681DE
:1012600057816085718582819381A481B581840FC6
:10127000951FA61FB71FAC01BD014C195D096E0972
:101280007F098E819F81A885B9858A809B80AC80EB
:10129000BD80880D991DAA1DBB1D8C199D09AE0925
:1012A000BF0984179507A607B70794F421153105E0
:1012B00051F0D9011D96DC93CE931C97FD87EC87E6
:1012C000B6CFFC01CACFD0932D02C0932C02F6CF2B
:1012D000848595859F010097A1F7D587C487A7CFFF
:1012E0000F931F93FC0185E191E0918380834283FA
:1012F000538364837583068317832087318713861E
:101300001286158614861F910F910895CF92DF9251
:10131000EF92FF920F931F9380912C0290912D02D8
:10132000892B09F45CC00E949A0F6B017C01A0918B
:101330002C02B0912D0216964D915D916D917C918C
:1013400019979C018601041B150B260B370B12966F
:101350004D915D916D917C911597401751076207F2
:101360007307E8F5ED91FC9111970480F581E02D6C
:10137000CD010995A0912C02B0912D021C968D9162
:101380009C911D9790932D0280932C021A968D911B
:101390009C911B97029799F41696CD92DD92ED924F
:1013A000FC9219971D961C921E921C97CD011F91BD
:1013B0000F91FF90EF90DF90CF900C94030910975E
:1013C00071F0ED91FC9111970280F381E02DCD0138
:1013D0001F910F91FF90EF90DF90CF9009941F9194
:1013E0000F91FF90EF90DF90CF90089590E080E014
:1013F00008951F920F920FB60F9211242F933F93CF
:101400004F935F936F937F938F939F93AF93BF930C
:10141000EF93FF93E0917002F0917102309749F0E1
:10142000A685B7858585968D91FF14C09C918923EB
:10143000A1F4FF91EF91BF91AF919F918F917F9117
:101440006F915F914F913F912F910F900FBE0F9031
:101450001F9018959C91892361F7A389B4899C9169
:101460008589809589238C93868997890197F1F7DF
:10147000608D718DA685B785558538E020E0CB015C
:101480000197F1F7822F90E095958795282F4C9141
:10149000452309F02068315091F7868D81FD209514
:1014A00080912F0290E001968F73992730912E0240
:1014B000381799F0A0912F02B0E0A05DBD4F2C939A
:1014C00080932F02828D938D0197F1F7A389B489C0
:1014D0008C919589892B8C93ACCF868D8160868F7A
:1014E000F1CF80910C0390910B03891769F09F5FF6
:1014F000903508F090E0E92FF0E0E554FD4F808151
:1015000090930B0390E008958FEF9FEF08958091E3
:101510000C03E0910B038E1751F0EF5FE03508F0FC
:10152000E0E0F0E0E554FD4F808190E008958FEF1A
:101530009FEF089550910C0340910B03852F90E08D
:10154000242F30E0541718F0821B930B0895805B12
:101550009F4FFACF9B01AC01213668E13607410568
:10156000510540F410926F001092800081E8809342
:10157000810018C0DC01C90173E0B695A795979565
:1015800087957A95D1F7813668E19607A105B1056F
:10159000C8F510926F001092800022E8209381001D
:1015A0009C01AD013093150320931403A5E2B0E034
:1015B0000E94111122E096958795779567952A9557
:1015C000D1F770930E0360930D0362E088E00E94F0
:1015D000551061E089E00E94911061E089E00E946D
:1015E00055101092130310920C0310920B031092DB
:1015F000BA021092B7021092B60280E286BB8093C4
:101600006F000895232F342F452F5527213688E169
:10161000380741055105A8F710926F00109280001D
:1016200084E8A5CF9091B7029F5F943408F090E0D2
:101630002091B6022917E1F32FB7F8943091BA023E
:10164000332349F0E92FF0E0EE58FD4F808390936B
:10165000B7022FBF089591E09093BA028093B90228
:101660001092B80282E086BB80916F008260809306
:101670006F00809180008F7B8068809380008091D4
:101680008400909185004096909389008093880013
:10169000E0CF862F0E94120B81E090E008951F9208
:1016A0000F920FB60F9211242F933F934F935F9396
:1016B0006F937F938F939F93EF93FF932091BA0241
:1016C0006091B90280918800909189004091140343
:1016D000509115033091B8022A3070F5840F951F90
:1016E000762F7170293009F471E066952F5F3717F6
:1016F00099F3309180007723E1F0306C30938000D3
:1017000090938900809388007093B8026093B90227
:101710002093BA02FF91EF919F918F917F916F91EA
:101720005F914F913F912F910F900FBE0F901F909F
:1017300018953F7B3068E2CF3091B702E091B60256
:101740003E1319C02A3051F42BE02093BA02840FC3
:10175000951F9093890080938800DCCF1092BA0285
:10176000809180008F738093800080916F008D7FC7
:1017700080936F00CFCFEF5FE43408F0E0E0E093B8
:10178000B602F0E0EE58FD4F30813093B90210926E
:10179000B802309180003F7B3068309380002A305F
:1017A00071F42091140330911503820F931F9093CD
:1017B00089008093880081E08093BA02ABCF80914A
:1017C0008400909185004096F2CF8091BA028111F9
:1017D000FCCF08950C94E50B1F920F920FB60F9259
:1017E00011242F933F934F935F936F937F938F9326
:1017F0009F93AF93BF93EF93FF9380918600909157
:10180000870040911103209181004423F1F12F7B47
:1018100020938100109211033091130331113CC0C9
:10182000411122C020910D0330910E03280F391F62
:1018300030938B0020938A0024E026BB20916F0018
:10184000246020936F002091140330911503820FC0
:10185000931F36952795280F391F30931003209337
:101860000F0381E080931303FF91EF91BF91AF913C
:101870009F918F917F916F915F914F913F912F91A8
:101880000F900FBE0F901F90189520642093810039
:1018900020E820931103C0CF40910F035091100313
:1018A0006091140370911503DB01A095B095209110
:1018B0001203E0911103841B950BA817B90768F177
:1018C00026952E2B460F571F3F5F861B970B3930EF
:1018D000A0F32093120380916F008B7F80936F00A1
:1018E00080910C038F5F803508F080E090910B03AE
:1018F000981749F0E82FF0E090911203E554FD4F5E
:10190000908380930C03809181008F7B8093810072
:101910001092110310921303A7CF20931203509338
:10192000100340930F03309313039ECF1F920F9227
:101930000FB60F9211242F938F939F93EF93FF93E2
:1019400080916F008B7F80936F00809181008F7BEF
:10195000809381008091130320911103205890916E
:101960001203893020F49695922B8F5FFACF9093D3
:10197000120380910C038F5F803508F080E0209186
:101980000B03281739F0E82FF0E0E554FD4F908362
:1019900080930C0310921303809181008F7B8093BE
:1019A000810010921103FF91EF919F918F912F91E0
:1019B0000F900FBE0F901F90189580910B0380938E
:1019C0000C030895CF93DF93CFE6D0E088818B7F1F
:1019D000888388818F7D88830E94DD0C0E94E50BBF
:1019E00088818D7F8883DF91CF910895FC01918D4F
:1019F000228D892F90E0805C9F4F821B91098F730D
:101A000099270895FC01918D828D981731F0828D70
:101A1000E80FF11D858D90E008958FEF9FEF0895F9
:101A2000FC01918D828D981761F0A28DAE0FBF2FB2
:101A3000B11D5D968C91928D9F5F9F73928F90E008
:101A400008958FEF9FEF0895FC01538D448D252F4E
:101A500030E0842F90E0821B930B541710F0CF9648
:101A600008950197089589E79EE0892B49F080E069
:101A700090E0892B29F00E94790E81110C940000CE
:101A80000895FC01A48DA80FB92FB11DA35ABF4F13
:101A90002C91848D90E001968F739927848FA6896D
:101AA000B7892C93A089B1898C9180648C93938D94
:101AB000848D981306C00288F389E02D80818F7D84
:101AC00080830895CF93DF93EC01888D8823B9F04C
:101AD000AA89BB89E889F9898C9185FD03C0808139
:101AE00086FD0DC00FB607FCF7CF8C9185FFF2CFB6
:101AF000808185FFEDCFCE010E94410DE9CFDF91BE
:101B0000CF910895EF92FF920F931F93CF93DF939E
:101B1000EC0181E0888F9B8D8C8D981316C0E8892D
:101B2000F989808185FF11C0EE89FF896083E8898A
:101B3000F98980818064808381E090E0DF91CF919A
:101B40001F910F91FF90EF900895F62E0B8D10E0EE
:101B50000F5F1F4F0F731127E02E8C8D8E110CC05D
:101B60000FB607FCFACFE889F989808185FFF5CFA8
:101B7000CE010E94410DF1CFEB8DEC0FFD2FF11D39
:101B8000E35AFF4FF0820B8FEA89FB8980818062E4
:101B9000D2CFCF92DF92EF92FF921F93CF93DF933A
:101BA000EC016A017B01122FE889F98982E08083C8
:101BB000C11481EED806E104F104A1F060E079E0FF
:101BC0008DE390E0A70196010E94E91021503109B0
:101BD000410951095695479537952795211580E17B
:101BE000380798F0E889F989108260E874E88EE196
:101BF00090E0A70196010E94E910215031094109A6
:101C000051095695479537952795EC85FD85308385
:101C1000EE85FF852083188EEC89FD891083EA8983
:101C2000FB89808188698083EA89FB8980818F7D37
:101C30008083DF91CF911F91FF90EF90DF90CF9045
:101C400008951F920F920FB60F9211242F938F9326
:101C50009F93EF93FF93E0912603F09127038081F8
:101C6000E0912C03F0912D0382FD1BC090818091A7
:101C70002F038F5F8F7320913003821741F0E09123
:101C80002F03F0E0EA5EFC4F958F80932F03FF91C6
:101C9000EF919F918F912F910F900FBE0F901F90FA
:101CA00018958081F4CF1F920F920FB60F921124D6
:101CB0002F933F934F935F936F937F938F939F9354
:101CC000AF93BF93EF93FF9386E193E00E94410DA2
:101CD000FF91EF91BF91AF919F918F917F916F9104
:101CE0005F914F913F912F910F900FBE0F901F90DA
:101CF000189586E193E00E94F60C21E0892B09F407
:101D000020E0822F0895E6E1F3E01382128288EE4C
:101D100093E0A0E0B0E084839583A683B78381E35A
:101D200091E09183808385EC90E09587848784ECB3
:101D300090E09787868780EC90E0918B808B81EC98
:101D400090E0938B828B82EC90E0958B848B86EC79
:101D500090E0978B868B118E128E138E148E0895C1
:101D6000AF92BF92CF92DF92EF92FF920F931F93A9
:101D7000CF93DF936C017B018B01040F151FEB01E7
:101D80005E01AE18BF08C017D10759F06991D6019E
:101D9000ED91FC910190F081E02DC6010995892B10
:101DA00079F7C501DF91CF911F910F91FF90EF90CF
:101DB000DF90CF90BF90AF9008950F931F93CF9374
:101DC000DF93EC010E949A0F688779878A879B8747
:101DD000E881F9810284F385E02DCE01099597FF12
:101DE00015C00E949A0F088519852A853B85601BBE
:101DF000710B820B930B0C811D812E813F8160172B
:101E000071078207930720F38FEF9FEFDF91CF9148
:101E10001F910F910895FC01448355836683778356
:101E20000895AF92BF92CF92DF92EF92FF920F93FD
:101E30001F93CF93DF935C017B018B01040F151F70
:101E4000EB016E01CE18DF08C017D10739F0C501CC
:101E50000E94DD0E97FD02C08993F3CFC601DF918A
:101E6000CF911F910F91FF90EF90DF90CF90BF9097
:101E7000AF9008950E94501208950E9404100E948D
:101E80003C0F0E94C403C3E3DDE00E946906209773
:101E9000E1F30E94330DF9CF0C942B110C94C71170
:101EA0001F920F920FB60F9211242F933F938F938F
:101EB0009F93AF93BF938091B8039091B903A09182
:101EC000BA03B091BB033091B70323E0230F2D3742
:101ED00068F126E8230F0296A11DB11D2093B703D8
:101EE0008093B8039093B903A093BA03B093BB0354
:101EF0008091B3039091B403A091B503B091B60360
:101F00000196A11DB11D8093B3039093B403A093D8
:101F1000B503B093B603BF91AF919F918F913F915D
:101F20002F910F900FBE0F901F9018950196A11D35
:101F3000B11DD4CF2FB7F8946091B8037091B90355
:101F40008091BA039091BB032FBF08953FB7F894D7
:101F50008091B3039091B403A091B503B091B603FF
:101F600026B5A89B05C02F3F19F00196A11DB11DF4
:101F70003FBFBA2FA92F982F8827BC01CD01620F30
:101F8000711D811D911D42E0660F771F881F991FEB
:101F90004A95D1F708958F929F92AF92BF92CF92B8
:101FA000DF92EF92FF926B017C010E94A60F4B0122
:101FB0005C01C114D104E104F104E9F00E94E810CD
:101FC0000E94A60F681979098A099B09683E734027
:101FD0008105910570F321E0C21AD108E108F108EA
:101FE00088EE880E83E0981EA11CB11CC114D10498
:101FF000E104F10429F7FF90EF90DF90CF90BF90BC
:10200000AF909F908F900895789484B5836084BD3D
:1020100085B5836085BDEEE6F0E0808181608083D8
:10202000E1E8F0E082E08083808181608083E0E805
:10203000F0E0808181608083E1EBF0E0808184606A
:102040008083E0EBF0E080818160808387E880938B
:102050007A001092C1000895843081F028F4823013
:10206000E9F08330F9F00895883071F0893091F00B
:102070008530B9F4809180008F7D03C0809180000D
:102080008F778093800008958091B0008F77809340
:10209000B00008958091B0008F7DF9CF84B58F771F
:1020A00084BD089584B58F7DFBCFCF93DF9390E0FF
:1020B000FC01E158FF4F24918A569F4FFC01849107
:1020C0008823C9F090E0880F991FFC01EF53FF4F60
:1020D000A591B491FC01E954FF4FC591D4916111D0
:1020E0000DC09FB7F8948C91209582238C938881A2
:1020F000282328839FBFDF91CF910895623051F448
:102100009FB7F8943C91822F809583238C93E8812C
:102110002E2BEFCF8FB7F894EC912E2B2C938FBFF3
:10212000EACF1F93CF93DF93282F30E0F901E859CE
:10213000FF4F8491F901E158FF4FD491F901EA561C
:10214000FF4FC491CC23A9F0162F81110E942C10AF
:10215000EC2FF0E0EE0FFF1FE954FF4FA591B49173
:102160008FB7F894EC91111108C0D095DE23DC9361
:102170008FBFDF91CF911F910895DE2BF8CFCF93C2
:10218000DF93282F30E0F901E859FF4F8491F901DE
:10219000E158FF4FD491F901EA56FF4FC491CC2387
:1021A000A1F081110E942C10EC2FF0E0EE0FFF1F28
:1021B000E355FF4FA591B491EC91ED2381E090E0C0
:1021C00009F480E0DF91CF91089580E090E0FACFAC
:1021D0000895A1E21A2EAA1BBB1BFD010DC0AA1F68
:1021E000BB1FEE1FFF1FA217B307E407F50720F080
:1021F000A21BB30BE40BF50B661F771F881F991FFB
:102200001A9469F760957095809590959B01AC0143
:10221000BD01CF010895EE0FFF1F0590F491E02D51
:1022200009940E941C11A59F900DB49F900DA49F2E
:10223000800D911D11240895A29FB001B39FC0018C
:10224000A39F700D811D1124911DB29F700D811DE2
:102250001124911D08950F931F93CF93DF93823024
:10226000910510F482E090E0E091BE03F091BF038D
:1022700030E020E0B0E0A0E0309799F4211531057E
:1022800009F44AC0281B390B24303105D8F58A815E
:102290009B816115710589F1FB0193838283FE01A6
:1022A00011C0408151810281138148175907E0F024
:1022B0004817590799F4109761F012960C931297EA
:1022C00013961C933296CF01DF91CF911F910F91FE
:1022D00008950093BE031093BF03F4CF2115310579
:1022E00051F04217530738F0A901DB019A01BD01F3
:1022F000DF01F801C1CFEF01F9CF9093BF038093C5
:10230000BE03CDCFFE01E20FF31F819391932250C4
:10231000310939832883D7CF2091BC033091BD0385
:10232000232B41F420910201309103013093BD032E
:102330002093BC032091000130910101211531054A
:1023400041F42DB73EB74091040150910501241B83
:10235000350BE091BC03F091BD03E217F307A0F445
:102360002E1B3F0B2817390778F0AC014E5F5F4FEB
:102370002417350748F04E0F5F1F5093BD0340935D
:10238000BC03819391939FCFF0E0E0E09CCFCF938B
:10239000DF930097E9F0FC01329713821282A0913B
:1023A000BE03B091BF03ED0130E020E01097A1F42F
:1023B00020813181820F931F2091BC033091BD0396
:1023C0002817390709F061C0F093BD03E093BC03FF
:1023D000DF91CF910895EA01CE17DF07E8F54A8132
:1023E0005B819E0141155105B1F7E901FB83EA8349
:1023F00049915991C40FD51FEC17FD0761F48081F5
:1024000091810296840F951FE901998388838281C7
:1024100093819B838A83F0E0E0E012968D919C91FA
:1024200013970097B9F52D913C911197CD01029624
:10243000820F931F2091BC033091BD0328173907E9
:1024400039F6309751F51092BF031092BE03B09346
:10245000BD03A093BC03BCCFD383C2834081518111
:10246000840F951FC817D90761F44E5F5F4F8881AD
:102470009981480F591F518340838A819B8193839F
:1024800082832115310509F0B0CFF093BF03E093AB
:10249000BE039ECFFD01DC01C0CF13821282D7CFD5
:1024A00081E090E0F8940C94551210E0C8E6D0E07A
:1024B00004C0FE010E940B112196C936D107C9F74D
:1024C000F894FFCF0000C0038000140000000093C8
:1024D000009900940000000000000000003A0F0086
:1024E000000000490BB00EF609EA0B9A0A710A8740
:1024F0000A00000000820DB00E240D620DF60C10D3
:042500000D020D00BB
:107E000001C0B7C0112484B790E89093610010922C
:107E10006100882361F0982F9A70923041F081FFC1
:107E200002C097EF94BF282E80E0C6D0E9C085E05D
:107E30008093810082E08093C00088E18093C1003C
:107E400080E18093C40086E08093C2008EE0B4D0CD
:107E5000259A84E020E33CEF91E030938500209365
:107E6000840096BBB09BFECF1D9AA8954091C000A0
:107E700047FD02C0815089F793D0813479F490D0C6
:107E8000182FA0D0123811F480E004C088E0113817
:107E900009F083E07ED080E17CD0EECF823419F40B
:107EA00084E198D0F8CF853411F485E0FACF853598
:107EB00041F476D0C82F74D0D82FCC0FDD1F82D0DC
:107EC000EACF863519F484E085D0DECF843691F58B
:107ED00067D066D0F82E64D0D82E00E011E05801AB
:107EE0008FEFA81AB80A5CD0F80180838501FA10D8
:107EF000F6CF68D0F5E4DF1201C0FFCF50E040E0DC
:107F000063E0CE0136D08E01E0E0F1E06F0182E067
:107F1000C80ED11C4081518161E0C8012AD00E5F9A
:107F20001F4FF601FC10F2CF50E040E065E0CE01BB
:107F300020D0B1CF843771F433D032D0F82E30D086
:107F400041D08E01F80185918F0123D0FA94F11070
:107F5000F9CFA1CF853739F435D08EE11AD085E934
:107F600018D08FE097CF813509F0A9CF88E024D0D1
:107F7000A6CFFC010A0167BFE895112407B600FCF3
:107F8000FDCF667029F0452B19F481E187BFE89594
:107F900008959091C00095FFFCCF8093C60008958E
:107FA0008091C00087FFFCCF8091C00084FD01C09C
:107FB000A8958091C6000895E0E6F0E098E19083EE
:107FC00080830895EDDF803219F088E0F5DFFFCF80
:107FD00084E1DFCFCF93C82FE3DFC150E9F7CF9122
:027FE000F1CFDF
:027FFE00000879
:00000001FF
