:100000000C944C030C9474030C9474030C94100E15
:100010000C94100E0C94100E0C9474030C94740336
:100020000C9474030C9474030C9417110C947A10B0
:100030000C94C1110C9474030C9474030C94740309
:100040000C9421120C9474030C94E4140C94161563
:100050000C9474030C9474030C9474030C94740344
:100060000C9474030C94740343616C696272617440
:10007000696F6E20287374617475732F6572726F67
:1000800072732F6F6B293A200020656E64206661C1
:1000900064656F7574002000466164696E673A009C
:1000A000466164696E673A2070726576696F757330
:1000B00020636D642077617320616C72656164797F
:1000C000206120666164656F75742C206E6F2066F8
:1000D00061646500434D443A204E6F74654F666617
:1000E00020566972747561526163696E67203A20A7
:1000F00053544F5020736F756E6400434D443A2043
:10010000436F6E74726F6C4368616E6765205669E9
:1001100072747561526163696E673A2042474D207F
:100120002300434D443A20466164654F7574205660
:100130006972747561466967687465722000434D21
:10014000443A2053797374656D2072657365742029
:10015000636F6D6D616E6420726563656976656459
:1001600000434D443A20466164656F757420004930
:100170004E464F3A204E6F742073656E7420746F34
:10018000206466506C617965722062656361757385
:100190006520766F6C756D652077617320616C7278
:1001A00065616479207468652073616D6500203D28
:1001B0003E2047616D652073657474696E673A20EF
:1001C00000434D443A20566F6C756D65206368613D
:1001D0006E67652E2056616C75653A2000434D446C
:1001E0003A2042474D2023302053544F5000434D76
:1001F000443A2042474D2023005354415254555015
:100200003A2053797374656D207265616479005387
:100210005441525455503A204D49444920696E7416
:10022000657266616365206C697374656E696E677B
:1002300000535441525455503A20537461727469BA
:100240006E67204D49444920696E7465726661632A
:100250006500535441525455503A204D503320704C
:100260006C617965722073746172746564005354B3
:1002700041525455503A2053657474696E67204555
:100280005100535441525455503A20536574746987
:100290006E6720766F6C756D6520746F2000535407
:1002A00041525455503A2043616C696272617465E1
:1002B0002073656E642073706163652E0053544132
:1002C000525455503A205374617274696E67204DD0
:1002D000503320706C617965720044534220436C46
:1002E0006F6E65202D20646562756720696E746588
:1002F000726661636520737461727465640044465C
:10030000506C617965723A20466C6173682C2000EC
:100310004446506C617965723A20555342204469D5
:10032000736B2C20004446506C617965723A2053FF
:100330004420436172642C20004446506C6179650E
:10034000723A20506C61792066696E6973686564E1
:1003500020666F722023004446506C617965723AC2
:1003600020556E6B6E6F776E206572726F722063B0
:100370006F6465203D20004446506C617965723A97
:100380002044664D70335F4572726F725F416476D0
:10039000657274697365203D2037202D20287365B0
:1003A00065206368697020646F63756D656E746144
:1003B00074696F6E2920496E206164766572746974
:1003C00073656D656E742E004446506C617965727C
:1003D0003A2044664D70335F4572726F725F4669B2
:1003E0006C654D69736D61746368203D2036202D06
:1003F0002028736565206368697020646F63756D7C
:10040000656E746174696F6E292043616E206E6F32
:10041000742066696E642066696C652E00444650DF
:100420006C617965723A2044664D70335F45727233
:100430006F725F46696C65496E6465784F757420AC
:100440003D2035202D202873656520636869702064
:10045000646F63756D656E746174696F6E29204693
:10046000696C6520696E646578206F7574206F66AD
:1004700020626F756E64732E004446506C6179651E
:10048000723A2044664D70335F4572726F725F43FB
:100490006865636B53756D4E6F744D61746368204E
:1004A0003D2034202D202873656520636869702005
:1004B000646F63756D656E746174696F6E29204336
:1004C0006F6D6D756E69636174696F6E73206572AF
:1004D000726F72206F6E2074686520686172647735
:1004E000617265206C6576656C2E20436865636B70
:1004F00020776972696E6720616E6420474E4420E0
:10050000636F6E6E656374696F6E732E0044465040
:100510006C617965723A2044664D70335F45727242
:100520006F725F736F667453657269616C44656264
:10053000756767657257726F6E67537461636B207E
:100540003D2033202D2053657269616C20636F6DEF
:100550006D756E69636174696F6E206572726F721A
:100560002028736565206368697020646F63756D0A
:10057000656E746174696F6E29004446506C6179D0
:1005800065723A2044664D70335F4572726F725FD8
:10059000536C656570696E67203D2032202D2028E0
:1005A000736565206368697020646F63756D656E3F
:1005B000746174696F6E292054686520636869707E
:1005C00020697320696E20736C656570206D6F649F
:1005D000652E004446506C617965723A2044664D40
:1005E00070335F4572726F725F42757379203D2080
:1005F00031202D2028736565206368697020646F41
:1006000063756D656E746174696F6E2920557375BD
:10061000616C6C7920746865206D65646961207710
:100620006173206E6F7420666F756E642E0000001B
:10063000000900030200000405080000000000009B
:1006400000000000000102040810204080010204A4
:100650000810200102040810204080400404040413
:10066000040404040202020202020303030303035C
:100670000202030000000023002600290000000001
:1006800000250028002B0000000000240027002A7D
:1006900000007E0C4615140D11241FBECFEFD8E0CC
:1006A000DEBFCDBF11E0A0E0B1E0ECE1FFE202C0AF
:1006B00005900D92A637B107D9F724E0A6E7B1E07F
:1006C00001C01D92AF30B207E1F713E0CBE4D3E0F5
:1006D00004C02197FE010E944D17C934D107C9F704
:1006E0000E94E8160C9481170C940000FC013196CE
:1006F0002FEF3FEF0796E817F90721F04191241BF0
:100700003109F9CFC90101960895CF93DF93EC0128
:100710000E9476039F838887DF91CF910895CF93BE
:10072000DF93EC010E9476032F813885322723273F
:10073000322741E02817390709F040E0842FDF9184
:10074000CF910895CF93DF93EB0120917E023091FA
:100750007F022F5F3F4F30937F0220937E02FB0189
:100760003197E730F10508F03BC0E754FC4F0C949B
:100770004D17C003C803CB03E403E703EA03ED030B
:1007800063ED75E081E891E0DF91CF910C94D7158E
:100790006AE775E0F7CFFC01208131812C3DF5E05F
:1007A0003F0728F4265F3F4FFC01318320838DE013
:1007B0000E94901361E0892B09F060E08DE00E94B7
:1007C00062136DE075E0DECF69E774E0DBCF6DE1C9
:1007D00074E0D8CF68EC73E0D5CF67E773E0D2CF91
:1007E00067E573E082E793E00E94AF154AE050E0CE
:1007F000BE0182E793E0DF91CF910C9478160F93BE
:100800001F93CF93C82F8B0181FF06C065E273E071
:1008100081E891E00E94AF15C0FF06C060E173E07F
:1008200081E891E00E94AF15C3FF06C06EEF72E051
:1008300081E891E00E94AF15B80181E891E0CF9185
:100840001F910F910C94E915CF93DF93EB0161E0B9
:1008500071E00E94FF0369E373E081E891E00E9488
:10086000AF154AE050E0BE0181E891E0DF91CF9101
:100870000C947816EF92FF920F931F93CF93DF9310
:10088000CDB7DEB72A970FB6F894DEBF0FBECDBF47
:100890008C01F62EEE24E39441E050E0BE016F5F40
:1008A0007F4FD80112968D919C910E94BE16813087
:1008B00009F066C089818E3779F749E050E0BE01C2
:1008C0006E5F7F4FF801828193810E94BE168F5F19
:1008D0008A3008F467C08A818F3F09F066C08B8137
:1008E000863009F062C08A858F3E09F05EC0CE0175
:1008F00001960E948F03882309F45AC0EC818E81EF
:100900009F81982789279827FF2009F454C0FE1259
:100910006DC02A960FB6F894DEBF0FBECDBFDF9133
:10092000CF911F910F91FF90EF900895BC0181E04E
:1009300090E00E942404F110AFCF1FC0BC0182E000
:1009400090E0F7CFBC0188E090E0F3CFD8011A9691
:10095000EC9261E071E00E94FF03EDCFF801E286C6
:1009600068E071E0F8CFD8011A96EC9261E171E08D
:10097000F2CFBC01C8010E94A20390E080E0C9CF81
:1009800061E870E0C8010E94A203F80182819381AE
:10099000DC01ED91FC910084F185E02D0995892B16
:1009A00051F6EBCF62E870E0EDCF63E870E0EACF9C
:1009B00064E870E0E7CFEA53E331F8F6F0E0ED5198
:1009C000FB4F0C944D17AE04B30496049E04A2048E
:1009D000A604B904BD04BD04BD04BD04BD04BD042A
:1009E000BD04BD04BD04BD0496049E04EA53E33176
:1009F00008F052CFF0E0E150FB4F0C944D17AE04DD
:100A0000B30496049E04A204A604B9044C044C0446
:100A10004C044C044C044C044C044C044C044C0456
:100A200096049E04CF93DF93EC018A819B81DC01C5
:100A3000ED91FC910084F185E02D09950A972CF049
:100A400060E0CE010E943A04F0CFDF91CF9108958B
:100A50008F929F92AF92BF92EF92FF920F931F934C
:100A6000CF93DF93CDB7DEB72A970FB6F894DEBFEA
:100A70000FBECDBF8C01790186E0FE013596DF0106
:100A8000982F1D929A95E9F79EE799839FEF9A8395
:100A90008B838FEE8A876C835E834F83CE010196B2
:100AA0000E948503D8018D919C91E80EF91E0E9449
:100AB0006B12F80184809580A680B780AB01BC01E1
:100AC000481959096A097B0980859185B0E0A0E041
:100AD000481759076A077B0750F4C8010E9412059E
:100AE00061E070E080E090E00E949C12E0CFF1862F
:100AF000E08682819381DC01ED91FC910280F3819B
:100B0000E02D4AE050E0BE016F5F7F4F09950E94E3
:100B10006B12F80164837583868397832A960FB6D8
:100B2000F894DEBF0FBECDBFDF91CF911F910F9123
:100B3000FF90EF90BF90AF909F908F900895462FB9
:100B400050E030E020E066E00C94280530E020E042
:100B500050E040E066E10C9428056EE371E081E826
:100B600091E00E94D71586E791E00E94A60584E0F7
:100B7000809380020895CF93823081F461110EC07A
:100B8000C82F86E791E00E94A605C093800264ED1D
:100B900070E081E891E0CF910C94D715CF91089542
:100BA0008F929F92AF92BF92CF92DF92EF92FF927D
:100BB0006C010E946B124B015C01F12CE12C0E9434
:100BC0006B12681979098A099B096C157D058E05D8
:100BD0009F0558F486E791E00E94120561E070E0FD
:100BE00080E090E00E949C12EACFFF90EF90DF90AF
:100BF000CF90BF90AF909F908F9008950F931F93C9
:100C0000CF9390918002933049F460EA70E081E8DC
:100C100091E0CF911F910F910C94AF15082F68E9C7
:100C200070E081E891E00E94AF15C091000110E0F2
:100C3000C230B8F0C1506C2F86E791E00E949F054A
:100C4000C8010E94D00566E970E081E891E00E9449
:100C5000AF154AE050E06C2F81E891E00E945916F0
:100C6000E7CF86E791E00E94A60582E390E00E942C
:100C7000D0056091000186E791E00E949F0569E838
:100C800070E081E891E0CF911F910F910C94D715FE
:100C90001F93CF93DF93D62FC42F603111F06F369F
:100CA000E1F4CC2309F464C04C2F50E030E020E0A4
:100CB00062E186E791E00E94280581E0809380024E
:100CC0006EEE71E081E891E00E94AF154AE050E0DD
:100CD0006C2F81E891E00E9460168FEF8D0F8230BB
:100CE00058F51C2F1695169561EC71E081E891E09E
:100CF0000E94AF154AE050E06C2F81E891E00E941D
:100D000059166EEA71E081E891E00E94AF154AE061
:100D100050E0612F81E891E00E946016809100010F
:100D20008117A1F1612F86E791E00E949F05109342
:100D3000000185E080938002D350D230A8F461E6B0
:100D400071E081E891E00E94AF154AE050E06C2F1D
:100D500081E891E00E9460168C2F869586950E940E
:100D6000FE0583E080938002DF91CF911F9108956B
:100D700086E791E00E94A60582E0809380026DEDF7
:100D800071E081E891E00E94D715A7CF6FE671E08E
:100D900081E891E00E94D715CCCF1F93CF93DF93CA
:100DA000D82FC62F142F8F30D9F46831A9F462E2FE
:100DB00071E081E891E00E94AF154AE050E068E1FF
:100DC00081E891E00E946016812F869586950E94A9
:100DD000FE0583E080938002DF91CF911F910895FB
:100DE0008130D1F7462F50E030E020E062E186E725
:100DF00091E00E942805D09380026BEF70E081E8BB
:100E000091E00E94AF154AE050E06C2F81E891E03C
:100E1000DF91CF911F910C9460160F931F93CF9386
:100E2000C0E010927F0210927E0286E791E00E945D
:100E3000A60530E020E050E040E068E186E791E080
:100E40000E9428058091780190917901DC01ED9153
:100E5000FC910084F185E02D09951816190634F4EB
:100E600060E086E791E00E943A04ECCF30E020E0B9
:100E700050E040E062E486E791E00E94280562E4E9
:100E800086E791E00E943A048C01892B39F0809129
:100E90007E0290917F02CF5F892B71F08091760165
:100EA000909177018C3DB5E09B0728F40A969093CA
:100EB000770180937601C0E068E670E081E891E018
:100EC0000E94AF154AE050E0B80181E891E00E942D
:100ED000721660917E0270917F024AE050E081E8D4
:100EE00091E00E9472164AE050E06C2F81E891E098
:100EF0000E94591669E171E081E891E00E94E915CC
:100F0000CA3008F48ECF86E791E0CF911F910F9100
:100F10000C94A605CF93DF9361E08DE00E94261329
:100F200040E052EC61E070E081E891E00E940E0F39
:100F30006AED72E081E891E00E94D7156BE171E003
:100F400081E891E00E94E9156DEB72E081E891E0A3
:100F50000E94D71563E876E080E090E00E94D50F0C
:100F600048EE53E060E070E0809178019091790163
:100F70000E94B8160E946B1260937A0170937B01F5
:100F800080937C0190937D018EE190E090937701B6
:100F90008093760128E532E050E040E06CE086E79F
:100FA00091E00E9428051092800184EF91E00E9458
:100FB000D00560E086E791E00E949F0528EC30E0D4
:100FC00042E050E069E086E791E00E942805C4E134
:100FD000D0E084E690E00E94D005809180018111EC
:100FE00002C02197B1F76EE972E081E891E00E94BA
:100FF000D7150E940D0762E872E081E891E00E9437
:10100000AF154AE050E06091000181E891E00E9454
:1010100060166091000186E791E00E949F056EE6F0
:1010200072E081E891E00E94D71530E020E045E0D1
:1010300050E067E086E791E00E94280530E020E07C
:1010400048EE53E062E186E791E00E94280562E500
:1010500072E081E891E00E94D71588E496E09093D1
:10106000B5018093B4018DEA95E09093D50180930A
:10107000D4018DEC96E09093B7018093B6018BEB91
:1010800095E09093B1018093B00161E372E081E853
:1010900091E00E94D715E091D601F091D70126E0AA
:1010A00042E15AE760E070E0808191810E948C14F7
:1010B0001092D8011092DA011092D9011092E10138
:1010C0001092E0011092DF011092DE018FEF9FEF8E
:1010D0009093E3018093E2019093E5018093E40112
:1010E0000E946B1260936E0270936F028093700285
:1010F0009093710210926B021092E8011092E70136
:101100001092E9011092EA0110926D0210926C02A5
:101110008091E6018170826081608093E6016FE0DA
:1011200072E081E891E00E94D71569EF71E081E8F3
:1011300091E0DF91CF910C94D715CF93DF93EC0121
:10114000E881F981309711F0CB9609958CAD823FFB
:1011500009F49EC090F5803C09F486C090F4803973
:1011600009F454C030F4803809F445C0DF91CF91C0
:101170000895803A09F475C0803BC1F7EA85FB8584
:101180003CC0803E09F459C058F4803D79F7EE85A3
:10119000FF85309759F36DAD8BADDF91CF910994F9
:1011A000803F09F464C0813F09F7EC89FD893097DD
:1011B000E9F28DADDF91CF9109948A3F91F180F4EE
:1011C000863F09F477C028F4833F81F6E88DF98DD6
:1011D000EECF883FF1F0893F49F6E8A1F9A11BC0A5
:1011E0008C3F29F108F18E3F29F18F3F09F0BECFE6
:1011F000E8A5F9A510C0EC81FD81309709F4B6CFC0
:101200004EAD6DAD8BADDF91CF910994EE81FF8135
:10121000F4CFEC8DFD8D309709F4A8CFDF91CF91FD
:101220000994EE8DFF8DF7CFEAA1FBA1F4CFECA1DD
:10123000FDA1F1CFEEA1FFA1EECFE889F9893097AA
:1012400009F494CF6EAD20E8629FB001112460785C
:101250007F738DAD8F77682B70528BADDF91CF91FF
:101260000994E885F985C9CFEC85FD8592CFEA8997
:10127000FB89309709F47ACF6DAD7EAD6138710589
:1012800010F060E870E0CE01CF96DF91CF91099425
:10129000EE89FF89309709F469CF8EAD20E8829FEF
:1012A000C001112480789F732DAD2F77822BDF91A1
:1012B000CF910994EA8DFB8DAECF982F9F7E282F7A
:1012C0002F7C203839F0803E29F081E0903C19F0E5
:1012D00080E0089581E0089587FF0AC09CE0980FA0
:1012E000923030F08D3F21F0803F18F4807F0895D8
:1012F00080E00895DC018D919C91DC01ED91FC91E1
:101300000190F081E02D09946D3F48F46A3F10F49C
:10131000683F39F4FC01808191810C947A096E3F19
:10132000C8F70895EF92FF920F931F93CF93DF9327
:10133000613E38F50150003178F567FF2DC0D22F9E
:10134000142FC62F7C01602F6C2BFC0182A593A566
:101350000E947A09612F6F77F70182A593A50E94F9
:101360007A09CF7EC03CC1F06D2F6F77F70182A55F
:1013700093A5DF91CF911F910F91FF90EF900C9467
:101380007A09683F48F08A96DF91CF911F910F91BB
:10139000FF90EF900C948409DF91CF911F910F91F2
:1013A000FF90EF900895EF92FF920F931F93CF93CA
:1013B000DF93EC019AAD292F217090FF1EC0892F79
:1013C0008E7FD9F0362F6CAD80E8860F8136F8F429
:1013D0000BAD031719F021E0311120E09695923002
:1013E00051F0933089F0913041F42EAD4DADCE01E6
:1013F0000E94920902C02111F8CFDF91CF911F9175
:101400000F91FF90EF9008952111F7CFEECFE0E11B
:10141000E60FE03190F7F0E0E05FF54F0C944D17E8
:101420002A0A6E0A550A430AFD09FD09200AFD0928
:10143000200AFD09200A200A200AFD09200A200AA4
:10144000CE018A96DF91CF911F910F91FF90EF907F
:101450000C9484097E018FE3E80EF11C0DAD1EADE6
:101460000138110510F000E810E00E0D1F1DE01608
:10147000F10609F4C2CFF70161917F018AA59BA50E
:101480000E947A09F4CF1DAD63EF8AA59BA50E9447
:101490007A09612F6F778AA59BA5DF91CF911F9164
:1014A0000F91FF90EF900C947A090EADF0E80F9F2A
:1014B000800111248DAD082B62EF8AA59BA50E94A7
:1014C0007A09602F6F778AA59BA50E947A09000F81
:1014D000012F001F110B1195602FDCCF6DAD80E146
:1014E000689FB001112460771EAD1F70162B61EF4D
:1014F0008AA59BA50E947A09612FCDCFEF92FF921A
:101500001F93CF93DF9386E791E00E94120510911D
:10151000D801113108F076C0E091D601F091D701E1
:1015200080819181DC01ED91FC910084F185E02DB9
:101530000995892B09F466C080917B028E7F809388
:101540007B02E091D601F091D70180819181DC018D
:10155000ED91FC910284F385E02D0995C82F8D3F14
:1015600009F450C08091E0019091E101009709F0E9
:10157000F6C0C093DB01D091D9018D2F0E946C0978
:101580000E945D09882361F0C7FD0AC0D093DB018A
:10159000C093DC0181E090E09093E1018093E00151
:1015A000C091DB018C2F0E946C09813F09F496C029
:1015B000F0F5803B39F048F4803921F0803A11F0A1
:1015C000803851F423E030E08BC0803D09F486C0C0
:1015D000F8F4803C09F482C080917B0281608093A2
:1015E0007B02E091AE01F091AF01309709F00995CF
:1015F0001092E1011092E0011092DF011092DE01E1
:101600001092D901DF91CF911F91FF90EF90089533
:10161000803EC1F2803F01F720E830E03093DF01E7
:101620002093DE011092D9018093EB015DC0873FCA
:1016300099F308F04CC0833F09F450C018F2863F7C
:1016400059F68093E8011092E7011092E901109297
:10165000EA0181E080936B021092E1011092E001B7
:101660001092DF011092DE018091E801803939F497
:101670008091EA01811103C080E88093E8018091A4
:10168000E8018058813638F48091E701181719F085
:10169000C0E0111105C08CEA91E00E949D08C1E0F4
:1016A000612F8CEA91E00E94D309CC2309F4AACFE0
:1016B0008DE00E94901361E0892B09F060E08DE0DD
:1016C000DF91CF911F91FF90EF900C9462138D3FAB
:1016D00008F4B7CF8E3F08F0B4CF7ECF22E030E0E1
:1016E0003093DF012093DE01C13811F0C03B31F4AB
:1016F00022E030E03093DF012093DE012091E00111
:101700003091E1014091DE015091DF0141505109DA
:1017100024173507E8F08093E801CF70CF5FC093BE
:10172000E7018091DC018093E9011092EA0181E0F8
:1017300090E090936D0280936C021092E101109200
:10174000E0011092DF011092DE0180936B028CCFDA
:101750002F5F3F4F3093E1012093E00153CFC7FF4C
:101760000CC0CD3F08F04DC0C83F08F04DC0C03F91
:1017700009F459C0C73F09F456C02091DB01FC01B0
:10178000E455FE4F203F19F0273F09F075C0C7AF61
:10179000E090DE01F090DF019701215031098217BE
:1017A000930708F4A9C0D091DB01D03F19F0D73FCF
:1017B00009F064C0C0916A0280EF80936A0280934E
:1017C000E80180E88093E9011092EA011092E701B4
:1017D00080E890E090936D0280936C0281E08093AA
:1017E0006B028CEA91E00E949D0887EF8093EB01E9
:1017F000C093EC0182E090E09093E1018093E001DE
:1018000001CFCE3F08F4B9CFC093E8011092E901AF
:101810001092EA011092E70181E090E090936D024E
:1018200080936C0292CF2091EB01203F19F0273F6B
:1018300009F0D2CE9C012F5F3F4F84559E4FFC0193
:10184000C7AF80EF8093E8012093E9013093EA016C
:101850001092E70130936D0220936C0281E0809337
:101860006B021092E1011092E0011092DF011092E0
:10187000DE011092D901F8CEC7A78ACF8D2F0E9422
:101880006C09C82F8093E8010E945D09882349F103
:101890008D2F8F708F5F8093E7018091DC018093A3
:1018A000E9018091DD01F3E0EF16F10409F080E039
:1018B0008093EA011092E1011092E0011092DF01A1
:1018C0001092DE0181E080936B02C03B39F060F43E
:1018D000C03921F0C03A11F0C03859F6D093D9017F
:1018E000C3CE1092E701D9CFC03DC1F3C03EB1F3E2
:1018F000C03C09F0BECFF2CF01967ECFCF93DF93ED
:1019000082E793E090937D0280937C02ECEAF1E021
:10191000118210821382128215821482178216821B
:1019200011861086138612861586148617861686EB
:10193000118A108A138A128A158A148A178A168ABB
:10194000118E108E138E128E158E148E178E168E8B
:1019500011A210A213A212A215A214A217A216A2DB
:1019600011A610A68CE792E093A782A714A615A64D
:1019700016A613AA12AA15AA14AA8FEF9FEF97AB67
:1019800086AB91AF80AF83E08093E60113AE14AED7
:1019900015AE16AE10926B02EBEEF1E080E8DF01BF
:1019A0001D928A95E9F710926E0210926F021092C2
:1019B00070021092710210927202109273021092D1
:1019C00074021092750210927602109277021092B1
:1019D00078021092790210927A0210927B02C0EA89
:1019E000D1E01B821A8288EE93E0A0E0B0E08C8305
:1019F0009D83AE83BF8382E591E09983888320E055
:101A00004CE06BE081E891E00E94E30EE6E7F1E054
:101A10008AE090E091838083D383C283918780871B
:101A20001286DF91CF91089581E891E00E94880E9F
:101A300082E591E09093A1018093A0010C940D1296
:101A400090E080E008952091C3023091C4022817ED
:101A50003907B9F49091810280918202981789F038
:101A6000E0918102F0E0ED57FD4F808120918102ED
:101A700030E02F5F3F4F2F7333272093810290E098
:101A800008958FEF9FEF0895EF92FF920F931F93AA
:101A9000CF93DF93DC015C96ED90FC905D97E114B1
:101AA000F10479F481E090E013969C938E93129761
:101AB00090E080E0DF91CF911F910F91FF90EF9028
:101AC00008955196ED91FC91529750968C915097B4
:101AD000982F90950FB75E962C915E97122F1270EB
:101AE00021FD6095F8942081112319F1282B208382
:101AF000E7012197F1F728E0462F50E0308160FFA1
:101B00001AC0382B3083E7012197F1F7BA01759598
:101B10006795215089F7112381F080818923808383
:101B20000FBF5C968D919C910197F1F781E090E059
:101B3000C1CF2923DCCF3923E5CF9081892BEFCF8B
:101B400008952091C3023091C4022817390771F417
:101B50009091810280918202981741F0E091810278
:101B6000F0E0ED57FD4F808190E008958FEF9FEFFB
:101B700008952091C3023091C4022817390771F4E7
:101B8000809182022091810290E0805C9F4F821BB5
:101B9000910960E470E00E94F816089590E080E0FA
:101BA0000895E091C302F091C402E817F90769F4BF
:101BB000A389B4899C918589809589238C931092FF
:101BC000C4021092C30281E0089580E00895CF938B
:101BD000DF93EC018A8D9B8D892B01F18091C302EB
:101BE0009091C4028C179D07C9F0009711F00E94D4
:101BF000D10D8E8D8E7F8E8F109282021092810277
:101C0000D093C402C093C302EB89FC8980819D8973
:101C1000892B808381E0DF91CF91089580E0FBCF15
:101C20001F920F920FB60F9211242F933F934F9351
:101C30005F936F937F938F939F93AF93BF93EF9334
:101C4000FF93E091C302F091C402309749F0A6855A
:101C5000B7858585968D91FF14C09C918923A1F449
:101C6000FF91EF91BF91AF919F918F917F916F9174
:101C70005F914F913F912F910F900FBE0F901F904A
:101C800018959C91892361F7A389B4899C918589D2
:101C9000809589238C93868997890197F1F7608DC8
:101CA000718DA685B785558538E020E0CB01019779
:101CB000F1F7822F90E095958795282F4C91452339
:101CC00009F02068315091F7868D81FD2095809133
:101CD000820290E001968F73992730918102381724
:101CE00099F0A0918202B0E0AD57BD4F2C93809344
:101CF0008202828D938D0197F1F7A389B4898C912B
:101D00009589892B8C93ACCF868D8160868FF1CF9E
:101D100020E431E0FC01318320830C94D10D1F932A
:101D2000CF93DF93EC01162F6E8D6695617081E085
:101D30006827812F0E94621361E0812F0E94261381
:101D4000812F110F990BFC01EB5BF94FE491E88BAC
:101D5000FC01E45AF94FE491F0E0EE0FFF1FE35865
:101D6000F94F859194919A8B898BDF91CF911F9137
:101D700008951F93CF93DF93EC01162F60E0812F1E
:101D80000E9426138E8D81FD04C061E0812F0E9488
:101D900062131C87812F110F990BFC01EB5BF94F2C
:101DA000E491ED87FC01E45AF94FE491F0E0EE0F85
:101DB000FF1FED58F94F859194919F878E87DF9192
:101DC000CF911F9108951F93CF93DF93EC01162FAE
:101DD0001B821A8288EE93E0A0E0B0E08C839D83A2
:101DE000AE83BF8380E491E0998388831F8A1E8A33
:101DF000198E188E1B8E1A8E1D8E1C8E8E8D8E7FC8
:101E000020FB81F98E8F642FCE010E948F0E612FEF
:101E1000CE01DF91CF911F910C94B90ECF93DF9338
:101E2000EC019A01AB011B8E1A8E198E188E1F8A37
:101E30001E8A60E079E08DE390E00E942E17F901A0
:101E4000C90103972430310510F481E090E09D8FA3
:101E50008C8F6C85673108F054C0C90196958795C1
:101E60008431910508F452C043979F8B8E8BC90132
:101E70000597369710F481E090E0998F888FC9011B
:101E8000880F991F280F391F369527953695279566
:101E90002D30310508F43DC02C5031093B8F2A8F7D
:101EA0009091680084E0683054F081E06E303CF03E
:101EB00082E0643124F081E0663109F480E0892B0E
:101EC000809368009C852DE630E0983064F09E3069
:101ED0001CF1943134F09631FCF030E020E0963182
:101EE00011F42CE630E03C8B2B8B9830C4F481E06D
:101EF00001C0880F9A95EAF78D8B8C8D9D8D019787
:101F0000F1F7CE01DF91CF910C94E70D81E090E0E5
:101F1000ACCF21E030E0C2CF2BE630E0E4CF9E3002
:101F200014F49850E4CF963114F49E50E0CF80E43E
:101F3000963111F380E0E0CF80915F0390915E03D2
:101F4000891769F09F5F903508F090E0E92FF0E085
:101F5000E25FFC4F808190935E0390E008958FEFE5
:101F60009FEF089580915F03E0915E038E1751F01B
:101F7000EF5FE03508F0E0E0F0E0E25FFC4F8081E9
:101F800090E008958FEF9FEF089550915F03409187
:101F90005E03852F90E0242F30E0541718F0821B49
:101FA000930B0895805B9F4FFACF9B01AC012136C4
:101FB00068E136074105510540F410926F00109218
:101FC000800081E88093810018C0DC01C90173E0C2
:101FD000B695A795979587957A95D1F7813668E15B
:101FE0009607A105B105C8F510926F001092800008
:101FF00022E8209381009C01AD0130936803209377
:102000006703A5E2B0E00E94531722E096958795FA
:10201000779567952A95D1F7709361036093600374
:1020200062E088E00E94261361E089E00E9462136A
:1020300061E089E00E9426131092660310925F030C
:1020400010925E0310920D0310920A03109209037E
:1020500080E286BB80936F000895232F342F452F95
:102060005527213688E1380741055105A8F7109218
:102070006F001092800084E8A5CF90910A039F5FC3
:10208000943408F090E0209109032917E1F32FB769
:10209000F89430910D03332349F0E92FF0E0EB532E
:1020A000FD4F808390930A032FBF089591E0909392
:1020B0000D0380930C0310920B0382E086BB80918A
:1020C0006F00826080936F00809180008F7B8068BA
:1020D0008093800080918400909185004096909339
:1020E000890080938800E0CF862F0E943D1081E018
:1020F00090E008951F920F920FB60F9211242F9324
:102100003F934F935F936F937F938F939F93EF933F
:10211000FF9320910D0360910C03809188009091B2
:102120008900409167035091680330910B032A3076
:1021300070F5840F951F762F7170293009F471E0C6
:1021400066952F5F371799F3309180007723E1F080
:10215000306C309380009093890080938800709356
:102160000B0360930C0320930D03FF91EF919F915C
:102170008F917F916F915F914F913F912F910F9030
:102180000FBE0F901F9018953F7B3068E2CF3091C3
:102190000A03E09109033E1319C02A3051F42BE0E1
:1021A00020930D03840F951F9093890080938800DE
:1021B000DCCF10920D03809180008F73809380009C
:1021C00080916F008D7F80936F00CFCFEF5FE434FD
:1021D00008F0E0E0E0930903F0E0EB53FD4F3081BD
:1021E00030930C0310920B03309180003F7B3068DA
:1021F000309380002A3071F4209167033091680396
:10220000820F931F909389008093880081E08093D0
:102210000D03ABCF80918400909185004096F2CF62
:1022200080910D038111FCCF08950C9410111F9221
:102230000F920FB60F9211242F933F934F935F93FA
:102240006F937F938F939F93AF93BF93EF93FF937E
:1022500080918600909187004091640320918100D5
:102260004423F1F12F7B209381001092640330917D
:10227000660331113CC0411122C0209160033091AE
:102280006103280F391F30938B0020938A0024E0CC
:1022900026BB20916F00246020936F00209167037C
:1022A00030916803820F931F36952795280F391FA9
:1022B000309363032093620381E080936603FF9170
:1022C000EF91BF91AF919F918F917F916F915F91AE
:1022D0004F913F912F910F900FBE0F901F90189527
:1022E00020642093810020E820936403C0CF4091B4
:1022F0006203509163036091670370916803DB018F
:10230000A095B09520916503E0916403841B950B23
:10231000A817B90768F126952E2B460F571F3F5F68
:10232000861B970B3930A0F32093650380916F00D3
:102330008B7F80936F0080915F038F5F803508F003
:1023400080E090915E03981749F0E82FF0E09091BB
:102350006503E25FFC4F908380935F03809181006F
:102360008F7B809381001092640310926603A7CF45
:102370002093650350936303409362033093660395
:102380009ECF1F920F920FB60F9211242F938F930F
:102390009F93EF93FF9380916F008B7F80936F00EB
:1023A000809181008F7B80938100809166032091D2
:1023B0006403205890916503893020F49695922B00
:1023C0008F5FFACF9093650380915F038F5F8035B5
:1023D00008F080E020915E03281739F0E82FF0E044
:1023E000E25FFC4F908380935F03109266038091BD
:1023F00081008F7B8093810010926403FF91EF91A5
:102400009F918F912F910F900FBE0F901F90189555
:1024100080915E0380935F030895CF93DF93CFE6AF
:10242000D0E088818B7F888388818F7D88830E941C
:1024300008120E94101188818D7F8883DF91CF91CF
:1024400008951F920F920FB60F9211242F933F936E
:102450008F939F93AF93BF9380916E0390916F037F
:10246000A0917003B091710330916D0323E0230FAD
:102470002D3768F126E8230F0296A11DB11D209388
:102480006D0380936E0390936F03A0937003B093DA
:1024900071038091690390916A03A0916B03B091DD
:1024A0006C030196A11DB11D8093690390936A038B
:1024B000A0936B03B0936C03BF91AF919F918F91E9
:1024C0003F912F910F900FBE0F901F90189501967E
:1024D000A11DB11DD4CF2FB7F89460916E037091F8
:1024E0006F0380917003909171032FBF08953FB7E0
:1024F000F8948091690390916A03A0916B03B09165
:102500006C0326B5A89B05C02F3F19F00196A11DAD
:10251000B11D3FBFBA2FA92F982F8827BC01CD012D
:10252000620F711D811D911D42E0660F771F881F8C
:10253000991F4A95D1F708958F929F92AF92BF92BB
:10254000CF92DF92EF92FF926B017C010E94771293
:102550004B015C01C114D104E104F104E9F00E94D3
:10256000F7160E947712681979098A099B09683E53
:1025700073408105910570F321E0C21AD108E1088A
:10258000F10888EE880E83E0981EA11CB11CC114CE
:10259000D104E104F10429F7FF90EF90DF90CF9090
:1025A000BF90AF909F908F900895789484B583608A
:1025B00084BD85B5836085BDEEE6F0E080818160F5
:1025C0008083E1E8F0E082E0808380818160808325
:1025D000E0E8F0E0808181608083E1EBF0E08081E1
:1025E00084608083E0EBF0E080818160808387E815
:1025F00080937A001092C1000895843081F028F40D
:102600008230E9F08330F9F00895883071F0893034
:1026100091F08530B9F4809180008F7D03C0809166
:1026200080008F778093800008958091B0008F772D
:102630008093B00008958091B0008F7DF9CF84B56C
:102640008F7784BD089584B58F7DFBCFCF93DF93C3
:1026500090E0FC01EB5BF94F2491845A994FFC0107
:1026600084918823C9F090E0880F991FFC01E957F5
:10267000F94FA591B491FC01E358F94FC591D4915C
:1026800061110DC09FB7F8948C91209582238C9393
:102690008881282328839FBFDF91CF9108956230DE
:1026A00051F49FB7F8943C91822F809583238C93AB
:1026B000E8812E2BEFCF8FB7F894EC912E2B2C9333
:1026C0008FBFEACF1F93CF93DF93282F30E0F9011C
:1026D000E25DF94F8491F901EB5BF94FD491F90177
:1026E000E45AF94FC491CC23A9F0162F81110E940E
:1026F000FD12EC2FF0E0EE0FFF1FE358F94FA5910C
:10270000B4918FB7F894EC91111108C0D095DE23E5
:10271000DC938FBFDF91CF911F910895DE2BF8CF0F
:10272000CF93DF93282F30E0F901E25DF94F8491D8
:10273000F901EB5BF94FD491F901E45AF94FC491D7
:10274000CC23A1F081110E94FD12EC2FF0E0EE0FDE
:10275000FF1FED58F94FA591B491EC91ED2381E065
:1027600090E009F480E0DF91CF91089580E090E05F
:10277000FACFFC01918D228D892F90E0805C9F4FD4
:10278000821B91098F7399270895FC01918D828D89
:10279000981731F0828DE80FF11D858D90E0089536
:1027A0008FEF9FEF0895FC01918D828D981761F056
:1027B000A28DAE0FBF2FB11D5D968C91928D9F5F44
:1027C0009F73928F90E008958FEF9FEF0895FC0123
:1027D000538D448D252F30E0842F90E0821B930B86
:1027E000541710F0CF960895019708958CE395E162
:1027F000892B49F080E090E0892B29F00E943C155C
:1028000081110C9400000895FC01A48DA80FB92F2C
:10281000B11DA35ABF4F2C91848D90E001968F7308
:102820009927848FA689B7892C93A089B1898C9127
:1028300080648C93938D848D981306C00288F389ED
:10284000E02D80818F7D80830895CF93DF93EC010D
:10285000888D8823B9F0AA89BB89E889F9898C9188
:1028600085FD03C0808186FD0DC00FB607FCF7CF44
:102870008C9185FFF2CF808185FFEDCFCE010E9444
:102880000414E9CFDF91CF910895EF92FF920F9357
:102890001F93CF93DF93EC0181E0888F9B8D8C8D0C
:1028A000981316C0E889F989808185FF11C0EE89E7
:1028B000FF896083E889F98980818064808381E071
:1028C00090E0DF91CF911F910F91FF90EF900895CD
:1028D000F62E0B8D10E00F5F1F4F0F731127E02EA8
:1028E0008C8D8E110CC00FB607FCFACFE889F989E0
:1028F000808185FFF5CFCE010E940414F1CFEB8DCE
:10290000EC0FFD2FF11DE35AFF4FF0820B8FEA8988
:10291000FB8980818062D2CFCF92DF92EF92FF92CB
:102920001F93CF93DF93EC016A017B01122FE8899B
:10293000F98982E08083C11481EED806E104F104B4
:10294000A1F060E079E08DE390E0A70196010E949C
:102950000C17215031094109510956954795379572
:102960002795211580E1380798F0E889F9891082C8
:1029700060E874E88EE190E0A70196010E940C17D0
:1029800021503109410951095695479537952795A9
:10299000EC85FD853083EE85FF852083188EEC89DC
:1029A000FD891083EA89FB89808188698083EA89AF
:1029B000FB8980818F7D8083DF91CF911F91FF9074
:1029C000EF90DF90CF9008951F920F920FB60F9265
:1029D00011242F938F939F93EF93FF93E0918203A2
:1029E000F09183038081E0918803F091890382FD57
:1029F0001BC0908180918B038F5F8F7320918C031C
:102A0000821741F0E0918B03F0E0EE58FC4F958F78
:102A100080938B03FF91EF919F918F912F910F9056
:102A20000FBE0F901F9018958081F4CF1F920F92C8
:102A30000FB60F9211242F933F934F935F936F9391
:102A40007F938F939F93AF93BF93EF93FF9382E70F
:102A500093E00E940414FF91EF91BF91AF919F9179
:102A60008F917F916F915F914F913F912F910F9037
:102A70000FBE0F901F90189582E793E00E94B91344
:102A800021E0892B09F420E0822F0895E2E7F3E0AA
:102A90001382128288EE93E0A0E0B0E084839583F5
:102AA000A683B78384E691E09183808385EC90E0F0
:102AB0009587848784EC90E09787868780EC90E008
:102AC000918B808B81EC90E0938B828B82EC90E0F9
:102AD000958B848B86EC90E0978B868B118E128E73
:102AE000138E148E0895AF92BF92CF92DF92EF9221
:102AF000FF920F931F93CF93DF936C017B018B01A8
:102B0000040F151FEB015E01AE18BF08C017D107F7
:102B100059F06991D601ED91FC910190F081E02D81
:102B2000C6010995892B79F7C501DF91CF911F91D6
:102B30000F91FF90EF90DF90CF90BF90AF900895EE
:102B4000FB0101900020E9F73197AF01461B570BBD
:102B5000DC01ED91FC910280F381E02D0994EF926C
:102B6000FF920F931F93CF93DF938C017B01D0E0F3
:102B7000C0E0F701EC0FFD1F6491662361F0D801FE
:102B8000ED91FC910190F081E02DC8010995892B10
:102B900011F02196EECFCE01DF91CF911F910F91D1
:102BA000FF90EF90089562E771E00C94A0150F93E9
:102BB0001F93CF93DF93EC010E94AF158C01CE01E0
:102BC0000E94D315800F911FDF91CF911F910F911C
:102BD00008950F931F93CF93DF938C01D0E0C0E053
:102BE0006115710519F00E94A015EC01C8010E9441
:102BF000D3158C0F9D1FDF91CF911F910F910895D9
:102C00008F929F92AF92BF92EF92FF920F931F937A
:102C1000CF93DF93CDB7DEB7A1970FB6F894DEBFA1
:102C20000FBECDBF7C01FA01CB0119A2223008F4FE
:102C30002AE08E010F5D1F4F822E912CB12CA12C0A
:102C4000BF01A50194010E940C17F901CA016A3065
:102C50000CF5605DD8016E938D01232B242B252B61
:102C600079F790E080E0109721F0BD01C7010E9444
:102C7000A015A1960FB6F894DEBF0FBECDBFDF91B1
:102C8000CF911F910F91FF90EF90BF90AF909F90C9
:102C90008F900895695CDECF2115310541F4DC0188
:102CA000ED91FC910190F081E02D642F09940C943A
:102CB00000169A01462F50E070E060E00C944C162C
:102CC0000F931F93CF93DF93EC010E9459168C0151
:102CD000CE010E94D315800F911FDF91CF911F91DC
:102CE0000F9108959A01AB0170E060E00C944C16CE
:102CF0000F931F93CF93DF93EC010E9472168C0108
:102D0000CE010E94D315800F911FDF91CF911F91AB
:102D10000F9108950F931F93CF93DF93EC010E94BF
:102D20006B12688779878A879B87E881F98102849B
:102D3000F385E02DCE01099597FF15C00E946B1217
:102D4000088519852A853B85601B710B820B930BC7
:102D50000C811D812E813F816017710782079307C7
:102D600020F38FEF9FEFDF91CF911F910F91089587
:102D7000FC0144835583668377830895AF92BF92A5
:102D8000CF92DF92EF92FF920F931F93CF93DF9337
:102D90005C017B018B01040F151FEB016E01CE1846
:102DA000DF08C017D10739F0C5010E948A1697FDC8
:102DB00002C08993F3CFC601DF91CF911F910F918C
:102DC000FF90EF90DF90CF90BF90AF90089508955F
:102DD0000E94D5120E94E7160E948A07C6EFD3E12F
:102DE0000E947E0A2097E1F30E94F613F9CF08951E
:102DF00097FB072E16F4009407D077FD09D00E94A8
:102E00005E1707FC05D03EF4909581959F4F08957D
:102E1000709561957F4F0895A1E21A2EAA1BBB1BE6
:102E2000FD010DC0AA1FBB1FEE1FFF1FA217B30796
:102E3000E407F50720F0A21BB30BE40BF50B661FAC
:102E4000771F881F991F1A9469F760957095809570
:102E500090959B01AC01BD01CF010895052E97FB14
:102E60001EF400940E94451757FD07D00E940C17CE
:102E700007FC03D04EF40C944517509540953095BF
:102E800021953F4F4F4F5F4F0895909580957095D6
:102E900061957F4F8F4F9F4F0895EE0FFF1F059055
:102EA000F491E02D09940E947217A59F900DB49F94
:102EB000900DA49F800D911D11240895AA1BBB1B8A
:102EC00051E107C0AA1FBB1FA617B70710F0A61B2A
:102ED000B70B881F991F5A95A9F780959095BC014B
:102EE000CD010895A29FB001B39FC001A39F700DB3
:102EF000811D1124911DB29F700D811D1124911D02
:102F0000089513E0CBE4D3E004C0FE010E944D1706
:0C2F10002196CC34D107C9F7F894FFCF0C
:102F1C00146F6E6C696E6500696E736572746564AE
:102F2C000072656D6F766564002E004275696C7475
:102F3C00206F6E20417072202032203230323220CD
:102F4C0061742031383A31333A34380000000000D3
:102F5C00440D7315200DA00DB90D230DA10D00000E
:102F6C00000074107315200D1511C50F9C0FB20FB6
:102F7C000000000045147315E7132514B913D3137F
:062F8C00C5130D0A000050
:00000001FF
