:020000040000FA
:100000000C9469000C9491000C9491000C94CD0810
:100010000C94CD080C94CD080C9491000C94910094
:100020000C9491000C9491000C94C00A0C94230A37
:100030000C946A0B0C9491000C9491000C94910018
:100040000C94CA0B0C9491000C948D0E0C94BF0E62
:100050000C9491000C9491000C9491000C949100DC
:100060000C9491000C949100000000090003020020
:10007000000405080000000000000000000000016E
:10008000020408102040800102040810200102042C
:100090000810204080400404040404040404020204
:1000A000020202020303030303030202030000002F
:1000B0000023002600290000000000250028002B56
:1000C0000000000000240027002A00003208EF0E84
:1000D000C20811241FBECFEFD8E0DEBFCDBF11E0B4
:1000E000A0E0B1E0ECE0F0E202C005900D92A63293
:1000F000B107D9F723E0A6E2B1E001C01D92A73A0B
:10010000B207E1F710E0C8E6D0E004C02197FE0195
:100110000E94D90FC636D107C9F70E94A70F0C94C9
:10012000F90F0C940000FC01208131812C3DF5E099
:100130003F0728F4265F3F4FFC01318320838DE089
:100140000E94390D61E0892B09F060E08DE00C948C
:100150000B0DFC0131962FEF3FEF0796E817F907DB
:1001600021F04191241B3109F9CFC901019608956D
:10017000CF93DF93EC010E94A9009F838887DF91D2
:10018000CF910895CF93DF93EC010E94A9002F81B6
:10019000388532272327322741E02817390709F00D
:1001A00040E0842FDF91CF910895CF93DF93EC014E
:1001B0000E94140C609328017093290180932A01F6
:1001C00090932B01D0932701C093260181E0809367
:1001D0002C01DF91CF910895EF92FF920F931F931F
:1001E000CF93DF93CDB7DEB72A970FB6F894DEBF73
:1001F0000FBECDBF8C01F62EEE24E39441E050E01B
:10020000BE016F5F7F4FD80112968D919C910E9425
:100210007D0F8130D9F589818E3781F749E050E033
:10022000BE016E5F7F4FF801828193810E947D0F36
:100230008F5F8A3058F18A818F3F41F58B818630FC
:1002400029F58A858F3E11F5CE0101960E94C200E4
:100250008823E1F09C812E813F813227232732279A
:10026000FF2051F1F91245C0C9012A960FB6F89442
:10027000DEBF0FBECDBFDF91CF911F910F91FF90D9
:10028000EF900895C8010E94930030C0809116023B
:100290009091170201969093170280931602F8012D
:1002A00082819381DC01ED91FC910084F185E02D48
:1002B0000995892B51F41AC09F3321F048F49A53C1
:1002C0009230A0F4D8011A96EC92F11097CF0EC09C
:1002D000903461F4809116029091170201969093E8
:1002E0001702809316022330310561F230E020E0DE
:1002F000BBCF9F3339F320F49A53923018F37ECF5B
:10030000903409F07BCFE6CFCF93DF93EC018A8165
:100310009B81DC01ED91FC910084F185E02D099534
:100320000A972CF060E0CE010E94EC00F0CFDF9144
:10033000CF9108958F929F92AF92BF92EF92FF92CA
:100340000F931F93CF93DF93CDB7DEB72A970FB6E6
:10035000F894DEBF0FBECDBF8C01790186E0FE01AF
:100360003596DF01982F1D929A95E9F79EE79983BC
:100370009FEF9A838B838FEE8A876C835E834F8394
:10038000CE0101960E94B800D8018D919C91E80E93
:10039000F91E0E94140CF80184809580A680B78015
:1003A000AB01BC01481959096A097B09808591850F
:1003B000B0E0A0E0481759076A077B0750F4C8016E
:1003C0000E94840161E070E080E090E00E94450CB2
:1003D000E0CFF186E08682819381DC01ED91FC9192
:1003E0000280F381E02D4AE050E0BE016F5F7F4F55
:1003F00009950E94140CF8016483758386839783A2
:100400002A960FB6F894DEBF0FBECDBFDF91CF9115
:100410001F910F91FF90EF90BF90AF909F908F90A2
:100420000895462F50E030E020E066E00C949A01F9
:1004300030E020E050E040E066E10C949A018DE26B
:1004400091E00E94180284E0809318020895CF93EF
:10045000823049F4611107C0C82F8DE291E00E94FB
:100460001802C0931802CF9108950F931F938091A3
:100470002C01882341F10E94140C00912801109155
:10048000290120912A0130912B01AB01BC01401BB5
:10049000510B620B730B8091260190912701B0E004
:1004A000A0E0481759076A077B0768F410922C01EF
:1004B00030E020E050E040E069E18DE291E01F9102
:1004C0000F910C949A011F910F9108958F929F9212
:1004D000AF92BF92CF92DF92EF92FF926C010E9497
:1004E000140C4B015C01F12CE12C0E94140C6819D6
:1004F00079098A099B096C157D058E059F0558F4BD
:100500008DE291E00E94840161E070E080E090E083
:100510000E94450CEACFFF90EF90DF90CF90BF9004
:10052000AF909F908F9008951F93CF93DF939091FA
:100530001802933009F110910001C82FD0E0123059
:1005400050F01150612F8DE291E00E941102CE0116
:100550000E946602F4CF8DE291E00E94180282E3CD
:1005600090E00E946602609100018DE291E0DF91CF
:10057000CF911F910C941102DF91CF911F9108959B
:100580001F93CF93DF938F30D8F1D42FC62F182F1E
:10059000603111F06F36A1F4DD23B1F14D2F50E041
:1005A00030E020E062E18DE291E00E949A0181E07A
:1005B00080931802103121F484EF91E00E94D5005D
:1005C0008FEF8C0F823088F41D2F16951695809131
:1005D0000001811739F0612F8DE291E00E94110234
:1005E0001093000185E080931802C350C23040F49C
:1005F0008D2F869586950E94940283E08093180241
:10060000DF91CF911F9108958DE291E00E94180231
:1006100082E080931802D4CFCF93C82F8F3061F43B
:10062000683141F4842F869586950E94940283E078
:1006300080931802CF9108958130E1F7462F50E062
:1006400030E020E062E18DE291E00E949A01C093E7
:100650001802F0CFCF93C0E010921702109216024A
:100660008DE291E00E94180230E020E050E040E08E
:1006700068E18DE291E00E949A0180912F019091B2
:100680003001DC01ED91FC910084F185E02D0995AC
:100690001816190634F460E08DE291E00E94EC0037
:1006A000ECCF30E020E050E040E062E48DE291E009
:1006B0000E949A0162E48DE291E00E94EC00892B95
:1006C00031F08091160290911702892B79F0809178
:1006D0002D0190912E018C3DB5E09B0708F0BBCF1A
:1006E0000A9690932E0180932D01B5CFCF5FCA302B
:1006F00008F4B2CF8DE291E0CF910C941802CF9321
:10070000DF9361E08DE00E94CF0C63E876E080E04B
:1007100090E00E947E0948EE53E060E070E0809136
:100720002F01909130010E94770F0E94140C60936A
:1007300031017093320180933301909334018EE143
:1007400090E090932E0180932D0128E532E050E057
:1007500040E06CE08DE291E00E949A011092370136
:1007600084EF91E00E94660260E08DE291E00E94D9
:10077000110228EC30E042E050E069E08DE291E0C7
:100780000E949A01C4E1D0E084E690E00E946602F3
:1007900080913701811102C02197B1F70E942A038D
:1007A000609100018DE291E00E94110230E020E0B2
:1007B00045E050E067E08DE291E00E949A0184EF0D
:1007C00091E00E94660230E020E048EE53E062E1F2
:1007D0008DE291E00E949A0188EB9BE00E94660204
:1007E00080EC92E090934D0180934C018FE192E078
:1007F00090936D0180936C018CE093E090934F0196
:1008000080934E0187E292E09093490180934801E2
:10081000E0916E01F0916F0126E042E15AE760E05D
:1008200070E0808191810E94350E109270011092CB
:100830007201109271011092790110927801109258
:100840007701109276018FEF9FEF90937B01809359
:100850007A0190937D0180937C010E94140C609337
:100860000602709307028093080290930902109287
:1008700003021092800110927F0110928101109268
:100880008201109205021092040280917E01817013
:100890008260816080937E01DF91CF910895CF9334
:1008A000DF93EC01E881F981309711F0CB9609953F
:1008B0008CAD823F09F49EC090F5803C09F486C05F
:1008C00090F4803909F454C030F4803809F445C0FC
:1008D000DF91CF910895803A09F475C0803BC1F74C
:1008E000EA85FB853CC0803E09F459C058F4803D40
:1008F00079F7EE85FF85309759F36DAD8BADDF91BC
:10090000CF910994803F09F464C0813F09F7EC89D5
:10091000FD893097E9F28DADDF91CF9109948A3F3F
:1009200091F180F4863F09F477C028F4833F81F683
:10093000E88DF98DEECF883FF1F0893F49F6E8A1C7
:10094000F9A11BC08C3F29F108F18E3F29F18F3F9F
:1009500009F0BECFE8A5F9A510C0EC81FD81309764
:1009600009F4B6CF4EAD6DAD8BADDF91CF9109944B
:10097000EE81FF81F4CFEC8DFD8D309709F4A8CF87
:10098000DF91CF910994EE8DFF8DF7CFEAA1FBA106
:10099000F4CFECA1FDA1F1CFEEA1FFA1EECFE8894C
:1009A000F989309709F494CF6EAD20E8629FB001C9
:1009B000112460787F738DAD8F77682B70528BAD6B
:1009C000DF91CF910994E885F985C9CFEC85FD8544
:1009D00092CFEA89FB89309709F47ACF6DAD7EAD6D
:1009E0006138710510F060E870E0CE01CF96DF91BC
:1009F000CF910994EE89FF89309709F469CF8EADC4
:100A000020E8829FC001112480789F732DAD2F773D
:100A1000822BDF91CF910994EA8DFB8DAECF982F79
:100A20009F7E282F2F7C203839F0803E29F081E0EE
:100A3000903C19F080E0089581E0089587FF0AC096
:100A40009CE0980F923030F08D3F21F0803F18F4F9
:100A5000807F089580E00895DC018D919C91DC01F8
:100A6000ED91FC910190F081E02D09946D3F48F4E7
:100A70006A3F10F4683F39F4FC01808191810C9445
:100A80002C056E3FC8F70895EF92FF920F931F93C6
:100A9000CF93DF93613E38F50150003178F567FF61
:100AA0002DC0D22F142FC62F7C01602F6C2BFC0180
:100AB00082A593A50E942C05612F6F77F70182A56F
:100AC00093A50E942C05CF7EC03CC1F06D2F6F779F
:100AD000F70182A593A5DF91CF911F910F91FF9010
:100AE000EF900C942C05683F48F08A96DF91CF91E7
:100AF0001F910F91FF90EF900C943605DF91CF91ED
:100B00001F910F91FF90EF900895EF92FF920F9336
:100B10001F93CF93DF93EC019AAD292F217090FFA3
:100B20001EC0892F8E7FD9F0362F6CAD80E8860FDE
:100B30008136F8F40BAD031719F021E0311120E0F4
:100B40009695923051F0933089F0913041F42EAD6A
:100B50004DADCE010E94440502C02111F8CFDF91B6
:100B6000CF911F910F91FF90EF9008952111F7CF32
:100B7000EECFE0E1E60FE03190F7F0E0EE53FA4F10
:100B80000C94D90FDC0520060706F505AF05AF0567
:100B9000D205AF05D205AF05D205D205D205AF0506
:100BA000D205D205CE018A96DF91CF911F910F9188
:100BB000FF90EF900C9436057E018FE3E80EF11C58
:100BC0000DAD1EAD0138110510F000E810E00E0D5E
:100BD0001F1DE016F10609F4C2CFF70161917F01F4
:100BE0008AA59BA50E942C05F4CF1DAD63EF8AA5B5
:100BF0009BA50E942C05612F6F778AA59BA5DF918D
:100C0000CF911F910F91FF90EF900C942C050EAD9A
:100C1000F0E80F9F800111248DAD082B62EF8AA5AB
:100C20009BA50E942C05602F6F778AA59BA50E942B
:100C30002C05000F012F001F110B1195602FDCCF29
:100C40006DAD80E1689FB001112460771EAD1F700B
:100C5000162B61EF8AA59BA50E942C05612FCDCF95
:100C6000EF92FF921F93CF93DF938DE291E00E946A
:100C700084010E94350210917001113108F076C094
:100C8000E0916E01F0916F0180819181DC01ED9125
:100C9000FC910084F185E02D0995892B09F466C04B
:100CA000809113028E7F80931302E0916E01F09188
:100CB0006F0180819181DC01ED91FC910284F385CB
:100CC000E02D0995C82F8D3F09F450C0809178011F
:100CD00090917901009709F0F6C0C0937301D0910B
:100CE00071018D2F0E941E050E940F05882361F05F
:100CF000C7FD0AC0D0937301C093740181E090E0F6
:100D00009093790180937801C09173018C2F0E9498
:100D10001E05813F09F496C0F0F5803B39F048F498
:100D2000803921F0803A11F0803851F423E030E02E
:100D30008BC0803D09F486C0F8F4803C09F482C081
:100D400080911302816080931302E0914601F0913B
:100D50004701309709F009951092790110927801B6
:100D6000109277011092760110927101DF91CF916C
:100D70001F91FF90EF900895803EC1F2803F01F7F0
:100D800020E830E0309377012093760110927101D2
:100D9000809383015DC0873F99F308F04CC0833F87
:100DA00009F450C018F2863F59F6809380011092E2
:100DB0007F01109281011092820181E080930302F1
:100DC00010927901109278011092770110927601B9
:100DD00080918001803939F480918201811103C0B2
:100DE00080E880938001809180018058813638F4BA
:100DF00080917F01181719F0C0E0111105C084E43B
:100E000091E00E944F04C1E0612F84E491E00E94D0
:100E10008505CC2309F4AACF8DE00E94390D61E04D
:100E2000892B09F060E08DE0DF91CF911F91FF9059
:100E3000EF900C940B0D8D3F08F4B7CF8E3F08F068
:100E4000B4CF7ECF22E030E030937701209376015B
:100E5000C13811F0C03B31F422E030E0309377012B
:100E600020937601209178013091790140917601AB
:100E7000509177014150510924173507E8F08093CC
:100E80008001CF70CF5FC0937F0180917401809308
:100E900081011092820181E090E09093050280939D
:100EA0000402109279011092780110927701109249
:100EB0007601809303028CCF2F5F3F4F30937901EF
:100EC0002093780153CFC7FF0CC0CD3F08F04DC031
:100ED000C83F08F04DC0C03F09F459C0C73F09F4EE
:100EE00056C020917301FC01EC5BFE4F203F19F0CE
:100EF000273F09F075C0C7AFE0907601F090770109
:100F00009701215031098217930708F4A9C0D091A5
:100F10007301D03F19F0D73F09F064C0C0910202BD
:100F200080EF809302028093800180E880938101AA
:100F30001092820110927F0180E890E09093050268
:100F40008093040281E08093030284E491E00E9494
:100F50004F0487EF80938301C093840182E090E087
:100F6000909379018093780101CFCE3F08F4B9CFF7
:100F7000C0938001109281011092820110927F0132
:100F800081E090E0909305028093040292CF20913B
:100F90008301203F19F0273F09F0D2CE9C012F5F3B
:100FA0003F4F8C5B9E4FFC01C7AF80EF8093800169
:100FB000209381013093820110927F0130930502CA
:100FC0002093040281E08093030210927901109231
:100FD0007801109277011092760110927101F8CE8B
:100FE000C7A78ACF8D2F0E941E05C82F809380012E
:100FF0000E940F05882349F18D2F8F708F5F80939A
:101000007F01809174018093810180917501F3E0EB
:10101000EF16F10409F080E08093820110927901CB
:1010200010927801109277011092760181E08093FE
:101030000302C03B39F060F4C03921F0C03A11F02E
:10104000C03859F6D0937101C3CE10927F01D9CF29
:10105000C03DC1F3C03EB1F3C03C09F0BECFF2CFFA
:1010600001967ECF8AE093E090931502809314025C
:10107000E4E4F1E01182108213821282158214825C
:10108000178216821186108613861286158614869C
:1010900017861686118A108A138A128A158A148A6C
:1010A000178A168A118E108E138E128E158E148E3C
:1010B000178E168E11A210A213A212A215A214A2AC
:1010C00017A216A211A610A684E192E093A782A708
:1010D00014A615A616A613AA12AA15AA14AA8FEF6B
:1010E0009FEF97AB86AB91AF80AF83E080937E019B
:1010F00013AE14AE15AE16AE10920302E3E8F1E0A3
:1011000080E8DF011D928A95E9F71092060210929D
:101110000702109208021092090210920A0210921D
:101120000B0210920C0210920D0210920E021092FD
:101130000F021092100210921102109212021092DD
:101140001302A8E3B1E013961C921E92129748EE88
:1011500053E060E070E014964D935D936D937C9343
:10116000179785E091E011969C938E93EDE2F1E064
:101170008AE090E091838083B383A2839187808704
:101180001286089585E091E09093390180933801AB
:101190000C94B60B90E080E008951F920F920FB66A
:1011A0000F9211242F933F934F935F936F937F93ED
:1011B0008F939F93AF93BF93EF93FF93E0915B0265
:1011C000F0915C02309749F0A685B7858585968DAC
:1011D00091FF14C09C918923A1F4FF91EF91BF91DD
:1011E000AF919F918F917F916F915F914F913F91BF
:1011F0002F910F900FBE0F901F9018959C918923EF
:1012000061F7A389B4899C918589809589238C9302
:10121000868997890197F1F7608D718DA685B785CD
:10122000558538E020E0CB010197F1F7822F90E05F
:1012300095958795282F4C91452309F020683150CA
:1012400091F7868D81FD209580911A0290E001969C
:101250008F73992730911902381799F0A0911A02CB
:10126000B0E0A55EBD4F2C9380931A02828D938DC2
:101270000197F1F7A389B4898C919589892B8C9377
:10128000ACCF868D8160868FF1CF8091F7029091EF
:10129000F602891769F09F5F903508F090E0E92F1A
:1012A000F0E0EA55FD4F80819093F60290E00895BA
:1012B0008FEF9FEF08958091F702E091F6028E176D
:1012C00051F0EF5FE03508F0E0E0F0E0EA55FD4F67
:1012D000808190E008958FEF9FEF08955091F7027D
:1012E0004091F602852F90E0242F30E0541718F03B
:1012F000821B930B0895805B9F4FFACF9B01AC013B
:10130000213668E136074105510540F410926F001F
:101310001092800081E88093810018C0DC01C9012F
:1013200073E0B695A795979587957A95D1F781360D
:1013300068E19607A105B105C8F510926F001092FB
:10134000800022E8209381009C01AD0130930003CE
:101350002093FF02A5E2B0E00E94DF0F22E0969505
:101360008795779567952A95D1F77093F9026093E1
:10137000F80262E088E00E94CF0C61E089E00E9400
:101380000B0D61E089E00E94CF0C1092FE021092DA
:10139000F7021092F6021092A5021092A202109289
:1013A000A10280E286BB80936F000895232F342F23
:1013B000452F5527213688E1380741055105A8F703
:1013C00010926F001092800084E8A5CF9091A20245
:1013D0009F5F943408F090E02091A1022917E1F377
:1013E0002FB7F8943091A502332349F0E92FF0E0AC
:1013F000E35AFD4F80839093A2022FBF089591E09E
:101400009093A5028093A4021092A30282E086BB6F
:1014100080916F00826080936F00809180008F7B4D
:101420008068809380008091840090918500409630
:101430009093890080938800E0CF862F0E94E60970
:1014400081E090E008951F920F920FB60F92112441
:101450002F933F934F935F936F937F938F939F93BC
:10146000EF93FF932091A5026091A40280918800E0
:10147000909189004091FF02509100033091A302A6
:101480002A3070F5840F951F762F7170293009F47A
:1014900071E066952F5F371799F3309180007723BD
:1014A000E1F0306C30938000909389008093880045
:1014B0007093A3026093A4022093A502FF91EF9181
:1014C0009F918F917F916F915F914F913F912F915C
:1014D0000F900FBE0F901F9018953F7B3068E2CFA2
:1014E0003091A202E091A1023E1319C02A3051F4BA
:1014F0002BE02093A502840F951F90938900809381
:101500008800DCCF1092A502809180008F738093B9
:10151000800080916F008D7F80936F00CFCFEF5F51
:10152000E43408F0E0E0E093A102F0E0E35AFD4F7C
:1015300030813093A4021092A302309180003F7B4F
:101540003068309380002A3071F42091FF0230918E
:101550000003820F931F909389008093880081E09D
:101560008093A502ABCF8091840090918500409636
:10157000F2CF8091A5028111FCCF08950C94B90A95
:101580001F920F920FB60F9211242F933F934F93F8
:101590005F936F937F938F939F93AF93BF93EF93DB
:1015A000FF9380918600909187004091FC022091EA
:1015B00081004423F1F12F7B209381001092FC02E3
:1015C0003091FE0231113CC0411122C02091F8023D
:1015D0003091F902280F391F30938B0020938A0035
:1015E00024E026BB20916F00246020936F0020919F
:1015F000FF0230910003820F931F36952795280F25
:10160000391F3093FB022093FA0281E08093FE029F
:10161000FF91EF91BF91AF919F918F917F916F91CA
:101620005F914F913F912F910F900FBE0F901F90A0
:10163000189520642093810020E82093FC02C0CFFD
:101640004091FA025091FB026091FF0270910003F9
:10165000DB01A095B0952091FD02E091FC02841B76
:10166000950BA817B90768F126952E2B460F571F23
:101670003F5F861B970B3930A0F32093FD028091CA
:101680006F008B7F80936F008091F7028F5F8035B2
:1016900008F080E09091F602981749F0E82FF0E00A
:1016A0009091FD02EA55FD4F90838093F70280915F
:1016B00081008F7B809381001092FC021092FE02C9
:1016C000A7CF2093FD025093FB024093FA02309380
:1016D000FE029ECF1F920F920FB60F9211242F93EE
:1016E0008F939F93EF93FF9380916F008B7F8093F5
:1016F0006F00809181008F7B809381008091FE023A
:101700002091FC0220589091FD02893020F496959A
:10171000922B8F5FFACF9093FD028091F7028F5F3B
:10172000803508F080E02091F602281739F0E82F84
:10173000F0E0EA55FD4F90838093F7021092FE028D
:10174000809181008F7B809381001092FC02FF9139
:10175000EF919F918F912F910F900FBE0F901F903F
:1017600018958091F6028093F7020895CF93DF9346
:10177000CFE6D0E088818B7F888388818F7D8883C6
:101780000E94B10B0E94B90A88818D7F8883DF9106
:10179000CF9108951F920F920FB60F9211242F939D
:1017A0003F938F939F93AF93BF9380910603909144
:1017B0000703A0910803B09109033091050323E0CA
:1017C000230F2D3768F126E8230F0296A11DB11DC6
:1017D000209305038093060390930703A0930803C7
:1017E000B09309038091010390910203A091030338
:1017F000B09104030196A11DB11D80930103909344
:101800000203A0930303B0930403BF91AF919F9190
:101810008F913F912F910F900FBE0F901F901895B1
:101820000196A11DB11DD4CF2FB7F8946091060386
:101830007091070380910803909109032FBF0895C9
:101840003FB7F8948091010390910203A0910303A4
:10185000B091040326B5A89B05C02F3F19F001964F
:10186000A11DB11D3FBFBA2FA92F982F8827BC01FA
:10187000CD01620F711D811D911D42E0660F771F22
:10188000881F991F4A95D1F708958F929F92AF9222
:10189000BF92CF92DF92EF92FF926B017C010E9488
:1018A000200C4B015C01C114D104E104F104E9F006
:1018B0000E94B60F0E94200C681979098A099B09B9
:1018C000683E73408105910570F321E0C21AD1088A
:1018D000E108F10888EE880E83E0981EA11CB11C77
:1018E000C114D104E104F10429F7FF90EF90DF90D7
:1018F000CF90BF90AF909F908F900895789484B5CB
:10190000836084BD85B5836085BDEEE6F0E08081AF
:1019100081608083E1E8F0E082E080838081816003
:101920008083E0E8F0E0808181608083E1EBF0E09B
:10193000808184608083E0EBF0E08081816080833F
:1019400087E880937A001092C1000895843081F076
:1019500028F48230E9F08330F9F00895883071F08E
:10196000893091F08530B9F4809180008F7D03C07B
:10197000809180008F778093800008958091B000DF
:101980008F778093B00008958091B0008F7DF9CF5C
:1019900084B58F7784BD089584B58F7DFBCFCF93B9
:1019A000DF9390E0FC01E158FF4F24918A569F4F4E
:1019B000FC0184918823C9F090E0880F991FFC01F5
:1019C000EF53FF4FA591B491FC01E954FF4FC5912E
:1019D000D49161110DC09FB7F8948C91209582230A
:1019E0008C938881282328839FBFDF91CF9108950E
:1019F000623051F49FB7F8943C91822F80958323F5
:101A00008C93E8812E2BEFCF8FB7F894EC912E2B8F
:101A10002C938FBFEACF1F93CF93DF93282F30E013
:101A2000F901E859FF4F8491F901E158FF4FD49132
:101A3000F901EA56FF4FC491CC23A9F0162F81116A
:101A40000E94A60CEC2FF0E0EE0FFF1FE954FF4FB1
:101A5000A591B4918FB7F894EC91111108C0D0956D
:101A6000DE23DC938FBFDF91CF911F910895DE2B92
:101A7000F8CFCF93DF93282F30E0F901E859FF4FDB
:101A80008491F901E158FF4FD491F901EA56FF4FD3
:101A9000C491CC23A1F081110E94A60CEC2FF0E0A0
:101AA000EE0FFF1FE355FF4FA591B491EC91ED238D
:101AB00081E090E009F480E0DF91CF91089580E02B
:101AC00090E0FACFFC01918D228D892F90E0805C0F
:101AD0009F4F821B91098F7399270895FC01918D67
:101AE000828D981731F0828DE80FF11D858D90E081
:101AF00008958FEF9FEF0895FC01918D828D9817C7
:101B000061F0A28DAE0FBF2FB11D5D968C91928DAD
:101B10009F5F9F73928F90E008958FEF9FEF0895DE
:101B2000FC01538D448D252F30E0842F90E0821BE3
:101B3000930B541710F0CF9608950197089585EEF2
:101B40009EE0892B49F080E090E0892B29F00E94EB
:101B5000E50E81110C9400000895FC01A48DA80FDE
:101B6000B92FB11DA35ABF4F2C91848D90E00196DF
:101B70008F739927848FA689B7892C93A089B189FF
:101B80008C9180648C93938D848D981306C0028809
:101B9000F389E02D80818F7D80830895CF93DF933B
:101BA000EC01888D8823B9F0AA89BB89E889F98975
:101BB0008C9185FD03C0808186FD0DC00FB607FCAA
:101BC000F7CF8C9185FFF2CF808185FFEDCFCE01DD
:101BD0000E94AD0DE9CFDF91CF910895EF92FF9272
:101BE0000F931F93CF93DF93EC0181E0888F9B8D40
:101BF0008C8D981316C0E889F989808185FF11C002
:101C0000EE89FF896083E889F98980818064808317
:101C100081E090E0DF91CF911F910F91FF90EF90C5
:101C20000895F62E0B8D10E00F5F1F4F0F731127D5
:101C3000E02E8C8D8E110CC00FB607FCFACFE88910
:101C4000F989808185FFF5CFCE010E94AD0DF1CFDE
:101C5000EB8DEC0FFD2FF11DE35AFF4FF0820B8F40
:101C6000EA89FB8980818062D2CFCF92DF92EF92A6
:101C7000FF921F93CF93DF93EC016A017B01122F38
:101C8000E889F98982E08083C11481EED806E104F5
:101C9000F104A1F060E079E08DE390E0A701960106
:101CA0000E94B70F215031094109510956954795B6
:101CB00037952795211580E1380798F0E889F9894B
:101CC000108260E874E88EE190E0A70196010E941E
:101CD000B70F21503109410951095695479537955C
:101CE0002795EC85FD853083EE85FF852083188E52
:101CF000EC89FD891083EA89FB898081886980836A
:101D0000EA89FB8980818F7D8083DF91CF911F914C
:101D1000FF90EF90DF90CF9008951F920F920FB633
:101D20000F9211242F938F939F93EF93FF93E09142
:101D30001A03F0911B038081E0912003F0912103AD
:101D400082FD1BC09081809123038F5F8F73209150
:101D50002403821741F0E0912303F0E0E65FFC4F9B
:101D6000958F80932303FF91EF919F918F912F91F6
:101D70000F900FBE0F901F9018958081F4CF1F9287
:101D80000F920FB60F9211242F933F934F935F93AF
:101D90006F937F938F939F93AF93BF93EF93FF9333
:101DA0008AE093E00E94AD0DFF91EF91BF91AF915A
:101DB0009F918F917F916F915F914F913F912F9163
:101DC0000F900FBE0F901F9018958AE093E00E942D
:101DD000620D21E0892B09F420E0822F0895EAE0CA
:101DE000F3E01382128288EE93E0A0E0B0E08483F7
:101DF0009583A683B78387E191E09183808385EC07
:101E000090E09587848784EC90E09787868780ECC4
:101E100090E0918B808B81EC90E0938B828B82ECB5
:101E200090E0958B848B86EC90E0978B868B118E5F
:101E3000128E138E148E0895AF92BF92CF92DF92BE
:101E4000EF92FF920F931F93CF93DF936C017B016F
:101E50008B01040F151FEB015E01AE18BF08C01700
:101E6000D10759F06991D601ED91FC910190F08173
:101E7000E02DC6010995892B79F7C501DF91CF9136
:101E80001F910F91FF90EF90DF90CF90BF90AF9098
:101E900008950F931F93CF93DF93EC010E94140CCE
:101EA000688779878A879B87E881F9810284F3852F
:101EB000E02DCE01099597FF15C00E94140C0885EE
:101EC00019852A853B85601B710B820B930B0C8156
:101ED0001D812E813F81601771078207930720F3D0
:101EE0008FEF9FEFDF91CF911F910F910895FC012C
:101EF00044835583668377830895AF92BF92CF92D0
:101F0000DF92EF92FF920F931F93CF93DF935C01C9
:101F10007B018B01040F151FEB016E01CE18DF084A
:101F2000C017D10739F0C5010E94490F97FD02C0C3
:101F30008993F3CFC601DF91CF911F910F91FF904D
:101F4000EF90DF90CF90BF90AF90089508950E94DA
:101F50007E0C0E94A60F0E947F03CFE9DDE00E9465
:101F600030062097E1F30E949F0DF9CF0895A1E27A
:101F70001A2EAA1BBB1BFD010DC0AA1FBB1FEE1F03
:101F8000FF1FA217B307E407F50720F0A21BB30B4E
:101F9000E40BF50B661F771F881F991F1A9469F7CA
:101FA00060957095809590959B01AC01BD01CF0126
:101FB0000895EE0FFF1F0590F491E02D09940E9403
:101FC000EA0FA59F900DB49F900DA49F800D911DC9
:101FD00011240895A29FB001B39FC001A39F700D6B
:101FE000811D1124911DB29F700D811D1124911D21
:101FF000089510E0C8E6D0E004C0FE010E94D90FA9
:102000002196C936D107C9F7F894FFCF1400000014
:10201000001D0A1C0FCA08BE0A6E0945095B0900AB
:10202000000000EE0D1C0F900DCE0D620D7C0D6EAC
:022030000D00A1
:107E000001C0B7C0112484B790E89093610010922C
:107E10006100882361F0982F9A70923041F081FFC1
:107E200002C097EF94BF282E80E0C6D0E9C085E05D
:107E30008093810082E08093C00088E18093C1003C
:107E400080E18093C40086E08093C2008EE0B4D0CD
:107E5000259A84E020E33CEF91E030938500209365
:107E6000840096BBB09BFECF1D9AA8954091C000A0
:107E700047FD02C0815089F793D0813479F490D0C6
:107E8000182FA0D0123811F480E004C088E0113817
:107E900009F083E07ED080E17CD0EECF823419F40B
:107EA00084E198D0F8CF853411F485E0FACF853598
:107EB00041F476D0C82F74D0D82FCC0FDD1F82D0DC
:107EC000EACF863519F484E085D0DECF843691F58B
:107ED00067D066D0F82E64D0D82E00E011E05801AB
:107EE0008FEFA81AB80A5CD0F80180838501FA10D8
:107EF000F6CF68D0F5E4DF1201C0FFCF50E040E0DC
:107F000063E0CE0136D08E01E0E0F1E06F0182E067
:107F1000C80ED11C4081518161E0C8012AD00E5F9A
:107F20001F4FF601FC10F2CF50E040E065E0CE01BB
:107F300020D0B1CF843771F433D032D0F82E30D086
:107F400041D08E01F80185918F0123D0FA94F11070
:107F5000F9CFA1CF853739F435D08EE11AD085E934
:107F600018D08FE097CF813509F0A9CF88E024D0D1
:107F7000A6CFFC010A0167BFE895112407B600FCF3
:107F8000FDCF667029F0452B19F481E187BFE89594
:107F900008959091C00095FFFCCF8093C60008958E
:107FA0008091C00087FFFCCF8091C00084FD01C09C
:107FB000A8958091C6000895E0E6F0E098E19083EE
:107FC00080830895EDDF803219F088E0F5DFFFCF80
:107FD00084E1DFCFCF93C82FE3DFC150E9F7CF9122
:027FE000F1CFDF
:027FFE00000879
:00000001FF
