:020000040000FA
:100000000C944C030C9474030C9474030C946C0EB9
:100010000C946C0E0C946C0E0C9474030C9474037E
:100020000C9474030C9474030C9473110C94D610F8
:100030000C941D120C9474030C9474030C947403AC
:100040000C947D120C9474030C9440150C9472154E
:100050000C9474030C9474030C9474030C94740344
:100060000C9474030C94740343616C696272617440
:10007000696F6E20287374617475732F6572726F67
:1000800072732F6F6B293A200020656E64206661C1
:1000900064656F7574002000466164696E673A009C
:1000A000466164696E673A2070726576696F757330
:1000B00020636D642077617320616C72656164797F
:1000C000206120666164656F75742C206E6F2066F8
:1000D00061646500434D443A204E6F74654F666617
:1000E00020566972747561526163696E67203A20A7
:1000F00053544F5020736F756E6400434D443A2043
:10010000436F6E74726F6C4368616E6765205669E9
:1001100072747561526163696E673A2042474D207F
:100120002300434D443A20466164654F7574205660
:100130006972747561466967687465722000434D21
:10014000443A2053797374656D2072657365742029
:10015000636F6D6D616E6420726563656976656459
:1001600000434D443A20466164656F757420004930
:100170004E464F3A204E6F742073656E7420746F34
:10018000206466506C617965722062656361757385
:100190006520766F6C756D652077617320616C7278
:1001A00065616479207468652073616D6500203D28
:1001B0003E2047616D652073657474696E673A20EF
:1001C00000434D443A20566F6C756D65206368613D
:1001D0006E67652E2056616C75653A2000434D446C
:1001E0003A2042474D2023302053544F5000434D76
:1001F000443A2042474D2023005354415254555015
:100200003A2053797374656D207265616479005387
:100210005441525455503A204D49444920696E7416
:10022000657266616365206C697374656E696E677B
:1002300000535441525455503A20537461727469BA
:100240006E67204D49444920696E7465726661632A
:100250006500535441525455503A204D503320704C
:100260006C617965722073746172746564005354B3
:1002700041525455503A2053657474696E67204555
:100280005100535441525455503A20536574746987
:100290006E6720766F6C756D6520746F2000535407
:1002A00041525455503A2043616C696272617465E1
:1002B0002073656E642073706163652E0053544132
:1002C000525455503A205374617274696E67204DD0
:1002D000503320706C617965720044534220436C46
:1002E0006F6E65202D20646562756720696E746588
:1002F000726661636520737461727465640044465C
:10030000506C617965723A20466C6173682C2000EC
:100310004446506C617965723A20555342204469D5
:10032000736B2C20004446506C617965723A2053FF
:100330004420436172642C20004446506C6179650E
:10034000723A20506C61792066696E6973686564E1
:1003500020666F722023004446506C617965723AC2
:1003600020556E6B6E6F776E206572726F722063B0
:100370006F6465203D20004446506C617965723A97
:100380002044664D70335F4572726F725F416476D0
:10039000657274697365203D2037202D20287365B0
:1003A00065206368697020646F63756D656E746144
:1003B00074696F6E2920496E206164766572746974
:1003C00073656D656E742E004446506C617965727C
:1003D0003A2044664D70335F4572726F725F4669B2
:1003E0006C654D69736D61746368203D2036202D06
:1003F0002028736565206368697020646F63756D7C
:10040000656E746174696F6E292043616E206E6F32
:10041000742066696E642066696C652E00444650DF
:100420006C617965723A2044664D70335F45727233
:100430006F725F46696C65496E6465784F757420AC
:100440003D2035202D202873656520636869702064
:10045000646F63756D656E746174696F6E29204693
:10046000696C6520696E646578206F7574206F66AD
:1004700020626F756E64732E004446506C6179651E
:10048000723A2044664D70335F4572726F725F43FB
:100490006865636B53756D4E6F744D61746368204E
:1004A0003D2034202D202873656520636869702005
:1004B000646F63756D656E746174696F6E29204336
:1004C0006F6D6D756E69636174696F6E73206572AF
:1004D000726F72206F6E2074686520686172647735
:1004E000617265206C6576656C2E20436865636B70
:1004F00020776972696E6720616E6420474E4420E0
:10050000636F6E6E656374696F6E732E0044465040
:100510006C617965723A2044664D70335F45727242
:100520006F725F736F667453657269616C44656264
:10053000756767657257726F6E67537461636B207E
:100540003D2033202D2053657269616C20636F6DEF
:100550006D756E69636174696F6E206572726F721A
:100560002028736565206368697020646F63756D0A
:10057000656E746174696F6E29004446506C6179D0
:1005800065723A2044664D70335F4572726F725FD8
:10059000536C656570696E67203D2032202D2028E0
:1005A000736565206368697020646F63756D656E3F
:1005B000746174696F6E292054686520636869707E
:1005C00020697320696E20736C656570206D6F649F
:1005D000652E004446506C617965723A2044664D40
:1005E00070335F4572726F725F42757379203D2080
:1005F00031202D2028736565206368697020646F41
:1006000063756D656E746174696F6E2920557375BD
:10061000616C6C7920746865206D65646961207710
:100620006173206E6F7420666F756E642E0000001B
:10063000000900030200000405080000000000009B
:1006400000000000000102040810204080010204A4
:100650000810200102040810204080400404040413
:10066000040404040202020202020303030303035C
:100670000202030000000023002600290000000001
:1006800000250028002B0000000000240027002A7D
:100690000000DA0CA215700D11241FBECFEFD8E0B8
:1006A000DEBFCDBF11E0A0E0B1E0E4EDFFE202C0AB
:1006B00005900D92A637B107D9F724E0A6E7B1E07F
:1006C00001C01D92A631B207E1F713E0CBE4D3E0FD
:1006D00004C02197FE010E94A917C934D107C9F7A8
:1006E0000E9444170C94DD170C940000FC01319615
:1006F0002FEF3FEF0796E817F90721F04191241BF0
:100700003109F9CFC90101960895CF93DF93EC0128
:100710000E9476039F838887DF91CF910895CF93BE
:10072000DF93EC010E9476032F813885322723273F
:10073000322741E02817390709F040E0842FDF9184
:10074000CF910895CF93DF93EB01209185023091F3
:1007500086022F5F3F4F3093860220938502FB0174
:100760003197E730F10508F03BC0E754FC4F0C949B
:10077000A917C003C803CB03E403E703EA03ED03AF
:1007800063ED75E088E891E0DF91CF910C9433162A
:100790006AE775E0F7CFFC01208131812C3DF5E05F
:1007A0003F0728F4265F3F4FFC01318320838DE013
:1007B0000E94EC1361E0892B09F060E08DE00E945B
:1007C000BE136DE075E0DECF69E774E0DBCF6DE16D
:1007D00074E0D8CF68EC73E0D5CF67E773E0D2CF91
:1007E00067E573E089E793E00E940B164AE050E06A
:1007F000BE0189E793E0DF91CF910C94D4160F935B
:100800001F93CF93C82F8B0181FF06C065E273E071
:1008100088E891E00E940B16C0FF06C060E173E01B
:1008200088E891E00E940B16C3FF06C06EEF72E0ED
:1008300088E891E00E940B16B80188E891E0CF911A
:100840001F910F910C944516CF93DF93EB0161E05C
:1008500071E00E94FF0369E373E088E891E00E9481
:100860000B164AE050E0BE0188E891E0DF91CF919D
:100870000C94D416CF93DF93EC010E94C7126093BF
:1008800078017093790180937A0190937B01D093E2
:100890007701C093760181E080937C01DF91CF9155
:1008A0000895EF92FF920F931F93CF93DF93CDB7ED
:1008B000DEB72A970FB6F894DEBF0FBECDBF8C010E
:1008C000F62EEE24E39441E050E0BE016F5F7F4FCF
:1008D000D80112968D919C910E941A17813009F0CF
:1008E00066C089818E3779F749E050E0BE016E5FBE
:1008F0007F4FF801828193810E941A178F5F8A309F
:1009000008F467C08A818F3F09F066C08B8186300A
:1009100009F062C08A858F3E09F05EC0CE01019663
:100920000E948F03882309F45AC0EC818E819F8135
:10093000982789279827FF2009F454C0FE126DC01C
:100940002A960FB6F894DEBF0FBECDBFDF91CF91D0
:100950001F910F91FF90EF900895BC0181E090E00E
:100960000E942404F110AFCF1FC0BC0182E090E0D0
:10097000F7CFBC0188E090E0F3CFD8011A96EC9253
:1009800061E071E00E94FF03EDCFF801E28668E0CC
:1009900071E0F8CFD8011A96EC9261E171E0F2CFE4
:1009A000BC01C8010E94A20390E080E0C9CF61E8C9
:1009B00070E0C8010E94A203F80182819381DC01EA
:1009C000ED91FC910084F185E02D0995892B51F67C
:1009D000EBCF62E870E0EDCF63E870E0EACF64E867
:1009E00070E0E7CFEA53E331F8F6F0E0E650FB4F72
:1009F0000C94A917C504CA04AD04B504B904BD0418
:100A0000D004D404D404D404D404D404D404D4042A
:100A1000D404D404D404AD04B504EA53E33108F09B
:100A200052CFF0E0EA5EFA4F0C94A917C504CA044D
:100A3000AD04B504B904BD04D004630463046304C5
:100A40006304630463046304630463046304AD0424
:100A5000B504CF93DF93EC018A819B81DC01ED919A
:100A6000FC910084F185E02D09950A972CF060E057
:100A7000CE010E945104F0CFDF91CF9108958F9263
:100A80009F92AF92BF92EF92FF920F931F93CF93DB
:100A9000DF93CDB7DEB72A970FB6F894DEBF0FBE4F
:100AA000CDBF8C01790186E0FE013596DF01982FDC
:100AB0001D929A95E9F79EE799839FEF9A838B831E
:100AC0008FEE8A876C835E834F83CE0101960E94EE
:100AD0008503D8018D919C91E80EF91E0E94C712E2
:100AE000F80184809580A680B780AB01BC014819CD
:100AF00059096A097B0980859185B0E0A0E0481713
:100B000059076A077B0750F4C8010E94290561E074
:100B100070E080E090E00E94F812E0CFF186E0867D
:100B200082819381DC01ED91FC910280F381E02DC3
:100B30004AE050E0BE016F5F7F4F09950E94C712E7
:100B4000F80164837583868397832A960FB6F89499
:100B5000DEBF0FBECDBFDF91CF911F910F91FF90F0
:100B6000EF90BF90AF909F908F900895462F50E0E8
:100B700030E020E066E00C943F0530E020E050E0FB
:100B800040E066E10C943F056EE371E088E891E097
:100B90000E9433168DE791E00E94BD0584E08093AA
:100BA00087020895CF93823081F461110EC0C82F5F
:100BB0008DE791E00E94BD05C093870264ED70E06F
:100BC00088E891E0CF910C943316CF9108950F935C
:100BD0001F9380917C01882341F10E94C7120091EC
:100BE00078011091790120917A0130917B01AB015C
:100BF000BC01401B510B620B730B809176019091ED
:100C00007701B0E0A0E0481759076A077B0768F44E
:100C100010927C0130E020E050E040E069E18DE797
:100C200091E01F910F910C943F051F910F91089532
:100C30008F929F92AF92BF92CF92DF92EF92FF92EC
:100C40006C010E94C7124B015C01F12CE12C0E9447
:100C5000C712681979098A099B096C157D058E05EB
:100C60009F0558F48DE791E00E94290561E070E04E
:100C700080E090E00E94F812EACFFF90EF90DF90C2
:100C8000CF90BF90AF909F908F9008950F931F9338
:100C9000CF9390918702933049F460EA70E088E83E
:100CA00091E0CF911F910F910C940B16082F68E9DA
:100CB00070E088E891E00E940B16C091000110E0FE
:100CC000C230B8F0C1506C2F8DE791E00E94B6059C
:100CD000C8010E94180666E970E088E891E00E9469
:100CE0000B164AE050E06C2F88E891E00E94B516A0
:100CF000E7CF8DE791E00E94BD0582E390E00E947E
:100D00001806609100018DE791E00E94B60569E840
:100D100070E088E891E0CF911F910F910C94331609
:100D20001F93CF93DF938F3008F470C0C42FD62F5A
:100D3000182F603111F06F3611F5CC2309F46AC019
:100D40004C2F50E030E020E062E18DE791E00E941E
:100D50003F0581E080938702103121F484EF91E018
:100D60000E943A046EEE71E088E891E00E940B1652
:100D70004AE050E06C2F88E891E00E94BC168FEFAB
:100D80008D0F823058F51C2F1695169561EC71E089
:100D900088E891E00E940B164AE050E06C2F88E84A
:100DA00091E00E94B5166EEA71E088E891E00E9439
:100DB0000B164AE050E0612F88E891E00E94BC16D3
:100DC000809100011817A1F1612F8DE791E00E9439
:100DD000B6051093000185E080938702D350D2308E
:100DE000A8F461E671E088E891E00E940B164AE001
:100DF00050E06C2F88E891E00E94BC168C2F8695FD
:100E000086950E94460683E080938702DF91CF910A
:100E10001F9108958DE791E00E94BD0582E08093C7
:100E200087026DED71E088E891E00E943316A7CF4C
:100E30006FE671E088E891E00E943316CCCF1F93F3
:100E4000CF93DF93D82FC62F142F8F30D9F468316A
:100E5000A9F462E271E088E891E00E940B164AE092
:100E600050E068E188E891E00E94BC16812F8695E9
:100E700086950E94460683E080938702DF91CF919A
:100E80001F9108958130D1F7462F50E030E020E0E7
:100E900062E18DE791E00E943F05D09387026BEFFE
:100EA00070E088E891E00E940B164AE050E06C2F59
:100EB00088E891E0DF91CF911F910C94BC160F93BD
:100EC0001F93CF93C0E010928602109285028DE7A7
:100ED00091E00E94BD0530E020E050E040E068E194
:100EE0008DE791E00E943F0580917F019091800104
:100EF000DC01ED91FC910084F185E02D0995181637
:100F0000190634F460E08DE791E00E945104ECCFC3
:100F100030E020E050E040E062E48DE791E00E94A4
:100F20003F0562E48DE791E00E9451048C01892B1A
:100F300039F08091850290918602CF5F892B71F004
:100F400080917D0190917E018C3DB5E09B0728F456
:100F50000A9690937E0180937D01C0E068E670E080
:100F600088E891E00E940B164AE050E0B80188E85A
:100F700091E00E94CE1660918502709186024AE04F
:100F800050E088E891E00E94CE164AE050E06C2FD5
:100F900088E891E00E94B51669E171E088E891E087
:100FA0000E944516CA3008F48ECF8DE791E0CF91AC
:100FB0001F910F910C94BD05CF93DF9361E08DE0FD
:100FC0000E94821340E052EC61E070E088E891E01A
:100FD0000E946A0F6AED72E088E891E00E94331681
:100FE0006BE171E088E891E00E9445166DEB72E0DC
:100FF00088E891E00E94331663E876E080E090E0B4
:101000000E94311048EE53E060E070E080917F0173
:10101000909180010E9414170E94C7126093810171
:101020007093820180938301909384018EE190E01C
:1010300090937E0180937D0128E532E050E040E00E
:101040006CE08DE791E00E943F051092870184EFEC
:1010500091E00E94180660E08DE791E00E94B605DD
:1010600028EC30E042E050E069E08DE791E00E943A
:101070003F05C4E1D0E084E690E00E94180680912C
:101080008701811102C02197B1F76EE972E088E80B
:1010900091E00E9433160E945F0762E872E088E8E0
:1010A00091E00E940B164AE050E06091000188E850
:1010B00091E00E94BC16609100018DE791E00E94D2
:1010C000B6056EE672E088E891E00E94331630E0E3
:1010D00020E045E050E067E08DE791E00E943F05A9
:1010E00084EF91E00E94180630E020E048EE53E0E3
:1010F00062E18DE791E00E943F0588EB9BE00E9452
:10110000180662E572E088E891E00E94331680E9F3
:1011100096E09093BC018093BB0184EC95E09093A2
:10112000DC018093DB018FE197E09093BE01809317
:10113000BD0182ED95E09093B8018093B70161E322
:1011400072E088E891E00E943316E091DD01F091B1
:10115000DE0126E042E15AE760E070E080819181A3
:101160000E94E8141092DF011092E1011092E00158
:101170001092E8011092E7011092E6011092E50149
:101180008FEF9FEF9093EA018093E9019093EC0138
:101190008093EB010E94C7126093750270937602F0
:1011A0008093770290937802109272021092EF016E
:1011B0001092EE011092F0011092F101109274025F
:1011C000109273028091ED01817082608160809342
:1011D000ED016FE072E088E891E00E94331669EF5C
:1011E00071E088E891E0DF91CF910C943316CF93B2
:1011F000DF93EC01E881F981309711F0CB960995E6
:101200008CAD823F09F49EC090F5803C09F486C005
:1012100090F4803909F454C030F4803809F445C0A2
:10122000DF91CF910895803A09F475C0803BC1F7F2
:10123000EA85FB853CC0803E09F459C058F4803DE6
:1012400079F7EE85FF85309759F36DAD8BADDF9162
:10125000CF910994803F09F464C0813F09F7EC897C
:10126000FD893097E9F28DADDF91CF9109948A3FE6
:1012700091F180F4863F09F477C028F4833F81F62A
:10128000E88DF98DEECF883FF1F0893F49F6E8A16E
:10129000F9A11BC08C3F29F108F18E3F29F18F3F46
:1012A00009F0BECFE8A5F9A510C0EC81FD8130970B
:1012B00009F4B6CF4EAD6DAD8BADDF91CF910994F2
:1012C000EE81FF81F4CFEC8DFD8D309709F4A8CF2E
:1012D000DF91CF910994EE8DFF8DF7CFEAA1FBA1AD
:1012E000F4CFECA1FDA1F1CFEEA1FFA1EECFE889F3
:1012F000F989309709F494CF6EAD20E8629FB00170
:10130000112460787F738DAD8F77682B70528BAD11
:10131000DF91CF910994E885F985C9CFEC85FD85EA
:1013200092CFEA89FB89309709F47ACF6DAD7EAD13
:101330006138710510F060E870E0CE01CF96DF9162
:10134000CF910994EE89FF89309709F469CF8EAD6A
:1013500020E8829FC001112480789F732DAD2F77E4
:10136000822BDF91CF910994EA8DFB8DAECF982F20
:101370009F7E282F2F7C203839F0803E29F081E095
:10138000903C19F080E0089581E0089587FF0AC03D
:101390009CE0980F923030F08D3F21F0803F18F4A0
:1013A000807F089580E00895DC018D919C91DC019F
:1013B000ED91FC910190F081E02D09946D3F48F48E
:1013C0006A3F10F4683F39F4FC01808191810C94EC
:1013D000D4096E3FC8F70895EF92FF920F931F93C1
:1013E000CF93DF93613E38F50150003178F567FF08
:1013F0002DC0D22F142FC62F7C01602F6C2BFC0127
:1014000082A593A50E94D409612F6F77F70182A569
:1014100093A50E94D409CF7EC03CC1F06D2F6F7799
:10142000F70182A593A5DF91CF911F910F91FF90B6
:10143000EF900C94D409683F48F08A96DF91CF91E1
:101440001F910F91FF90EF900C94DE09DF91CF91E7
:101450001F910F91FF90EF900895EF92FF920F93DD
:101460001F93CF93DF93EC019AAD292F217090FF4A
:101470001EC0892F8E7FD9F0362F6CAD80E8860F85
:101480008136F8F40BAD031719F021E0311120E09B
:101490009695923051F0933089F0913041F42EAD11
:1014A0004DADCE010E94EC0902C02111F8CFDF91B1
:1014B000CF911F910F91FF90EF9008952111F7CFD9
:1014C000EECFE0E1E60FE03190F7F0E0E659F54FBE
:1014D0000C94A917840AC80AAF0A9D0A570A570A2A
:1014E0007A0A570A7A0A570A7A0A7A0A7A0A570A45
:1014F0007A0A7A0ACE018A96DF91CF911F910F91D5
:10150000FF90EF900C94DE097E018FE3E80EF11C52
:101510000DAD1EAD0138110510F000E810E00E0D04
:101520001F1DE016F10609F4C2CFF70161917F019A
:101530008AA59BA50E94D409F4CF1DAD63EF8AA5AF
:101540009BA50E94D409612F6F778AA59BA5DF9187
:10155000CF911F910F91FF90EF900C94D4090EAD95
:10156000F0E80F9F800111248DAD082B62EF8AA552
:101570009BA50E94D409602F6F778AA59BA50E9426
:10158000D409000F012F001F110B1195602FDCCF24
:101590006DAD80E1689FB001112460771EAD1F70B2
:1015A000162B61EF8AA59BA50E94D409612FCDCF90
:1015B000EF92FF921F93CF93DF938DE791E00E940C
:1015C00029050E94E7051091DF01113108F076C06E
:1015D000E091DD01F091DE0180819181DC01ED91EE
:1015E000FC910084F185E02D0995892B09F466C0F2
:1015F000809182028E7F80938202E091DD01F091E2
:10160000DE0180819181DC01ED91FC910284F38502
:10161000E02D0995C82F8D3F09F450C08091E70156
:101620009091E801009709F0F6C0C093E201D091D3
:10163000E0018D2F0E94C6090E94B709882361F03E
:10164000C7FD0AC0D093E201C093E30181E090E0BE
:101650009093E8018093E701C091E2018C2F0E94F2
:10166000C609813F09F496C0F0F5803B39F048F493
:10167000803921F0803A11F0803851F423E030E0D5
:101680008BC0803D09F486C0F8F4803C09F482C028
:1016900080918202816080938202E091B501F09195
:1016A000B601309709F009951092E8011092E70110
:1016B0001092E6011092E5011092E001DF91CF91C6
:1016C0001F91FF90EF900895803EC1F2803F01F797
:1016D00020E830E03093E6012093E5011092E0012C
:1016E0008093F2015DC0873F99F308F04CC0833FBF
:1016F00009F450C018F2863F59F68093EF0110921A
:10170000EE011092F0011092F10181E080937202DB
:101710001092E8011092E7011092E6011092E501A3
:101720008091EF01803939F48091F101811103C07A
:1017300080E88093EF018091EF018058813638F482
:101740008091EE01181719F0C0E0111105C083EB6C
:1017500091E00E94F708C1E0612F83EB91E00E94C5
:101760002D0ACC2309F4AACF8DE00E94EC1361E08E
:10177000892B09F060E08DE0DF91CF911F91FF9000
:10178000EF900C94BE138D3F08F4B7CF8E3F08F056
:10179000B4CF7ECF22E030E03093E6012093E50124
:1017A000C13811F0C03B31F422E030E03093E60163
:1017B0002093E5012091E7013091E8014091E50196
:1017C0005091E6014150510924173507E8F0809304
:1017D000EF01CF70CF5FC093EE018091E301809362
:1017E000F0011092F10181E090E0909374028093F7
:1017F00073021092E8011092E7011092E601109234
:10180000E501809372028CCF2F5F3F4F3093E80148
:101810002093E70153CFC7FF0CC0CD3F08F04DC068
:10182000C83F08F04DC0C03F09F459C0C73F09F494
:1018300056C02091E201FC01ED54FE4F203F19F00B
:10184000273F09F075C0C7AFE090E501F090E601D1
:101850009701215031098217930708F4A9C0D0914C
:10186000E201D03F19F0D73F09F064C0C091710286
:1018700080EF809371028093EF0180E88093F00104
:101880001092F1011092EE0180E890E090937402C2
:101890008093730281E08093720283EB91E00E9457
:1018A000F70887EF8093F201C093F30182E090E0A4
:1018B0009093E8018093E70101CFCE3F08F4B9CFC0
:1018C000C093EF011092F0011092F1011092EE011D
:1018D00081E090E0909374028093730292CF209104
:1018E000F201203F19F0273F09F0D2CE9C012F5F73
:1018F0003F4F8D549E4FFC01C7AF80EF8093EF01A7
:101900002093F0013093F1011092EE0130937402B4
:101910002093730281E0809372021092E80110928A
:10192000E7011092E6011092E5011092E001F8CE75
:10193000C7A78ACF8D2F0E94C609C82F8093EF01B9
:101940000E94B709882349F18D2F8F708F5F809394
:10195000EE018091E3018093F0018091E401F3E0D6
:10196000EF16F10409F080E08093F1011092E80194
:101970001092E7011092E6011092E50181E0809358
:101980007202C03B39F060F4C03921F0C03A11F066
:10199000C03859F6D093E001C3CE1092EE01D9CFF2
:1019A000C03DC1F3C03EB1F3C03C09F0BECFF2CFA1
:1019B00001967ECFCF93DF9389E793E090938402E3
:1019C00080938302E3EBF1E0118210821382128292
:1019D000158214821782168211861086138612864B
:1019E0001586148617861686118A108A138A128A1B
:1019F000158A148A178A168A118E108E138E128EEB
:101A0000158E148E178E168E11A210A213A212A27A
:101A100015A214A217A216A211A610A683E892E09E
:101A200093A782A714A615A616A613AA12AA15AAEA
:101A300014AA8FEF9FEF97AB86AB91AF80AF83E097
:101A40008093ED0113AE14AE15AE16AE1092720275
:101A5000E2EFF1E080E8DF011D928A95E9F710924C
:101A6000750210927602109277021092780210920C
:101A7000790210927A0210927B0210927C021092EC
:101A80007D0210927E0210927F02109280021092CC
:101A9000810210928202C7EAD1E01B821A8288EE8C
:101AA00093E0A0E0B0E08C839D83AE83BF8382E5AA
:101AB00091E09983888320E04CE06BE088E891E036
:101AC0000E943F0FEDE7F1E08AE090E09183808390
:101AD000D383C283918780871286DF91CF91089547
:101AE00088E891E00E94E40E82E591E09093A801DD
:101AF0008093A7010C94691290E080E008952091F2
:101B0000CA023091CB0228173907B9F490918802A4
:101B100080918902981789F0E0918802F0E0E657F9
:101B2000FD4F80812091880230E02F5F3F4F2F735F
:101B300033272093880290E008958FEF9FEF089558
:101B4000EF92FF920F931F93CF93DF93DC015C968C
:101B5000ED90FC905D97E114F10479F481E090E060
:101B600013969C938E93129790E080E0DF91CF9133
:101B70001F910F91FF90EF9008955196ED91FC9178
:101B8000529750968C915097982F90950FB75E96DC
:101B90002C915E97122F127021FD6095F894208190
:101BA000112319F1282B2083E7012197F1F728E071
:101BB000462F50E0308160FF1AC0382B3083E70198
:101BC0002197F1F7BA0175956795215089F711238F
:101BD00081F08081892380830FBF5C968D919C91D9
:101BE0000197F1F781E090E0C1CF2923DCCF3923C1
:101BF000E5CF9081892BEFCF08952091CA023091D3
:101C0000CB022817390771F49091880280918902DC
:101C1000981741F0E0918802F0E0E657FD4F80818F
:101C200090E008958FEF9FEF08952091CA023091C0
:101C3000CB022817390771F480918902209188021C
:101C400090E0805C9F4F821B910960E470E00E94ED
:101C50005417089590E080E00895E091CA02F09151
:101C6000CB02E817F90769F4A389B4899C918589A7
:101C7000809589238C931092CB021092CA0281E046
:101C8000089580E00895CF93DF93EC018A8D9B8DBA
:101C9000892B01F18091CA029091CB028C179D078C
:101CA000C9F0009711F00E942D0E8E8D8E7F8E8FC1
:101CB0001092890210928802D093CB02C093CA027C
:101CC000EB89FC8980819D89892B808381E0DF916C
:101CD000CF91089580E0FBCF1F920F920FB60F9225
:101CE00011242F933F934F935F936F937F938F9321
:101CF0009F93AF93BF93EF93FF93E091CA02F0914C
:101D0000CB02309749F0A685B7858585968D91FFE2
:101D100014C09C918923A1F4FF91EF91BF91AF91E1
:101D20009F918F917F916F915F914F913F912F91F3
:101D30000F900FBE0F901F9018959C91892361F70B
:101D4000A389B4899C918589809589238C93868900
:101D500097890197F1F7608D718DA685B7855585B7
:101D600038E020E0CB010197F1F7822F90E09595C4
:101D70008795282F4C91452309F02068315091F721
:101D8000868D81FD20958091890290E001968F7368
:101D9000992730918802381799F0A0918902B0E014
:101DA000A657BD4F2C9380938902828D938D019706
:101DB000F1F7A389B4898C919589892B8C93ACCF49
:101DC000868D8160868FF1CF20E431E0FC01318384
:101DD00020830C942D0E1F93CF93DF93EC01162FCD
:101DE0006E8D6695617081E06827812F0E94BE1319
:101DF00061E0812F0E948213812F110F990BFC014A
:101E0000EB5BF94FE491E88BFC01E45AF94FE49164
:101E1000F0E0EE0FFF1FE358F94F859194919A8BF4
:101E2000898BDF91CF911F9108951F93CF93DF93FB
:101E3000EC01162F60E0812F0E9482138E8D81FDB0
:101E400004C061E0812F0E94BE131C87812F110FF7
:101E5000990BFC01EB5BF94FE491ED87FC01E45A2F
:101E6000F94FE491F0E0EE0FFF1FED58F94F859127
:101E700094919F878E87DF91CF911F9108951F9333
:101E8000CF93DF93EC01162F1B821A8288EE93E02A
:101E9000A0E0B0E08C839D83AE83BF8380E491E0BB
:101EA000998388831F8A1E8A198E188E1B8E1A8E1C
:101EB0001D8E1C8E8E8D8E7F20FB81F98E8F642F60
:101EC000CE010E94EB0E612FCE01DF91CF911F91C9
:101ED0000C94150FCF93DF93EC019A01AB011B8E8D
:101EE0001A8E198E188E1F8A1E8A60E079E08DE3A3
:101EF00090E00E948A17F901C90103972430310547
:101F000010F481E090E09D8F8C8F6C85673108F034
:101F100054C0C901969587958431910508F452C043
:101F200043979F8B8E8BC9010597369710F481E0FC
:101F300090E0998F888FC901880F991F280F391F4A
:101F400036952795369527952D30310508F43DC0F7
:101F50002C5031093B8F2A8F9091680084E06830C3
:101F600054F081E06E303CF082E0643124F081E096
:101F7000663109F480E0892B809368009C852DE60A
:101F800030E0983064F09E301CF1943134F096319A
:101F9000FCF030E020E0963111F42CE630E03C8B90
:101FA0002B8B9830C4F481E001C0880F9A95EAF732
:101FB0008D8B8C8D9D8D0197F1F7CE01DF91CF91A7
:101FC0000C94430E81E090E0ACCF21E030E0C2CF32
:101FD0002BE630E0E4CF9E3014F49850E4CF9631F5
:101FE00014F49E50E0CF80E4963111F380E0E0CF0E
:101FF0008091660390916503891769F09F5F903522
:1020000008F090E0E92FF0E0EB5EFC4F80819093C8
:10201000650390E008958FEF9FEF08958091660328
:10202000E09165038E1751F0EF5FE03508F0E0E0D6
:10203000F0E0EB5EFC4F808190E008958FEF9FEF22
:1020400008955091660340916503852F90E0242FF9
:1020500030E0541718F0821B930B0895805B9F4F5C
:10206000FACF9B01AC01213668E1360741055105E5
:1020700040F410926F001092800081E880938100FC
:1020800018C0DC01C90173E0B695A79597958795AF
:102090007A95D1F7813668E19607A105B105C8F5B3
:1020A00010926F001092800022E8209381009C0122
:1020B000AD0130936F0320936E03A5E2B0E00E9460
:1020C000AF1722E096958795779567952A95D1F772
:1020D000709368036093670362E088E00E94821354
:1020E00061E089E00E94BE1361E089E00E948213F2
:1020F00010926D0310926603109265031092140300
:10210000109211031092100380E286BB80936F003F
:102110000895232F342F452F5527213688E138077E
:1021200041055105A8F710926F001092800084E8D5
:10213000A5CF909111039F5F943408F090E0209117
:1021400010032917E1F32FB7F894309114033323C8
:1021500049F0E92FF0E0E453FD4F808390931103A1
:102160002FBF089591E0909314038093130310926E
:10217000120382E086BB80916F00826080936F00C3
:10218000809180008F7B80688093800080918400A4
:102190009091850040969093890080938800E0CFCD
:1021A000862F0E94991081E090E008951F920F926F
:1021B0000FB60F9211242F933F934F935F936F931A
:1021C0007F938F939F93EF93FF93209114036091DC
:1021D0001303809188009091890040916E03509183
:1021E0006F03309112032A3070F5840F951F762FFC
:1021F0007170293009F471E066952F5F371799F3F4
:10220000309180007723E1F0306C30938000909320
:1022100089008093880070931203609313032093C6
:102220001403FF91EF919F918F917F916F915F9137
:102230004F913F912F910F900FBE0F901F901895C7
:102240003F7B3068E2CF30911103E09110033E13E1
:1022500019C02A3051F42BE020931403840F951FEA
:102260009093890080938800DCCF109214038091B2
:1022700080008F738093800080916F008D7F8093AA
:102280006F00CFCFEF5FE43408F0E0E0E09310039D
:10229000F0E0E453FD4F30813093130310921203AA
:1022A000309180003F7B3068309380002A3071F499
:1022B00020916E0330916F03820F931F90938900DA
:1022C0008093880081E080931403ABCF80918400D9
:1022D000909185004096F2CF809114038111FCCF3C
:1022E00008950C946C111F920F920FB60F92112447
:1022F0002F933F934F935F936F937F938F939F930E
:10230000AF93BF93EF93FF938091860090918700E6
:1023100040916B03209181004423F1F12F7B2093A6
:10232000810010926B0330916D0331113CC041115B
:1023300022C02091670330916803280F391F309322
:102340008B0020938A0024E026BB20916F0024603C
:1023500020936F0020916E0330916F03820F931FC3
:1023600036952795280F391F30936A032093690308
:1023700081E080936D03FF91EF91BF91AF919F91A9
:102380008F917F916F915F914F913F912F910F901E
:102390000FBE0F901F90189520642093810020E8B5
:1023A00020936B03C0CF4091690350916A03609101
:1023B0006E0370916F03DB01A095B09520916C03C3
:1023C000E0916B03841B950BA817B90768F126955C
:1023D0002E2B460F571F3F5F861B970B3930A0F3FC
:1023E00020936C0380916F008B7F80936F008091AE
:1023F00066038F5F803508F080E090916503981741
:1024000049F0E82FF0E090916C03EB5EFC4F908375
:1024100080936603809181008F7B8093810010926E
:102420006B0310926D03A7CF20936C0350936A0344
:102430004093690330936D039ECF1F920F920FB6A6
:102440000F9211242F938F939F93EF93FF9380917B
:102450006F008B7F80936F00809181008F7B8093D2
:10246000810080916D0320916B03205890916C0343
:10247000893020F49695922B8F5FFACF90936C035E
:10248000809166038F5F803508F080E020916503BE
:10249000281739F0E82FF0E0EB5EFC4F9083809333
:1024A000660310926D03809181008F7B8093810081
:1024B00010926B03FF91EF919F918F912F910F904D
:1024C0000FBE0F901F90189580916503809366034F
:1024D0000895CF93DF93CFE6D0E088818B7F888308
:1024E00088818F7D88830E9464120E946C1188818C
:1024F0008D7F8883DF91CF9108951F920F920FB641
:102500000F9211242F933F938F939F93AF93BF9379
:102510008091750390917603A0917703B091780331
:102520003091740323E0230F2D3768F126E8230F41
:102530000296A11DB11D209374038093750390939F
:102540007603A0937703B093780380917003909102
:102550007103A0917203B09173030196A11DB11D87
:102560008093700390937103A0937203B0937303ED
:10257000BF91AF919F918F913F912F910F900FBE7F
:102580000F901F9018950196A11DB11DD4CF2FB7A4
:10259000F894609175037091760380917703909120
:1025A00078032FBF08953FB7F894809170039091FE
:1025B0007103A0917203B091730326B5A89B05C067
:1025C0002F3F19F00196A11DB11D3FBFBA2FA92FB2
:1025D000982F8827BC01CD01620F711D811D911DAF
:1025E00042E0660F771F881F991F4A95D1F708951B
:1025F0008F929F92AF92BF92CF92DF92EF92FF9213
:102600006B017C010E94D3124B015C01C114D10407
:10261000E104F104E9F00E9453170E94D3126819F3
:1026200079098A099B09683E73408105910570F319
:1026300021E0C21AD108E108F10888EE880E83E093
:10264000981EA11CB11CC114D104E104F10429F7A6
:10265000FF90EF90DF90CF90BF90AF909F908F90C2
:102660000895789484B5836084BD85B5836085BD05
:10267000EEE6F0E0808181608083E1E8F0E082E0D6
:102680008083808181608083E0E8F0E080818160E8
:102690008083E1EBF0E0808184608083E0EBF0E018
:1026A00080818160808387E880937A001092C100E6
:1026B0000895843081F028F48230E9F08330F9F015
:1026C0000895883071F0893091F08530B9F48091A7
:1026D00080008F7D03C0809180008F778093800081
:1026E00008958091B0008F778093B0000895809115
:1026F000B0008F7DF9CF84B58F7784BD089584B500
:102700008F7DFBCFCF93DF9390E0FC01EB5BF94F24
:102710002491845A994FFC0184918823C9F090E058
:10272000880F991FFC01E957F94FA591B491FC015D
:10273000E358F94FC591D49161110DC09FB7F8943A
:102740008C91209582238C938881282328839FBF96
:10275000DF91CF910895623051F49FB7F8943C9186
:10276000822F809583238C93E8812E2BEFCF8FB718
:10277000F894EC912E2B2C938FBFEACF1F93CF931D
:10278000DF93282F30E0F901E25DF94F8491F901E0
:10279000EB5BF94FD491F901E45AF94FC491CC2382
:1027A000A9F0162F81110E945913EC2FF0E0EE0FC3
:1027B000FF1FE358F94FA591B4918FB7F894EC91AE
:1027C000111108C0D095DE23DC938FBFDF91CF912C
:1027D0001F910895DE2BF8CFCF93DF93282F30E0A1
:1027E000F901E25DF94F8491F901EB5BF94FD49166
:1027F000F901E45AF94FC491CC23A1F081110E9450
:102800005913EC2FF0E0EE0FFF1FED58F94FA59193
:10281000B491EC91ED2381E090E009F480E0DF9148
:10282000CF91089580E090E0FACFFC01918D228D48
:10283000892F90E0805C9F4F821B91098F739927AD
:102840000895FC01918D828D981731F0828DE80FEB
:10285000F11D858D90E008958FEF9FEF0895FC01A5
:10286000918D828D981761F0A28DAE0FBF2FB11D93
:102870005D968C91928D9F5F9F73928F90E00895EB
:102880008FEF9FEF0895FC01538D448D252F30E08D
:10289000842F90E0821B930B541710F0CF9608956D
:1028A0000197089588E995E1892B49F080E090E04F
:1028B000892B29F00E94981581110C94000008952D
:1028C000FC01A48DA80FB92FB11DA35ABF4F2C91A5
:1028D000848D90E001968F739927848FA689B7899C
:1028E0002C93A089B1898C9180648C93938D848D75
:1028F000981306C00288F389E02D80818F7D808344
:102900000895CF93DF93EC01888D8823B9F0AA89CD
:10291000BB89E889F9898C9185FD03C0808186FD9A
:102920000DC00FB607FCF7CF8C9185FFF2CF8081E9
:1029300085FFEDCFCE010E946014E9CFDF91CF91EA
:102940000895EF92FF920F931F93CF93DF93EC01C3
:1029500081E0888F9B8D8C8D981316C0E889F9894A
:10296000808185FF11C0EE89FF896083E889F9893C
:1029700080818064808381E090E0DF91CF911F911E
:102980000F91FF90EF900895F62E0B8D10E00F5FE2
:102990001F4F0F731127E02E8C8D8E110CC00FB6B8
:1029A00007FCFACFE889F989808185FFF5CFCE0150
:1029B0000E946014F1CFEB8DEC0FFD2FF11DE35A57
:1029C000FF4FF0820B8FEA89FB8980818062D2CF32
:1029D000CF92DF92EF92FF921F93CF93DF93EC01A0
:1029E0006A017B01122FE889F98982E08083C11492
:1029F00081EED806E104F104A1F060E079E08DE316
:102A000090E0A70196010E94681721503109410901
:102A100051095695479537952795211580E1380737
:102A200098F0E889F989108260E874E88EE190E016
:102A3000A70196010E9468172150310941095109E7
:102A40005695479537952795EC85FD853083EE851E
:102A5000FF852083188EEC89FD891083EA89FB8924
:102A6000808188698083EA89FB8980818F7D80836A
:102A7000DF91CF911F91FF90EF90DF90CF9008955D
:102A80001F920F920FB60F9211242F938F939F9343
:102A9000EF93FF93E0918903F0918A038081E091A5
:102AA0008F03F091900382FD1BC09081809192036F
:102AB0008F5F8F7320919303821741F0E09192030F
:102AC000F0E0E758FC4F958F80939203FF91EF91D0
:102AD0009F918F912F910F900FBE0F901F9018957F
:102AE0008081F4CF1F920F920FB60F9211242F9373
:102AF0003F934F935F936F937F938F939F93AF9386
:102B0000BF93EF93FF9389E793E00E946014FF91D6
:102B1000EF91BF91AF919F918F917F916F915F9155
:102B20004F913F912F910F900FBE0F901F901895CE
:102B300089E793E00E94151421E0892B09F420E035
:102B4000822F0895E9E7F3E01382128288EE93E082
:102B5000A0E0B0E084839583A683B78384E691E008
:102B60009183808385EC90E09587848784EC90E066
:102B70009787868780EC90E0918B808B81EC90E04A
:102B8000938B828B82EC90E0958B848B86EC90E02B
:102B9000978B868B118E128E138E148E0895AF92A2
:102BA000BF92CF92DF92EF92FF920F931F93CF933A
:102BB000DF936C017B018B01040F151FEB015E019C
:102BC000AE18BF08C017D10759F06991D601ED9131
:102BD000FC910190F081E02DC6010995892B79F7D0
:102BE000C501DF91CF911F910F91FF90EF90DF9082
:102BF000CF90BF90AF900895FB0101900020E9F7BE
:102C00003197AF01461B570BDC01ED91FC9102801F
:102C1000F381E02D0994EF92FF920F931F93CF93CE
:102C2000DF938C017B01D0E0C0E0F701EC0FFD1FCA
:102C30006491662361F0D801ED91FC910190F081DF
:102C4000E02DC8010995892B11F02196EECFCE0118
:102C5000DF91CF911F910F91FF90EF90089562E760
:102C600071E00C94FC150F931F93CF93DF93EC014D
:102C70000E940B168C01CE010E942F16800F911F0F
:102C8000DF91CF911F910F9108950F931F93CF93D1
:102C9000DF938C01D0E0C0E06115710519F00E944E
:102CA000FC15EC01C8010E942F168C0F9D1FDF91AF
:102CB000CF911F910F9108958F929F92AF92BF92E3
:102CC000EF92FF920F931F93CF93DF93CDB7DEB7B1
:102CD000A1970FB6F894DEBF0FBECDBF7C01FA01FD
:102CE000CB0119A2223008F42AE08E010F5D1F4F9C
:102CF000822E912CB12CA12CBF01A50194010E9420
:102D00006817F901CA016A300CF5605DD8016E934D
:102D10008D01232B242B252B79F790E080E0109751
:102D200021F0BD01C7010E94FC15A1960FB6F894D1
:102D3000DEBF0FBECDBFDF91CF911F910F91FF90EE
:102D4000EF90BF90AF909F908F900895695CDECF19
:102D50002115310541F4DC01ED91FC910190F081E8
:102D6000E02D642F09940C945C169A01462F50E0D4
:102D700070E060E00C94A8160F931F93CF93DF933D
:102D8000EC010E94B5168C01CE010E942F16800F17
:102D9000911FDF91CF911F910F9108959A01AB017F
:102DA00070E060E00C94A8160F931F93CF93DF930D
:102DB000EC010E94CE168C01CE010E942F16800FCE
:102DC000911FDF91CF911F910F9108950F931F9342
:102DD000CF93DF93EC010E94C712688779878A87B7
:102DE0009B87E881F9810284F385E02DCE01099566
:102DF00097FF15C00E94C712088519852A853B8553
:102E0000601B710B820B930B0C811D812E813F8106
:102E1000601771078207930720F38FEF9FEFDF9111
:102E2000CF911F910F910895FC01448355836683D0
:102E300077830895AF92BF92CF92DF92EF92FF9285
:102E40000F931F93CF93DF935C017B018B01040FE2
:102E5000151FEB016E01CE18DF08C017D10739F03E
:102E6000C5010E94E61697FD02C08993F3CFC60103
:102E7000DF91CF911F910F91FF90EF90DF90CF9056
:102E8000BF90AF90089508950E9431130E94431798
:102E90000E94DC07C2E5D4E10E94D80A2097E1F342
:102EA0000E945214F9CF089597FB072E16F4009450
:102EB00007D077FD09D00E94BA1707FC05D03EF471
:102EC000909581959F4F0895709561957F4F0895D6
:102ED000A1E21A2EAA1BBB1BFD010DC0AA1FBB1F1E
:102EE000EE1FFF1FA217B307E407F50720F0A21B90
:102EF000B30BE40BF50B661F771F881F991F1A94FD
:102F000069F760957095809590959B01AC01BD0126
:102F1000CF010895052E97FB1EF400940E94A1177F
:102F200057FD07D00E94681707FC03D04EF40C949D
:102F3000A11750954095309521953F4F4F4F5F4FCA
:102F4000089590958095709561957F4F8F4F9F4F15
:102F50000895EE0FFF1F0590F491E02D09940E9453
:102F6000CE17A59F900DB49F900DA49F800D911D2D
:102F700011240895AA1BBB1B51E107C0AA1FBB1F48
:102F8000A617B70710F0A61BB70B881F991F5A95F5
:102F9000A9F780959095BC01CD010895A29FB0013D
:102FA000B39FC001A39F700D811D1124911DB29F7D
:102FB000700D811D1124911D089513E0CBE4D3E021
:102FC00004C0FE010E94A9172196CC34D107C9F78D
:102FD000F894FFCF146F6E6C696E6500696E73654F
:102FE000727465640072656D6F766564002E0042D0
:102FF00075696C74206F6E2041707220203720320A
:103000003032322061742030303A35313A3130007C
:1030100000000000A00DCF157C0DFC0D150E7F0DDE
:10302000FD0D00000000D010CF157C0D7111211096
:10303000F80F0E1000000000A114CF1543148114E6
:0A30400015142F1421140D0A0000CE
:107E000001C0B7C0112484B790E89093610010922C
:107E10006100882361F0982F9A70923041F081FFC1
:107E200002C097EF94BF282E80E0C6D0E9C085E05D
:107E30008093810082E08093C00088E18093C1003C
:107E400080E18093C40086E08093C2008EE0B4D0CD
:107E5000259A84E020E33CEF91E030938500209365
:107E6000840096BBB09BFECF1D9AA8954091C000A0
:107E700047FD02C0815089F793D0813479F490D0C6
:107E8000182FA0D0123811F480E004C088E0113817
:107E900009F083E07ED080E17CD0EECF823419F40B
:107EA00084E198D0F8CF853411F485E0FACF853598
:107EB00041F476D0C82F74D0D82FCC0FDD1F82D0DC
:107EC000EACF863519F484E085D0DECF843691F58B
:107ED00067D066D0F82E64D0D82E00E011E05801AB
:107EE0008FEFA81AB80A5CD0F80180838501FA10D8
:107EF000F6CF68D0F5E4DF1201C0FFCF50E040E0DC
:107F000063E0CE0136D08E01E0E0F1E06F0182E067
:107F1000C80ED11C4081518161E0C8012AD00E5F9A
:107F20001F4FF601FC10F2CF50E040E065E0CE01BB
:107F300020D0B1CF843771F433D032D0F82E30D086
:107F400041D08E01F80185918F0123D0FA94F11070
:107F5000F9CFA1CF853739F435D08EE11AD085E934
:107F600018D08FE097CF813509F0A9CF88E024D0D1
:107F7000A6CFFC010A0167BFE895112407B600FCF3
:107F8000FDCF667029F0452B19F481E187BFE89594
:107F900008959091C00095FFFCCF8093C60008958E
:107FA0008091C00087FFFCCF8091C00084FD01C09C
:107FB000A8958091C6000895E0E6F0E098E19083EE
:107FC00080830895EDDF803219F088E0F5DFFFCF80
:107FD00084E1DFCFCF93C82FE3DFC150E9F7CF9122
:027FE000F1CFDF
:027FFE00000879
:00000001FF
