:100000000C9469000C9491000C9491000C9470086D
:100010000C9470080C9470080C9491000C9491004E
:100020000C9491000C9491000C94630A0C94C609F2
:100030000C940D0B0C9491000C9491000C94910075
:100040000C946D0B0C9491000C94300E0C94620E79
:100050000C9491000C9491000C9491000C949100DC
:100060000C9491000C949100000000090003020020
:10007000000405080000000000000000000000016E
:10008000020408102040800102040810200102042C
:100090000810204080400404040404040404020204
:1000A000020202020303030303030202030000002F
:1000B0000023002600290000000000250028002B56
:1000C0000000000000240027002A0000D507920E3F
:1000D000650811241FBECFEFD8E0DEBFCDBF11E011
:1000E000A0E0B1E0E2E5FFE102C005900D92A6328A
:1000F000B107D9F723E0A6E2B1E001C01D92A03A12
:10010000B207E1F710E0C8E6D0E004C02197FE0195
:100110000E947C0FC636D107C9F70E944A0F0C9483
:100120009C0F0C940000FC01208131812C3DF5E0F6
:100130003F0728F4265F3F4FFC01318320838DE089
:100140000E94DC0C61E0892B09F060E08DE00C94EA
:10015000AE0CFC0131962FEF3FEF0796E817F90739
:1001600021F04191241B3109F9CFC901019608956D
:10017000CF93DF93EC010E94A9009F838887DF91D2
:10018000CF910895CF93DF93EC010E94A9002F81B6
:10019000388532272327322741E02817390709F00D
:1001A00040E0842FDF91CF910895EF92FF920F935B
:1001B0001F93CF93DF93CDB7DEB72A970FB6F8948E
:1001C000DEBF0FBECDBF8C01F62EEE24E39441E0DE
:1001D00050E0BE016F5F7F4FD80112968D919C91C8
:1001E0000E94200F8130D9F589818E3781F749E04F
:1001F00050E0BE016E5F7F4FF801828193810E94C3
:10020000200F8F5F8A3058F18A818F3F41F58B81B3
:10021000863029F58A858F3E11F5CE0101960E9420
:10022000C2008823E1F09C812E813F813227232761
:100230003227FF2051F1F91245C0C9012A960FB6A5
:10024000F894DEBF0FBECDBFDF91CF911F910F910C
:10025000FF90EF900895C8010E94930030C08091F4
:100260000F029091100201969093100280930F025A
:10027000F80182819381DC01ED91FC910084F1858C
:10028000E02D0995892B51F41AC09F3321F048F4D1
:100290009A539230A0F4D8011A96EC92F11097CFAD
:1002A0000EC0903461F480910F029091100201967B
:1002B0009093100280930F022330310561F230E0F9
:1002C00020E0BBCF9F3339F320F49A53923018F3D8
:1002D0007ECF903409F07BCFE6CFCF93DF93EC0154
:1002E0008A819B81DC01ED91FC910084F185E02DF8
:1002F00009950A972CF060E0CE010E94D500F0CF5E
:10030000DF91CF9108958F929F92AF92BF92EF921B
:10031000FF920F931F93CF93DF93CDB7DEB72A974A
:100320000FB6F894DEBF0FBECDBF8C01790186E019
:10033000FE013596DF01982F1D929A95E9F79EE709
:1003400099839FEF9A838B838FEE8A876C835E837A
:100350004F83CE0101960E94B800D8018D919C91E7
:10036000E80EF91E0E94B70BF80184809580A680E4
:10037000B780AB01BC01481959096A097B0980851E
:100380009185B0E0A0E0481759076A077B0750F451
:10039000C8010E946D0161E070E080E090E00E9481
:1003A000E80BE0CFF186E08682819381DC01ED915C
:1003B000FC910280F381E02D4AE050E0BE016F5FC6
:1003C0007F4F09950E94B70BF8016483758386837C
:1003D00097832A960FB6F894DEBF0FBECDBFDF918C
:1003E000CF911F910F91FF90EF90BF90AF909F9092
:1003F0008F900895462F50E030E020E066E00C94A6
:10040000830130E020E050E040E066E10C9483019D
:1004100086E291E00E94010284E080931102089537
:10042000CF93823049F4611107C0C82F86E291E072
:100430000E940102C0931102CF9108958F929F9262
:10044000AF92BF92CF92DF92EF92FF926C010E9427
:10045000B70B4B015C01F12CE12C0E94B70B681922
:1004600079098A099B096C157D058E059F0558F44D
:1004700086E291E00E946D0161E070E080E090E032
:100480000E94E80BEACFFF90EF90DF90CF90BF90F3
:10049000AF909F908F9008951F93CF93DF9390918B
:1004A0001102933009F110910001C82FD0E01230F1
:1004B00050F01150612F86E291E00E94FA01CE01C6
:1004C0000E941E02F4CF86E291E00E94010282E3C4
:1004D00090E00E941E026091000186E291E0DF91AF
:1004E000CF911F910C94FA01DF91CF911F91089544
:1004F0001F93CF93DF93C62FD42F603111F06F3647
:1005000071F4DD2381F14D2F50E030E020E062E115
:1005100086E291E00E94830181E0809311028FEFD7
:100520008C0F823088F41D2F16951695809100014E
:10053000811739F0612F86E291E00E94FA01109351
:10054000000185E080931102C350C23040F48D2F2A
:10055000869586950E944C0283E080931102DF917C
:10056000CF911F91089586E291E00E94010282E0FE
:10057000D4CFCF93C82F8F3061F4683141F4842FEA
:10058000869586950E944C0283E080931102CF915C
:1005900008958130E1F7462F50E030E020E062E13D
:1005A00086E291E00E948301C0931102F0CFCF93C5
:1005B000C0E01092100210920F0286E291E00E94B9
:1005C000010230E020E050E040E068E186E291E0A6
:1005D0000E9483018091280190912901DC01ED9115
:1005E000FC910084F185E02D09951816190634F464
:1005F00060E086E291E00E94D500ECCF30E020E0A0
:1006000050E040E062E486E291E00E94830162E40F
:1006100086E291E00E94D500892B31F080910F0293
:1006200090911002892B79F08091260190912701F9
:100630008C3DB5E09B0708F0BBCF0A96909327014D
:1006400080932601B5CFCF5FCA3008F4B2CF86E2DF
:1006500091E0CF910C940102CF93DF9361E08DE0A4
:100660000E94720C63E876E080E090E00E9421092D
:1006700048EE53E060E070E08091280190912901FC
:100680000E941A0F0E94B70B60932A0170932B01EE
:1006900080932C0190932D018EE190E0909327019F
:1006A0008093260128E532E050E040E06CE086E2ED
:1006B00091E00E9483011092300184EF91E00E944A
:1006C0001E0260E086E291E00E94FA0128EC30E030
:1006D00042E050E069E086E291E00E948301C4E1DB
:1006E000D0E084E690E00E941E02809130018111EA
:1006F00002C02197B1F70E94D7026091000186E203
:1007000091E00E94FA0130E020E045E050E067E02F
:1007100086E291E00E94830130E020E048EE53E061
:1007200062E186E291E00E94830188E792E0909383
:1007300046018093450188E092E0909366018093A2
:10074000650189EB92E0909348018093470180E135
:1007500092E09093420180934101E0916701F09112
:10076000680126E042E15AE760E070E08081918113
:100770000E94D80D1092690110926B0110926A01CB
:1007800010927201109271011092700110926F011B
:100790008FEF9FEF90937401809373019093760194
:1007A000809375010E94B70B6093FF017093000264
:1007B00080930102909302021092FC011092790141
:1007C0001092780110927A0110927B011092FE0132
:1007D0001092FD0180917701817082608160809329
:1007E0007701DF91CF910895CF93DF93EC01E881FA
:1007F000F981309711F0CB9609958CAD823F09F4C1
:100800009EC090F5803C09F486C090F4803909F4CC
:1008100054C030F4803809F445C0DF91CF91089579
:10082000803A09F475C0803BC1F7EA85FB853CC07E
:10083000803E09F459C058F4803D79F7EE85FF8574
:10084000309759F36DAD8BADDF91CF910994803F17
:1008500009F464C0813F09F7EC89FD893097E9F21A
:100860008DADDF91CF9109948A3F91F180F4863F5D
:1008700009F477C028F4833F81F6E88DF98DEECF37
:10088000883FF1F0893F49F6E8A1F9A11BC08C3FF0
:1008900029F108F18E3F29F18F3F09F0BECFE8A57D
:1008A000F9A510C0EC81FD81309709F4B6CF4EADAB
:1008B0006DAD8BADDF91CF910994EE81FF81F4CFC7
:1008C000EC8DFD8D309709F4A8CFDF91CF9109947D
:1008D000EE8DFF8DF7CFEAA1FBA1F4CFECA1FDA136
:1008E000F1CFEEA1FFA1EECFE889F989309709F4A5
:1008F00094CF6EAD20E8629FB001112460787F73C1
:100900008DAD8F77682B70528BADDF91CF910994AD
:10091000E885F985C9CFEC85FD8592CFEA89FB8909
:10092000309709F47ACF6DAD7EAD6138710510F066
:1009300060E870E0CE01CF96DF91CF910994EE8907
:10094000FF89309709F469CF8EAD20E8829FC001FE
:10095000112480789F732DAD2F77822BDF91CF915B
:100960000994EA8DFB8DAECF982F9F7E282F2F7C88
:10097000203839F0803E29F081E0903C19F080E089
:10098000089581E0089587FF0AC09CE0980F923097
:1009900030F08D3F21F0803F18F4807F089580E093
:1009A0000895DC018D919C91DC01ED91FC91019009
:1009B000F081E02D09946D3F48F46A3F10F4683FE0
:1009C00039F4FC01808191810C94D1046E3FC8F709
:1009D0000895EF92FF920F931F93CF93DF93613EA1
:1009E00038F50150003178F567FF2DC0D22F142F54
:1009F000C62F7C01602F6C2BFC0182A593A50E9461
:100A0000D104612F6F77F70182A593A50E94D104CD
:100A1000CF7EC03CC1F06D2F6F77F70182A593A503
:100A2000DF91CF911F910F91FF90EF900C94D10423
:100A3000683F48F08A96DF91CF911F910F91FF9008
:100A4000EF900C94DB04DF91CF911F910F91FF90F9
:100A5000EF900895EF92FF920F931F93CF93DF9340
:100A6000EC019AAD292F217090FF1EC0892F8E7F37
:100A7000D9F0362F6CAD80E8860F8136F8F40BADD7
:100A8000031719F021E0311120E09695923051F0D2
:100A9000933089F0913041F42EAD4DADCE010E94DE
:100AA000E90402C02111F8CFDF91CF911F910F917E
:100AB000FF90EF9008952111F7CFEECFE0E1E60F20
:100AC000E03190F7F0E0E959FA4F0C947C0F810582
:100AD000C505AC059A0554055405770554057705F9
:100AE0005405770577057705540577057705CE0119
:100AF0008A96DF91CF911F910F91FF90EF900C9408
:100B0000DB047E018FE3E80EF11C0DAD1EAD013854
:100B1000110510F000E810E00E0D1F1DE016F106A3
:100B200009F4C2CFF70161917F018AA59BA50E94BC
:100B3000D104F4CF1DAD63EF8AA59BA50E94D1041B
:100B4000612F6F778AA59BA5DF91CF911F910F91A0
:100B5000FF90EF900C94D1040EADF0E80F9F800150
:100B600011248DAD082B62EF8AA59BA50E94D104AC
:100B7000602F6F778AA59BA50E94D104000F012FDB
:100B8000001F110B1195602FDCCF6DAD80E1689FC8
:100B9000B001112460771EAD1F70162B61EF8AA57E
:100BA0009BA50E94D104612FCDCFEF92FF921F939E
:100BB000CF93DF9386E291E00E946D01109169016D
:100BC000113108F076C0E0916701F09168018081F1
:100BD0009181DC01ED91FC910084F185E02D099576
:100BE000892B09F466C080910C028E7F80930C02E1
:100BF000E0916701F091680180819181DC01ED91C4
:100C0000FC910284F385E02D0995C82F8D3F09F4EE
:100C100050C08091710190917201009709F0F6C067
:100C2000C0936C01D0916A018D2F0E94C3040E9471
:100C3000B404882361F0C7FD0AC0D0936C01C0934F
:100C40006D0181E090E09093720180937101C091F9
:100C50006C018C2F0E94C304813F09F496C0F0F50B
:100C6000803B39F048F4803921F0803A11F0803827
:100C700051F423E030E08BC0803D09F486C0F8F4E5
:100C8000803C09F482C080910C02816080930C0248
:100C9000E0913F01F0914001309709F009951092E1
:100CA0007201109271011092700110926F011092F6
:100CB0006A01DF91CF911F91FF90EF900895803EE0
:100CC000C1F2803F01F720E830E0309370012093BB
:100CD0006F0110926A0180937C015DC0873F99F398
:100CE00008F04CC0833F09F450C018F2863F59F613
:100CF000809379011092780110927A0110927B0111
:100D000081E08093FC0110927201109271011092A7
:100D1000700110926F0180917901803939F48091CE
:100D20007B01811103C080E8809379018091790172
:100D30008058813638F480917801181719F0C0E096
:100D4000111105C08DE391E00E94F403C1E0612F11
:100D50008DE391E00E942A05CC2309F4AACF8DE00F
:100D60000E94DC0C61E0892B09F060E08DE0DF91EE
:100D7000CF911F91FF90EF900C94AE0C8D3F08F433
:100D8000B7CF8E3F08F0B4CF7ECF22E030E0309373
:100D9000700120936F01C13811F0C03B31F422E0A3
:100DA00030E03093700120936F01209171013091F8
:100DB000720140916F015091700141505109241707
:100DC0003507E8F080937901CF70CF5FC093780149
:100DD00080916D0180937A0110927B0181E090E017
:100DE0009093FE018093FD011092720110927101A7
:100DF0001092700110926F018093FC018CCF2F5FD5
:100E00003F4F309372012093710153CFC7FF0CC045
:100E1000CD3F08F04DC0C83F08F04DC0C03F09F4B9
:100E200059C0C73F09F456C020916C01FC01E35C36
:100E3000FE4F203F19F0273F09F075C0C7AFE09083
:100E40006F01F090700197012150310982179307CB
:100E500008F4A9C0D0916C01D03F19F0D73F09F038
:100E600064C0C091FB0180EF8093FB018093790106
:100E700080E880937A0110927B011092780180E8DB
:100E800090E09093FE018093FD0181E08093FC014E
:100E90008DE391E00E94F40387EF80937C01C0937F
:100EA0007D0182E090E0909372018093710101CF07
:100EB000CE3F08F4B9CFC093790110927A01109215
:100EC0007B011092780181E090E09093FE01809385
:100ED000FD0192CF20917C01203F19F0273F09F0BE
:100EE000D2CE9C012F5F3F4F835C9E4FFC01C7AF6A
:100EF00080EF8093790120937A0130937B011092E7
:100F000078013093FE012093FD0181E08093FC0184
:100F100010927201109271011092700110926F0183
:100F200010926A01F8CEC7A78ACF8D2F0E94C30402
:100F3000C82F809379010E94B404882349F18D2F32
:100F40008F708F5F8093780180916D0180937A011B
:100F500080916E01F3E0EF16F10409F080E08093D8
:100F60007B01109272011092710110927001109227
:100F70006F0181E08093FC01C03B39F060F4C0391F
:100F800021F0C03A11F0C03859F6D0936A01C3CEAF
:100F900010927801D9CFC03DC1F3C03EB1F3C03C3F
:100FA00009F0BECFF2CF01967ECF83E093E090931D
:100FB0000E0280930D02EDE3F1E0118210821382A4
:100FC0001282158214821782168211861086138669
:100FD00012861586148617861686118A108A138A39
:100FE000128A158A148A178A168A118E108E138E09
:100FF000128E158E148E178E168E11A210A213A2A9
:1010000012A215A214A217A216A211A610A68DE074
:1010100092E093A782A714A615A616A613AA12AA51
:1010200015AA14AA8FEF9FEF97AB86AB91AF80AF55
:1010300083E08093770113AE14AE15AE16AE109216
:10104000FC01ECE7F1E080E8DF011D928A95E9F709
:101050001092FF01109200021092010210920202FF
:1010600010920302109204021092050210920602DE
:1010700010920702109208021092090210920A02BE
:1010800010920B0210920C02A1E3B1E013961C9295
:101090001E92129748EE53E060E070E014964D9374
:1010A0005D936D937C93179785E091E011969C93E7
:1010B0008E93E6E2F1E08AE090E091838083B3834F
:1010C000A283918780871286089585E091E09093AE
:1010D0003201809331010C94590B90E080E0089527
:1010E0001F920F920FB60F9211242F933F934F939D
:1010F0005F936F937F938F939F93AF93BF93EF9380
:10110000FF93E0915402F0915502309749F0A68583
:10111000B7858585968D91FF14C09C918923A1F494
:10112000FF91EF91BF91AF919F918F917F916F91BF
:101130005F914F913F912F910F900FBE0F901F9095
:1011400018959C91892361F7A389B4899C9185891D
:10115000809589238C93868997890197F1F7608D13
:10116000718DA685B785558538E020E0CB010197C4
:10117000F1F7822F90E095958795282F4C91452384
:1011800009F02068315091F7868D81FD209580917E
:10119000130290E001968F7399273091120238174D
:1011A00099F0A0911302B0E0AC5EBD4F2C938093F8
:1011B0001302828D938D0197F1F7A389B4898C91E5
:1011C0009589892B8C93ACCF868D8160868FF1CFEA
:1011D0008091F0029091EF02891769F09F5F90353E
:1011E00008F090E0E92FF0E0E156FD4F8081909308
:1011F000EF0290E008958FEF9FEF08958091F00245
:10120000E091EF028E1751F0EF5FE03508F0E0E07B
:10121000F0E0E156FD4F808190E008958FEF9FEF61
:1012200008955091F0024091EF02852F90E0242F15
:1012300030E0541718F0821B930B0895805B9F4F8A
:10124000FACF9B01AC01213668E136074105510513
:1012500040F410926F001092800081E8809381002A
:1012600018C0DC01C90173E0B695A79597958795DD
:101270007A95D1F7813668E19607A105B105C8F5E1
:1012800010926F001092800022E8209381009C0150
:10129000AD013093F9022093F802A5E2B0E00E947C
:1012A000820F22E096958795779567952A95D1F7D5
:1012B0007093F2026093F10262E088E00E94720C87
:1012C00061E089E00E94AE0C61E089E00E94720C4E
:1012D0001092F7021092F0021092EF0210929E020A
:1012E00010929B0210929A0280E286BB80936F005C
:1012F0000895232F342F452F5527213688E13807AD
:1013000041055105A8F710926F001092800084E803
:10131000A5CF90919B029F5F943408F090E02091BC
:101320009A022917E1F32FB7F89430919E023323E4
:1013300049F0E92FF0E0EA5AFD4F808390939B0239
:101340002FBF089591E090939E0280939D0210928A
:101350009C0282E086BB80916F00826080936F0068
:10136000809180008F7B80688093800080918400D2
:101370009091850040969093890080938800E0CFFB
:10138000862F0E94890981E090E008951F920F92B4
:101390000FB60F9211242F933F934F935F936F9348
:1013A0007F938F939F93EF93FF9320919E02609181
:1013B0009D0280918800909189004091F80250919F
:1013C000F90230919C022A3070F5840F951F762F18
:1013D0007170293009F471E066952F5F371799F322
:1013E000309180007723E1F0306C3093800090934F
:1013F00089008093880070939C0260939D022093E3
:101400009E02FF91EF919F918F917F916F915F91DC
:101410004F913F912F910F900FBE0F901F901895F5
:101420003F7B3068E2CF30919B02E0919A023E13FD
:1014300019C02A3051F42BE020939E02840F951F8F
:101440009093890080938800DCCF10929E02809157
:1014500080008F738093800080916F008D7F8093D8
:101460006F00CFCFEF5FE43408F0E0E0E0939A0242
:10147000F0E0EA5AFD4F308130939D0210929C02B9
:10148000309180003F7B3068309380002A3071F4C7
:101490002091F8023091F902820F931F90938900F6
:1014A0008093880081E080939E02ABCF809184007E
:1014B000909185004096F2CF80919E028111FCCFE1
:1014C00008950C945C0A1F920F920FB60F9211248C
:1014D0002F933F934F935F936F937F938F939F933C
:1014E000AF93BF93EF93FF93809186009091870015
:1014F0004091F502209181004423F1F12F7B20934C
:1015000081001092F5023091F70231113CC0411177
:1015100022C02091F1023091F202280F391F30933E
:101520008B0020938A0024E026BB20916F0024606A
:1015300020936F002091F8023091F902820F931FDF
:1015400036952795280F391F3093F4022093F30224
:1015500081E08093F702FF91EF91BF91AF919F914E
:101560008F917F916F915F914F913F912F910F904C
:101570000FBE0F901F90189520642093810020E8E3
:101580002093F502C0CF4091F3025091F402609194
:10159000F8027091F902DB01A095B0952091F60256
:1015A000E091F502841B950BA817B90768F1269501
:1015B0002E2B460F571F3F5F861B970B3930A0F32A
:1015C0002093F60280916F008B7F80936F00809153
:1015D000F0028F5F803508F080E09091EF0298175D
:1015E00049F0E82FF0E09091F602E156FD4F90832C
:1015F0008093F002809181008F7B80938100109214
:10160000F5021092F702A7CF2093F6025093F4024E
:101610004093F3023093F7029ECF1F920F920FB6C2
:101620000F9211242F938F939F93EF93FF938091A9
:101630006F008B7F80936F00809181008F7B809300
:1016400081008091F7022091F50220589091F602D6
:10165000893020F49695922B8F5FFACF9093F60203
:101660008091F0028F5F803508F080E02091EF02DA
:10167000281739F0E82FF0E0E156FD4F9083809372
:10168000F0021092F702809181008F7B809381009D
:101690001092F502FF91EF919F918F912F910F90F2
:1016A0000FBE0F901F9018958091EF028093F0026B
:1016B0000895CF93DF93CFE6D0E088818B7F888336
:1016C00088818F7D88830E94540B0E945C0A8881E8
:1016D0008D7F8883DF91CF9108951F920F920FB66F
:1016E0000F9211242F933F938F939F93AF93BF93A8
:1016F0008091FF0290910003A0910103B091020339
:101700003091FE0223E0230F2D3768F126E8230FE6
:101710000296A11DB11D2093FE028093FF029093BB
:101720000003A0930103B09302038091FA02909109
:10173000FB02A091FC02B091FD020196A11DB11D1A
:101740008093FA029093FB02A093FC02B093FD02F7
:10175000BF91AF919F918F913F912F910F900FBEAD
:101760000F901F9018950196A11DB11DD4CF2FB7D2
:10177000F8946091FF0270910003809101039091B1
:1017800002032FBF08953FB7F8948091FA02909119
:10179000FB02A091FC02B091FD0226B5A89B05C0FA
:1017A0002F3F19F00196A11DB11D3FBFBA2FA92FE0
:1017B000982F8827BC01CD01620F711D811D911DDD
:1017C00042E0660F771F881F991F4A95D1F7089549
:1017D0008F929F92AF92BF92CF92DF92EF92FF9241
:1017E0006B017C010E94C30B4B015C01C114D1044D
:1017F000E104F104E9F00E94590F0E94C30B68193B
:1018000079098A099B09683E73408105910570F347
:1018100021E0C21AD108E108F10888EE880E83E0C1
:10182000981EA11CB11CC114D104E104F10429F7D4
:10183000FF90EF90DF90CF90BF90AF909F908F90F0
:101840000895789484B5836084BD85B5836085BD33
:10185000EEE6F0E0808181608083E1E8F0E082E004
:101860008083808181608083E0E8F0E08081816016
:101870008083E1EBF0E0808184608083E0EBF0E046
:1018800080818160808387E880937A001092C10014
:101890000895843081F028F48230E9F08330F9F043
:1018A0000895883071F0893091F08530B9F48091D5
:1018B00080008F7D03C0809180008F7780938000AF
:1018C00008958091B0008F778093B0000895809143
:1018D000B0008F7DF9CF84B58F7784BD089584B52E
:1018E0008F7DFBCFCF93DF9390E0FC01E158FF4F5A
:1018F00024918A569F4FFC0184918823C9F090E07F
:10190000880F991FFC01EF53FF4FA591B491FC0183
:10191000E954FF4FC591D49161110DC09FB7F89460
:101920008C91209582238C938881282328839FBFC4
:10193000DF91CF910895623051F49FB7F8943C91B4
:10194000822F809583238C93E8812E2BEFCF8FB746
:10195000F894EC912E2B2C938FBFEACF1F93CF934B
:10196000DF93282F30E0F901E859FF4F8491F90106
:10197000E158FF4FD491F901EA56FF4FC491CC23AF
:10198000A9F0162F81110E94490CEC2FF0E0EE0F08
:10199000FF1FE954FF4FA591B4918FB7F894EC91D4
:1019A000111108C0D095DE23DC938FBFDF91CF915A
:1019B0001F910895DE2BF8CFCF93DF93282F30E0CF
:1019C000F901E859FF4F8491F901E158FF4FD49193
:1019D000F901EA56FF4FC491CC23A1F081110E9476
:1019E000490CEC2FF0E0EE0FFF1FE355FF4FA591E0
:1019F000B491EC91ED2381E090E009F480E0DF9177
:101A0000CF91089580E090E0FACFFC01918D228D76
:101A1000892F90E0805C9F4F821B91098F739927DB
:101A20000895FC01918D828D981731F0828DE80F19
:101A3000F11D858D90E008958FEF9FEF0895FC01D3
:101A4000918D828D981761F0A28DAE0FBF2FB11DC1
:101A50005D968C91928D9F5F9F73928F90E0089519
:101A60008FEF9FEF0895FC01538D448D252F30E0BB
:101A7000842F90E0821B930B541710F0CF9608959B
:101A80000197089588E89EE0892B49F080E090E076
:101A9000892B29F00E94880E81110C940000089572
:101AA000FC01A48DA80FB92FB11DA35ABF4F2C91D3
:101AB000848D90E001968F739927848FA689B789CA
:101AC0002C93A089B1898C9180648C93938D848DA3
:101AD000981306C00288F389E02D80818F7D808372
:101AE0000895CF93DF93EC01888D8823B9F0AA89FC
:101AF000BB89E889F9898C9185FD03C0808186FDC9
:101B00000DC00FB607FCF7CF8C9185FFF2CF808117
:101B100085FFEDCFCE010E94500DE9CFDF91CF912F
:101B20000895EF92FF920F931F93CF93DF93EC01F1
:101B300081E0888F9B8D8C8D981316C0E889F98978
:101B4000808185FF11C0EE89FF896083E889F9896A
:101B500080818064808381E090E0DF91CF911F914C
:101B60000F91FF90EF900895F62E0B8D10E00F5F10
:101B70001F4F0F731127E02E8C8D8E110CC00FB6E6
:101B800007FCFACFE889F989808185FFF5CFCE017E
:101B90000E94500DF1CFEB8DEC0FFD2FF11DE35A9C
:101BA000FF4FF0820B8FEA89FB8980818062D2CF60
:101BB000CF92DF92EF92FF921F93CF93DF93EC01CE
:101BC0006A017B01122FE889F98982E08083C114C0
:101BD00081EED806E104F104A1F060E079E08DE344
:101BE00090E0A70196010E945A0F21503109410946
:101BF00051095695479537952795211580E1380766
:101C000098F0E889F989108260E874E88EE190E044
:101C1000A70196010E945A0F21503109410951092B
:101C20005695479537952795EC85FD853083EE854C
:101C3000FF852083188EEC89FD891083EA89FB8952
:101C4000808188698083EA89FB8980818F7D808398
:101C5000DF91CF911F91FF90EF90DF90CF9008958B
:101C60001F920F920FB60F9211242F938F939F9371
:101C7000EF93FF93E0911303F09114038081E091BF
:101C80001903F0911A0382FD1BC0908180911C03FF
:101C90008F5F8F7320911D03821741F0E0911C0329
:101CA000F0E0ED5FFC4F958F80931C03FF91EF9167
:101CB0009F918F912F910F900FBE0F901F901895AD
:101CC0008081F4CF1F920F920FB60F9211242F93A1
:101CD0003F934F935F936F937F938F939F93AF93B4
:101CE000BF93EF93FF9383E093E00E94500DFF9129
:101CF000EF91BF91AF919F918F917F916F915F9184
:101D00004F913F912F910F900FBE0F901F901895FC
:101D100083E093E00E94050D21E0892B09F420E087
:101D2000822F0895E3E0F3E01382128288EE93E0BD
:101D3000A0E0B0E084839583A683B78387E191E038
:101D40009183808385EC90E09587848784EC90E094
:101D50009787868780EC90E0918B808B81EC90E078
:101D6000938B828B82EC90E0958B848B86EC90E059
:101D7000978B868B118E128E138E148E0895AF92D0
:101D8000BF92CF92DF92EF92FF920F931F93CF9368
:101D9000DF936C017B018B01040F151FEB015E01CA
:101DA000AE18BF08C017D10759F06991D601ED915F
:101DB000FC910190F081E02DC6010995892B79F7FE
:101DC000C501DF91CF911F910F91FF90EF90DF90B0
:101DD000CF90BF90AF9008950F931F93CF93DF9351
:101DE000EC010E94B70B688779878A879B87E88117
:101DF000F9810284F385E02DCE01099597FF15C086
:101E00000E94B70B088519852A853B85601B710BDD
:101E1000820B930B0C811D812E813F81601771070E
:101E20008207930720F38FEF9FEFDF91CF911F91F0
:101E30000F910895FC014483558366837783089549
:101E4000AF92BF92CF92DF92EF92FF920F931F93C8
:101E5000CF93DF935C017B018B01040F151FEB0116
:101E60006E01CE18DF08C017D10739F0C5010E94F6
:101E7000EC0E97FD02C08993F3CFC601DF91CF919D
:101E80001F910F91FF90EF90DF90CF90BF90AF9098
:101E9000089508950E94210C0E94490F0E942C036E
:101EA000C2E4DDE00E94D5052097E1F30E94420DD7
:101EB000F9CF0895A1E21A2EAA1BBB1BFD010DC08C
:101EC000AA1FBB1FEE1FFF1FA217B307E407F507EA
:101ED00020F0A21BB30BE40BF50B661F771F881FC6
:101EE000991F1A9469F760957095809590959B015C
:101EF000AC01BD01CF010895EE0FFF1F0590F491D5
:101F0000E02D09940E948D0FA59F900DB49F900D18
:101F1000A49F800D911D11240895A29FB001B39F2D
:101F2000C001A39F700D811D1124911DB29F700DE2
:101F3000811D1124911D089510E0C8E6D0E004C071
:101F4000FE010E947C0F2196C936D107C9F7F8948B
:021F5000FFCFC1
:101F52001400000000C009BF0E6D08610A1109E8F3
:101F620008FE0800000000910DBF0E330D710D0533
:061F72000D1F0D110D0012
:00000001FF
