:020000040000FA
:100000000C944C030C9474030C9474030C94CE0F56
:100010000C94CE0F0C94CE0F0C9474030C947403B8
:100020000C9474030C9474030C94D5120C94381231
:100030000C947F130C9474030C9474030C94740349
:100040000C94DF130C9474030C94A2160C94D41625
:100050000C9474030C9474030C9474030C94740344
:100060000C9474030C94740343616C696272617440
:10007000696F6E20287374617475732F6572726F67
:1000800072732F6F6B293A200020656E64206661C1
:1000900064656F7574002000466164696E673A009C
:1000A000466164696E673A2070726576696F757330
:1000B00020636D642077617320616C72656164797F
:1000C000206120666164656F75742C206E6F2066F8
:1000D00061646500434D443A204E6F74654F666617
:1000E00020566972747561526163696E67203A20A7
:1000F00053544F5020736F756E6400434D443A2043
:10010000436F6E74726F6C4368616E6765205669E9
:1001100072747561526163696E673A2042474D207F
:100120002300434D443A20466164654F7574205660
:100130006972747561466967687465722000434D21
:10014000443A2053797374656D2072657365742029
:10015000636F6D6D616E6420726563656976656459
:1001600000434D443A20466164656F757420004930
:100170004E464F3A204E6F742073656E7420746F34
:10018000206466506C617965722062656361757385
:100190006520766F6C756D652077617320616C7278
:1001A00065616479207468652073616D6500203D28
:1001B0003E2047616D652073657474696E673A20EF
:1001C00000434D443A20566F6C756D65206368613D
:1001D0006E67652E2056616C75653A2000434D446C
:1001E0003A2042474D2023302053544F5000434D76
:1001F000443A2042474D2023005354415254555015
:100200003A2053797374656D207265616479005387
:100210005441525455503A204D49444920696E7416
:10022000657266616365206C697374656E696E677B
:1002300000535441525455503A20537461727469BA
:100240006E67204D49444920696E7465726661632A
:100250006500535441525455503A204D503320704C
:100260006C617965722073746172746564005354B3
:1002700041525455503A2053657474696E67204555
:100280005100535441525455503A20536574746987
:100290006E6720766F6C756D6520746F2000535407
:1002A00041525455503A2043616C696272617465E1
:1002B0002073656E642073706163652E0053544132
:1002C000525455503A205374617274696E67204DD0
:1002D000503320706C617965720044534220436C46
:1002E0006F6E65202D20646562756720696E746588
:1002F000726661636520737461727465640044465C
:10030000506C617965723A20466C6173682C2000EC
:100310004446506C617965723A20555342204469D5
:10032000736B2C20004446506C617965723A2053FF
:100330004420436172642C20004446506C6179650E
:10034000723A20506C61792066696E6973686564E1
:1003500020666F722023004446506C617965723AC2
:1003600020556E6B6E6F776E206572726F722063B0
:100370006F6465203D20004446506C617965723A97
:100380002044664D70335F4572726F725F416476D0
:10039000657274697365203D2037202D20287365B0
:1003A00065206368697020646F63756D656E746144
:1003B00074696F6E2920496E206164766572746974
:1003C00073656D656E742E004446506C617965727C
:1003D0003A2044664D70335F4572726F725F4669B2
:1003E0006C654D69736D61746368203D2036202D06
:1003F0002028736565206368697020646F63756D7C
:10040000656E746174696F6E292043616E206E6F32
:10041000742066696E642066696C652E00444650DF
:100420006C617965723A2044664D70335F45727233
:100430006F725F46696C65496E6465784F757420AC
:100440003D2035202D202873656520636869702064
:10045000646F63756D656E746174696F6E29204693
:10046000696C6520696E646578206F7574206F66AD
:1004700020626F756E64732E004446506C6179651E
:10048000723A2044664D70335F4572726F725F43FB
:100490006865636B53756D4E6F744D61746368204E
:1004A0003D2034202D202873656520636869702005
:1004B000646F63756D656E746174696F6E29204336
:1004C0006F6D6D756E69636174696F6E73206572AF
:1004D000726F72206F6E2074686520686172647735
:1004E000617265206C6576656C2E20436865636B70
:1004F00020776972696E6720616E6420474E4420E0
:10050000636F6E6E656374696F6E732E0044465040
:100510006C617965723A2044664D70335F45727242
:100520006F725F736F667453657269616C44656264
:10053000756767657257726F6E67537461636B207E
:100540003D2033202D2053657269616C20636F6DEF
:100550006D756E69636174696F6E206572726F721A
:100560002028736565206368697020646F63756D0A
:10057000656E746174696F6E29004446506C6179D0
:1005800065723A2044664D70335F4572726F725FD8
:10059000536C656570696E67203D2032202D2028E0
:1005A000736565206368697020646F63756D656E3F
:1005B000746174696F6E292054686520636869707E
:1005C00020697320696E20736C656570206D6F649F
:1005D000652E004446506C617965723A2044664D40
:1005E00070335F4572726F725F42757379203D2080
:1005F00031202D2028736565206368697020646F41
:1006000063756D656E746174696F6E2920557375BD
:10061000616C6C7920746865206D65646961207710
:100620006173206E6F7420666F756E642E0000001B
:10063000000900030200000405080000000000009B
:1006400000000000000102040810204080010204A4
:100650000810200102040810204080400404040413
:10066000040404040202020202020303030303035C
:100670000202030000000023002600290000000001
:1006800000250028002B0000000000240027002A7D
:100690000000490D0417DF0D11241FBECFEFD8E075
:1006A000DEBFCDBF11E0A0E0B1E0E8EFF4E302C0AF
:1006B00005900D92A039B107D9F724E0A0E9B1E087
:1006C00001C01D92AF32B207E1F713E0CBE4D3E0F3
:1006D00004C02197FE010E941119C934D107C9F73E
:1006E0000E94A8180C946F1A0C9400000895DC0165
:1006F0001E96ED91FC91099460E170E00C94B9189C
:10070000FC0131962FEF3FEF0796E817F90721F02C
:100710004191241B3109F9CFC90101960895CF9366
:10072000DF93EC010E9480039F838887DF91CF9144
:100730000895CF93DF93EC010E9480032F813885C9
:1007400032272327322741E02817390709F040E0F4
:10075000842FDF91CF910895CF93DF93EB01209108
:10076000990230919A022F5F3F4F30939A02209363
:100770009902FB013197E730F10508F03BC0ED53DA
:10078000FC4F0C941119CA03D203D503EE03F103F5
:10079000F403F70363ED75E08BE991E0DF91CF910E
:1007A0000C9495176AE775E0F7CFFC012081318141
:1007B0002C3DF5E03F0728F4265F3F4FFC013183D5
:1007C00020838DE00E944E1561E0892B09F060E0E6
:1007D0008DE00E9420156DE075E0DECF69E774E0E2
:1007E000DBCF6DE174E0D8CF68EC73E0D5CF67E77D
:1007F00073E0D2CF67E573E08EE893E00E946D1757
:100800004AE050E0BE018EE893E0DF91CF910C9476
:1008100036180F931F93CF93C82F8B0181FF06C00B
:1008200065E273E08BE991E00E946D17C0FF06C09E
:1008300060E173E08BE991E00E946D17C3FF06C091
:100840006EEF72E08BE991E00E946D17B8018BE9C1
:1008500091E0CF911F910F910C94A717CF93DF9345
:10086000EB0167E071E00E94090469E373E08BE942
:1008700091E00E946D174AE050E0BE018BE991E0E3
:10088000DF91CF910C9436184F925F926F927F92C6
:100890008F929F92AF92BF92CF92DF92EF92FF9290
:1008A0000F931F93CF93DF937C012A013B016901D2
:1008B0000E9429144B015C0180E190E00E94B7186E
:1008C000EC0195018401B301A2010E94580E86E457
:1008D00091E099838883DF86CE86D701CD93DC9320
:1008E00080919B0290919C02892BA9F4D0939C0249
:1008F000C0939B02DF91CF911F910F91FF90EF90DA
:10090000DF90CF90BF90AF909F908F907F906F902F
:100910005F904F9008950E9429146B017C01E09133
:100920009B02F0919C0230E020E0309719F3468161
:1009300057816085718582819381A481B581840FFF
:10094000951FA61FB71FAC01BD014C195D096E09AB
:100950007F098E819F81A885B9858A809B80AC8024
:10096000BD80880D991DAA1DBB1D8C199D09AE095E
:10097000BF0984179507A607B70794F42115310519
:1009800051F0D9011D96DC93CE931C97FD87EC871F
:10099000B1CFFC01CACFD0939C02C0939B02F6CF8B
:1009A000848595859F010097A1F7D587C487A2CF3D
:1009B000EF92FF920F931F93CF93DF93CDB7DEB7E4
:1009C0002A970FB6F894DEBF0FBECDBF8C01F62E6E
:1009D000EE24E39441E050E0BE016F5F7F4FD80109
:1009E00012968D919C910E947C18813009F066C00E
:1009F00089818E3779F749E050E0BE016E5F7F4F05
:100A0000F801828193810E947C188F5F8A3008F4FC
:100A100067C08A818F3F09F066C08B81863009F0FC
:100A200062C08A858F3E09F05EC0CE0101960E94A9
:100A30009903882309F45AC0EC818E819F819827FD
:100A400089279827FF2009F454C0FE126DC02A960A
:100A50000FB6F894DEBF0FBECDBFDF91CF911F91CF
:100A60000F91FF90EF900895BC0181E090E00E940B
:100A70002E04F110AFCF1FC0BC0182E090E0F7CF91
:100A8000BC0188E090E0F3CFD8011A96EC9267E0C1
:100A900071E00E940904EDCFF801E2866EE071E09A
:100AA000F8CFD8011A96EC9267E171E0F2CFBC0161
:100AB000C8010E94AC0390E080E0C9CF61E870E01B
:100AC000C8010E94AC03F80182819381DC01ED91A1
:100AD000FC910084F185E02D0995892B51F6EBCF2F
:100AE00062E870E0EDCF63E870E0EACF64E870E0C0
:100AF000E7CFEA53E331F8F6F0E0EF57FA4F0C9402
:100B000011194C05510534053C05400544055705B0
:100B10005B055B055B055B055B055B055B055B05D5
:100B20005B055B0534053C05EA53E33108F052CF21
:100B3000F0E0E356FA4F0C9411194C0551053405B9
:100B40003C05400544055705EA04EA04EA04EA04C2
:100B5000EA04EA04EA04EA04EA04EA0434053C0587
:100B6000CF93DF93EC018A819B81DC01ED91FC91B5
:100B70000084F185E02D09950A972CF060E0CE0104
:100B80000E94D804F0CFDF91CF9108958F929F9269
:100B9000AF92BF92EF92FF920F931F93CF93DF9389
:100BA000CDB7DEB72A970FB6F894DEBF0FBECDBF24
:100BB0008C01790186E0FE013596DF01982F1D92A8
:100BC0009A95E9F79EE799839FEF9A838B838FEE3F
:100BD0008A876C835E834F83CE0101960E948F03C8
:100BE000D8018D919C91E80EF91E0E942914F801FC
:100BF00084809580A680B780AB01BC014819590953
:100C00006A097B0980859185B0E0A0E04817590703
:100C10006A077B0750F4C8010E94B00561E070E0EC
:100C200080E090E00E945A14E0CFF186E086828155
:100C30009381DC01ED91FC910280F381E02D4AE08B
:100C400050E0BE016F5F7F4F09950E942914F801A3
:100C500064837583868397832A960FB6F894DEBFE4
:100C60000FBECDBFDF91CF911F910F91FF90EF90FD
:100C7000BF90AF909F908F900895462F50E030E046
:100C800020E066E00C94C60530E020E050E040E053
:100C900066E10C94C6056EE371E08BE991E00E9479
:100CA000951780E991E00E94440684E080939802C1
:100CB0000895CF93823081F461110EC0C82F80E96E
:100CC00091E00E944406C093980264ED70E08BE9C5
:100CD00091E0CF910C949517CF91089530E020E0EA
:100CE00050E040E069E180E991E00C94C6058F9204
:100CF0009F92AF92BF92CF92DF92EF92FF926C01E0
:100D00000E9429144B015C01F12CE12C0E94291452
:100D1000681979098A099B096C157D058E059F055F
:100D200058F480E991E00E94B00561E070E080E055
:100D300090E00E945A14EACFFF90EF90DF90CF909E
:100D4000BF90AF909F908F9008950F931F93CF9374
:100D500090919802933049F460EA70E08BE991E059
:100D6000CF911F910F910C946D17082F68E970E0D7
:100D70008BE991E00E946D17C091060110E0C2302E
:100D8000B8F0C1506C2F80E991E00E943D06C80187
:100D90000E94770666E970E08BE991E00E946D178A
:100DA0004AE050E06C2F8BE991E00E941718E7CFE2
:100DB00080E991E00E94440682E390E00E94770679
:100DC0006091060180E991E00E943D0669E870E0CB
:100DD0008BE991E0CF911F910F910C949517FF92A1
:100DE0000F931F93CF93DF9300D0CDB7DEB78F3033
:100DF00008F477C0142F062FF82E603111F06F36EB
:100E000049F5112309F475C0412F50E030E020E08E
:100E100062E180E991E00E94C60581E0809398023A
:100E200080E1F8120AC02EE636E044EF51E060E0BF
:100E300070E0CE0101960E9444046EEE71E08BE9F1
:100E400091E00E946D174AE050E0612F8BE991E03C
:100E50000E941E188FEF800F823058F5F12EF69405
:100E6000F69461EC71E08BE991E00E946D174AE025
:100E700050E0612F8BE991E00E9417186EEA71E053
:100E80008BE991E00E946D174AE050E06F2D8BE9ED
:100E900091E00E941E1880910601F816C1F16F2D95
:100EA00080E991E00E943D06F092060185E0809382
:100EB000980203500230A8F461E671E08BE991E0FA
:100EC0000E946D174AE050E0612F8BE991E00E948B
:100ED0001E18812F869586950E94A50683E0809333
:100EE00098020F900F90DF91CF911F910F91FF907B
:100EF000089580E991E00E94440682E08093980280
:100F00006DED71E08BE991E00E949517A3CF6FE63C
:100F100071E08BE991E00E949517C8CF1F93CF93A2
:100F2000DF93D82FC62F142F8F30D9F46831A9F44E
:100F300062E271E08BE991E00E946D174AE050E0B7
:100F400068E18BE991E00E941E18812F86958695B5
:100F50000E94A50683E080939802DF91CF911F91B4
:100F600008958130D1F7462F50E030E020E062E173
:100F700080E991E00E94C605D09398026BEF70E083
:100F80008BE991E00E946D174AE050E06C2F8BE9ED
:100F900091E0DF91CF911F910C941E180F931F9336
:100FA000CF93C0E010929A021092990280E991E0EA
:100FB0000E94440630E020E050E040E068E180E933
:100FC00091E00E94C6058091920190919301DC010D
:100FD000ED91FC910084F185E02D09951816190614
:100FE00034F460E080E991E00E94D804ECCF30E076
:100FF00020E050E040E062E480E991E00E94C60514
:1010000062E480E991E00E94D8048C01892B39F0D8
:101010008091990290919A02CF5F892B71F0809113
:101020009001909191018C3DB5E09B0728F40A96C0
:101030009093910180939001C0E068E670E08BE9A5
:1010400091E00E946D174AE050E0B8018BE991E011
:101050000E9430186091990270919A024AE050E023
:101060008BE991E00E9430184AE050E06C2F8BE948
:1010700091E00E9417186FE171E08BE991E00E9406
:10108000A717CA3008F48ECF80E991E0CF911F9165
:101090000F910C944406CF93DF9361E08DE00E94A2
:1010A000E41440E052EC61E070E08BE991E00E94D2
:1010B000CC106AED72E08BE991E00E94951761E235
:1010C00071E08BE991E00E94A7176DEB72E08BE96C
:1010D00091E00E94951763E876E080E090E00E943E
:1010E000931148EE53E060E070E08091920190919E
:1010F00093010E9476180E942914609394017093C2
:10110000950180939601909397018EE190E09093E2
:1011100091018093900128E532E050E040E06CE0DE
:1011200080E991E00E94C60510929A0184EF91E057
:101130000E94770660E080E991E00E943D0628EC7D
:1011400030E042E050E069E080E991E00E94C605AD
:10115000C4E1D0E084E690E00E94770680919A0195
:10116000811102C02197B1F76EE972E08BE991E03D
:101170000E9495170E94CE0762E872E08BE991E029
:101180000E946D174AE050E0609106018BE991E002
:101190000E941E186091060180E991E00E943D06C0
:1011A0006EE672E08BE991E00E94951730E020E056
:1011B00045E050E067E080E991E00E94C60584EFD9
:1011C00091E00E94770630E020E048EE53E062E1D3
:1011D00080E991E00E94C60588EB9BE00E947706BB
:1011E00062E572E08BE991E00E9495178FEE96E040
:1011F0009093CF018093CE018BE496E09093EF0122
:101200008093EE018EE897E09093D1018093D00116
:1012100089E596E09093CB018093CA0161E372E087
:101220008BE991E00E949517E091F001F091F101B6
:1012300026E042E15AE760E070E0808191810E94FF
:101240004A161092F2011092F4011092F3011092DA
:10125000FB011092FA011092F9011092F8018FEF40
:101260009FEF9093FD018093FC019093FF01809389
:10127000FE010E9429146093880270938902809372
:101280008A0290938B0210928502109202021092B1
:10129000010210920302109204021092870210922F
:1012A00086028091000281708260816080930002DA
:1012B0006FE072E08BE991E00E94951769EF71E0B1
:1012C0008BE991E0DF91CF910C949517CF93DF9349
:1012D000EC01E881F981309711F0CB9609958CAD3E
:1012E000823F09F49EC090F5803C09F486C090F4DA
:1012F000803909F454C030F4803809F445C0DF91D6
:10130000CF910895803A09F475C0803BC1F7EA8512
:10131000FB853CC0803E09F459C058F4803D79F704
:10132000EE85FF85309759F36DAD8BADDF91CF9191
:101330000994803F09F464C0813F09F7EC89FD8975
:101340003097E9F28DADDF91CF9109948A3F91F109
:1013500080F4863F09F477C028F4833F81F6E88D56
:10136000F98DEECF883FF1F0893F49F6E8A1F9A168
:101370001BC08C3F29F108F18E3F29F18F3F09F006
:10138000BECFE8A5F9A510C0EC81FD81309709F426
:10139000B6CF4EAD6DAD8BADDF91CF910994EE819F
:1013A000FF81F4CFEC8DFD8D309709F4A8CFDF914C
:1013B000CF910994EE8DFF8DF7CFEAA1FBA1F4CF79
:1013C000ECA1FDA1F1CFEEA1FFA1EECFE889F98953
:1013D000309709F494CF6EAD20E8629FB0011124DC
:1013E00060787F738DAD8F77682B70528BADDF91F6
:1013F000CF910994E885F985C9CFEC85FD8592CF19
:10140000EA89FB89309709F47ACF6DAD7EAD6138FA
:10141000710510F060E870E0CE01CF96DF91CF91BA
:101420000994EE89FF89309709F469CF8EAD20E8E1
:10143000829FC001112480789F732DAD2F77822B5E
:10144000DF91CF910994EA8DFB8DAECF982F9F7ECF
:10145000282F2F7C203839F0803E29F081E0903C05
:1014600019F080E0089581E0089587FF0AC09CE0AC
:10147000980F923030F08D3F21F0803F18F4807F3C
:10148000089580E00895DC018D919C91DC01ED913F
:10149000FC910190F081E02D09946D3F48F46A3F82
:1014A00010F4683F39F4FC01808191810C94430A67
:1014B0006E3FC8F70895EF92FF920F931F93CF935B
:1014C000DF93613E38F50150003178F567FF2DC09C
:1014D000D22F142FC62F7C01602F6C2BFC0182A50C
:1014E00093A50E94430A612F6F77F70182A593A508
:1014F0000E94430ACF7EC03CC1F06D2F6F77F70189
:1015000082A593A5DF91CF911F910F91FF90EF904E
:101510000C94430A683F48F08A96DF91CF911F915F
:101520000F91FF90EF900C944D0ADF91CF911F9196
:101530000F91FF90EF900895EF92FF920F931F93FA
:10154000CF93DF93EC019AAD292F217090FF1EC03D
:10155000892F8E7FD9F0362F6CAD80E8860F8136CB
:10156000F8F40BAD031719F021E0311120E0969546
:10157000923051F0933089F0913041F42EAD4DAD61
:10158000CE010E945B0A02C02111F8CFDF91CF91FA
:101590001F910F91FF90EF9008952111F7CFEECF9B
:1015A000E0E1E60FE03190F7F0E0E752F54F0C9400
:1015B0001119F30A370B1E0B0C0BC60AC60AE90AEF
:1015C000C60AE90AC60AE90AE90AE90AC60AE90AEC
:1015D000E90ACE018A96DF91CF911F910F91FF907A
:1015E000EF900C944D0A7E018FE3E80EF11C0DADD7
:1015F0001EAD0138110510F000E810E00E0D1F1DA2
:10160000E016F10609F4C2CFF70161917F018AA5C6
:101610009BA50E94430AF4CF1DAD63EF8AA59BA54D
:101620000E94430A612F6F778AA59BA5DF91CF9116
:101630001F910F91FF90EF900C94430A0EADF0E8CC
:101640000F9F800111248DAD082B62EF8AA59BA509
:101650000E94430A602F6F778AA59BA50E94430AC8
:10166000000F012F001F110B1195602FDCCF6DAD06
:1016700080E1689FB001112460771EAD1F70162BAA
:1016800061EF8AA59BA50E94430A612FCDCFEF92FF
:10169000FF921F93CF93DF9380E991E00E94B00502
:1016A0000E946E0E1091F201113108F076C0E091A7
:1016B000F001F091F10180819181DC01ED91FC91CB
:1016C0000084F185E02D0995892B09F466C080918D
:1016D00095028E7F80939502E091F001F091F101E7
:1016E00080819181DC01ED91FC910284F385E02DF4
:1016F0000995C82F8D3F09F450C08091FA0190914F
:10170000FB01009709F0F6C0C093F501D091F301F9
:101710008D2F0E94350A0E94260A882361F0C7FD9A
:101720000AC0D093F501C093F60181E090E0909358
:10173000FB018093FA01C091F5018C2F0E94350ABC
:10174000813F09F496C0F0F5803B39F048F48039C8
:1017500021F0803A11F0803851F423E030E08BC062
:10176000803D09F486C0F8F4803C09F482C0809181
:101770009502816080939502E091C801F091C901C2
:10178000309709F009951092FB011092FA0110921E
:10179000F9011092F8011092F301DF91CF911F919E
:1017A000FF90EF900895803EC1F2803F01F720E85E
:1017B00030E03093F9012093F8011092F301809307
:1017C00005025DC0873F99F308F04CC0833F09F4E0
:1017D00050C018F2863F59F680930202109201021F
:1017E000109203021092040281E08093850210920D
:1017F000FB011092FA011092F9011092F801809108
:101800000202803939F480910402811103C080E81A
:1018100080930202809102028058813638F48091D0
:101820000102181719F0C0E0111105C086EC91E013
:101830000E946609C1E0612F86EC91E00E949C0A3B
:10184000CC2309F4AACF8DE00E944E1561E0892BCC
:1018500009F060E08DE0DF91CF911F91FF90EF9054
:101860000C9420158D3F08F4B7CF8E3F08F0B4CF0D
:101870007ECF22E030E03093F9012093F801C138A7
:1018800011F0C03B31F422E030E03093F9012093B5
:10189000F8012091FA013091FB014091F80150913B
:1018A000F9014150510924173507E8F080930202ED
:1018B000CF70CF5FC09301028091F6018093030245
:1018C0001092040281E090E0909387028093860258
:1018D0001092FB011092FA011092F9011092F80196
:1018E000809385028CCF2F5F3F4F3093FB01209375
:1018F000FA0153CFC7FF0CC0CD3F08F04DC0C83F21
:1019000008F04DC0C03F09F459C0C73F09F456C0A4
:101910002091F501FC01EA53FE4F203F19F0273FCB
:1019200009F075C0C7AFE090F801F090F901970198
:10193000215031098217930708F4A9C0D091F5010D
:10194000D03F19F0D73F09F064C0C091840280EF06
:10195000809384028093020280E8809303021092B5
:1019600004021092010280E890E090938702809335
:10197000860281E08093850286EC91E00E946609F0
:1019800087EF80930502C093060282E090E0909377
:10199000FB018093FA0101CFCE3F08F4B9CFC09389
:1019A000020210920302109204021092010281E0DE
:1019B00090E0909387028093860292CF2091050257
:1019C000203F19F0273F09F0D2CE9C012F5F3F4FF7
:1019D0008A539E4FFC01C7AF80EF80930202209391
:1019E0000302309304021092010230938702209385
:1019F000860281E0809385021092FB011092FA0129
:101A00001092F9011092F8011092F301F8CEC7A7D5
:101A10008ACF8D2F0E94350AC82F809302020E9420
:101A2000260A882349F18D2F8F708F5F80930102E2
:101A30008091F601809303028091F701F3E0EF16A5
:101A4000F10409F080E0809304021092FB011092EF
:101A5000FA011092F9011092F80181E08093850259
:101A6000C03B39F060F4C03921F0C03A11F0C03801
:101A700059F6D093F301C3CE10920102D9CFC03DE5
:101A8000C1F3C03EB1F3C03C09F0BECFF2CF019626
:101A90007ECFCF93DF938EE893E09093970280936D
:101AA0009602E6ECF1E01182108213821282158216
:101AB0001482178216821186108613861286158666
:101AC000148617861686118A108A138A128A158A36
:101AD000148A178A168A118E108E138E128E158E06
:101AE000148E178E168E11A210A213A212A215A286
:101AF00014A217A216A211A610A686E992E093A737
:101B000082A714A615A616A613AA12AA15AA14AA85
:101B10008FEF9FEF97AB86AB91AF80AF83E0809361
:101B2000000213AE14AE15AE16AE10928502E5E0BB
:101B3000F2E080E8DF011D928A95E9F710928802B1
:101B40001092890210928A0210928B0210928C02DB
:101B500010928D0210928E0210928F0210929002BB
:101B6000109291021092920210929302109294029B
:101B700010929502CAEBD1E01B821A8288EE93E0A4
:101B8000A0E0B0E08C839D83AE83BF838CE691E0C0
:101B90009983888320E04CE06BE08BE991E00E9420
:101BA000A110E0E9F1E08AE090E091838083D383A3
:101BB000C283918780871286DF91CF9108958BE948
:101BC00091E00E9446108CE691E09093BB018093D7
:101BD000BA010C94CB138F929F92AF92BF92CF9287
:101BE000DF92EF92FF92CF93DF9320919B0230918F
:101BF0009C02232B79F490939C0280939B02DF91AB
:101C0000CF91FF90EF90DF90CF90BF90AF909F90DB
:101C10008F900895EC010E9429146B017C01E091E2
:101C20009B02F0919C0230E020E0309741F3468126
:101C300057816085718582819381A481B581840FEC
:101C4000951FA61FB71FAC01BD014C195D096E0998
:101C50007F098E819F81A885B9858A809B80AC8011
:101C6000BD80880D991DAA1DBB1D8C199D09AE094B
:101C7000BF0984179507A607B70794F42115310506
:101C800051F0D9011D96DC93CE931C97FD87EC870C
:101C9000B6CFFC01CACFD0939C02C0939B02F6CF73
:101CA000848595859F010097A1F7D587C487A7CF25
:101CB0000F931F93FC0180E591E091838083428321
:101CC0005383648375830683178320873187138644
:101CD0001286158614861F910F910895CF92DF9278
:101CE000EF92FF920F931F9380919B0290919C0221
:101CF000892B09F45CC00E9429146B017C01A0911E
:101D00009B02B0919C0216964D915D916D917C91D4
:101D100019979C018601041B150B260B370B129695
:101D20004D915D916D917C91159740175107620718
:101D30007307E8F5ED91FC9111970480F581E02D92
:101D4000CD010995A0919B02B0919C021C968D91AA
:101D50009C911D9790939C0280939B021A968D9163
:101D60009C911B97029799F41696CD92DD92ED9275
:101D7000FC9219971D961C921E921C97CD011F91E3
:101D80000F91FF90EF90DF90CF900C94EB0D109798
:101D900071F0ED91FC9111970280F381E02DCD015E
:101DA0001F910F91FF90EF90DF90CF9009941F91BA
:101DB0000F91FF90EF90DF90CF90089590E080E03A
:101DC00008952091DF023091E00228173907B9F415
:101DD00090919D0280919E02981789F0E0919D025A
:101DE000F0E0E156FD4F808120919D0230E02F5FB1
:101DF0003F4F2F73332720939D0290E008958FEF7C
:101E00009FEF0895EF92FF920F931F93CF93DF936D
:101E1000DC015C96ED90FC905D97E114F10479F49F
:101E200081E090E013969C938E93129790E080E06F
:101E3000DF91CF911F910F91FF90EF9008955196F0
:101E4000ED91FC91529750968C915097982F9095C8
:101E50000FB75E962C915E97122F127021FD609540
:101E6000F8942081112319F1282B2083E701219771
:101E7000F1F728E0462F50E0308160FF1AC0382B80
:101E80003083E7012197F1F7BA01759567952150E5
:101E900089F7112381F08081892380830FBF5C96AD
:101EA0008D919C910197F1F781E090E0C1CF2923BA
:101EB000DCCF3923E5CF9081892BEFCF0895209196
:101EC000DF023091E0022817390771F490919D02EA
:101ED00080919E02981741F0E0919D02F0E0E1565A
:101EE000FD4F808190E008958FEF9FEF089520913E
:101EF000DF023091E0022817390771F480919E02C9
:101F000020919D0290E0805C9F4F821B910960E4CC
:101F100070E00E94BC18089590E080E00895E09180
:101F2000DF02F091E002E817F90769F4A389B489A8
:101F30009C918589809589238C931092E002109260
:101F4000DF0281E0089580E00895CF93DF93EC01F4
:101F50008A8D9B8D892B01F18091DF029091E002A7
:101F60008C179D07C9F0009711F00E948F0F8E8D7E
:101F70008E7F8E8F10929E0210929D02D093E0026F
:101F8000C093DF02EB89FC8980819D89892B808346
:101F900081E0DF91CF91089580E0FBCF1F920F92F7
:101FA0000FB60F9211242F933F934F935F936F932C
:101FB0007F938F939F93AF93BF93EF93FF93E091A2
:101FC000DF02F091E002309749F0A685B78585855C
:101FD000968D91FF14C09C918923A1F4FF91EF91FC
:101FE000BF91AF919F918F917F916F915F914F9131
:101FF0003F912F910F900FBE0F901F9018959C91BD
:10200000892361F7A389B4899C9185898095892367
:102010008C93868997890197F1F7608D718DA685DC
:10202000B785558538E020E0CB010197F1F7822F85
:1020300090E095958795282F4C91452309F02068CD
:10204000315091F7868D81FD209580919E0290E020
:1020500001968F73992730919D02381799F0A091BE
:102060009E02B0E0A156BD4F2C9380939E02828DBC
:10207000938D0197F1F7A389B4898C919589892B68
:102080008C93ACCF868D8160868FF1CF2AE531E0CD
:10209000FC01318320830C948F0F1F93CF93DF9328
:1020A000EC01162F6E8D6695617081E06827812F97
:1020B0000E94201561E0812F0E94E414812F110FEE
:1020C000990BFC01EB5BF94FE491E88BFC01E45ABE
:1020D000F94FE491F0E0EE0FFF1FE358F94F8591BF
:1020E00094919A8B898BDF91CF911F9108951F93C3
:1020F000CF93DF93EC01162F60E0812F0E94E41450
:102100008E8D81FD04C061E0812F0E9420151C8707
:10211000812F110F990BFC01EB5BF94FE491ED87D7
:10212000FC01E45AF94FE491F0E0EE0FFF1FED5887
:10213000F94F859194919F878E87DF91CF911F9161
:1021400008951F93CF93DF93EC01162F1B821A8201
:1021500088EE93E0A0E0B0E08C839D83AE83BF83E4
:102160008AE591E0998388831F8A1E8A198E188ECA
:102170001B8E1A8E1D8E1C8E8E8D8E7F20FB81F9FC
:102180008E8F642FCE010E944D10612FCE01DF9102
:10219000CF911F910C947710CF93DF93EC019A01AC
:1021A000AB011B8E1A8E198E188E1F8A1E8A60E054
:1021B00079E08DE390E00E94F218F901C9010397DC
:1021C0002430310510F481E090E09D8F8C8F6C8578
:1021D000673108F054C0C9019695879584319105FF
:1021E00008F452C043979F8B8E8BC9010597369791
:1021F00010F481E090E0998F888FC901880F991FB2
:10220000280F391F36952795369527952D3031059E
:1022100008F43DC02C5031093B8F2A8F9091680003
:1022200084E0683054F081E06E303CF082E064314C
:1022300024F081E0663109F480E0892B8093680006
:102240009C852DE630E0983064F09E301CF194318E
:1022500034F09631FCF030E020E0963111F42CE6B9
:1022600030E03C8B2B8B9830C4F481E001C0880FA8
:102270009A95EAF78D8B8C8D9D8D0197F1F7CE01A4
:10228000DF91CF910C94A50F81E090E0ACCF21E0DD
:1022900030E0C2CF2BE630E0E4CF9E3014F498500B
:1022A000E4CF963114F49E50E0CF80E4963111F3E0
:1022B00080E0E0CF80917B0390917A03891769F0E9
:1022C0009F5F903508F090E0E92FF0E0E65DFC4F6D
:1022D000808190937A0390E008958FEF9FEF0895A7
:1022E00080917B03E0917A038E1751F0EF5FE03528
:1022F00008F0E0E0F0E0E65DFC4F808190E00895BA
:102300008FEF9FEF089550917B0340917A03852FC3
:1023100090E0242F30E0541718F0821B930B08959F
:10232000805B9F4FFACF9B01AC01213668E13607F5
:102330004105510540F410926F001092800081E831
:102340008093810018C0DC01C90173E0B695A795A0
:10235000979587957A95D1F7813668E19607A1051B
:10236000B105C8F510926F001092800022E820930A
:1023700081009C01AD013093840320938303A5E287
:10238000B0E00E94171922E096958795779567959A
:102390002A95D1F770937D0360937C0362E088E017
:1023A0000E94E41461E089E00E94201561E089E068
:1023B0000E94E4141092820310927B0310927A031D
:1023C00010922903109226031092250380E286BB07
:1023D00080936F000895232F342F452F55272136E2
:1023E00088E1380741055105A8F710926F00109257
:1023F000800084E8A5CF909126039F5F943408F075
:1024000090E0209125032917E1F32FB7F89430913C
:102410002903332349F0E92FF0E0EF51FD4F80838A
:10242000909326032FBF089591E090932903809302
:1024300028031092270382E086BB80916F008260A0
:1024400080936F00809180008F7B806880938000F4
:1024500080918400909185004096909389008093AC
:102460008800E0CF862F0E94FB1181E090E0089564
:102470001F920F920FB60F9211242F933F934F93F9
:102480005F936F937F938F939F93EF93FF9320912D
:1024900029036091280380918800909189004091E0
:1024A000830350918403309127032A3070F5840F01
:1024B000951F762F7170293009F471E066952F5FB2
:1024C000371799F3309180007723E1F0306C309327
:1024D0008000909389008093880070932703609315
:1024E000280320932903FF91EF919F918F917F9172
:1024F0006F915F914F913F912F910F900FBE0F9071
:102500001F9018953F7B3068E2CF30912603E09111
:1025100025033E1319C02A3051F42BE020932903E0
:10252000840F951F9093890080938800DCCF1092D0
:102530002903809180008F738093800080916F00C9
:102540008D7F80936F00CFCFEF5FE43408F0E0E041
:10255000E0932503F0E0EF51FD4F308130932803E5
:1025600010922703309180003F7B306830938000C9
:102570002A3071F42091830330918403820F931FDA
:10258000909389008093880081E080932903ABCFEA
:1025900080918400909185004096F2CF809129032C
:1025A0008111FCCF08950C94CE121F920F920FB69A
:1025B0000F9211242F933F934F935F936F937F93C9
:1025C0008F939F93AF93BF93EF93FF938091860078
:1025D0009091870040918003209181004423F1F184
:1025E0002F7B209381001092800330918203311160
:1025F0003CC0411122C020917C0330917D03280F03
:10260000391F30938B0020938A0024E026BB209151
:102610006F00246020936F00209183033091840326
:10262000820F931F36952795280F391F30937F030C
:1026300020937E0381E080938203FF91EF91BF910D
:10264000AF919F918F917F916F915F914F913F914A
:102650002F910F900FBE0F901F901895206420931C
:10266000810020E820938003C0CF40917E035091E9
:102670007F036091830370918403DB01A095B09583
:1026800020918103E0918003841B950BA817B90763
:1026900068F126952E2B460F571F3F5F861B970B21
:1026A0003930A0F32093810380916F008B7F80935A
:1026B0006F0080917B038F5F803508F080E0909100
:1026C0007A03981749F0E82FF0E090918103E65DD6
:1026D000FC4F908380937B03809181008F7B80935C
:1026E00081001092800310928203A7CF2093810370
:1026F00050937F0340937E03309382039ECF1F92BB
:102700000F920FB60F9211242F938F939F93EF93F5
:10271000FF9380916F008B7F80936F008091810089
:102720008F7B8093810080918203209180032058C9
:1027300090918103893020F49695922B8F5FFACF88
:102740009093810380917B038F5F803508F080E058
:1027500020917A03281739F0E82FF0E0E65DFC4F6E
:10276000908380937B0310928203809181008F7B02
:102770008093810010928003FF91EF919F918F9140
:102780002F910F900FBE0F901F90189580917A0394
:1027900080937B030895CF93DF93CFE6D0E08881C9
:1027A0008B7F888388818F7D88830E94C6130E94D7
:1027B000CE1288818D7F8883DF91CF9108951F92FB
:1027C0000F920FB60F9211242F933F938F939F93E5
:1027D000AF93BF9380918A0390918B03A0918C0358
:1027E000B0918D033091890323E0230F2D3768F1D9
:1027F00026E8230F0296A11DB11D20938903809323
:102800008A0390938B03A0938C03B0938D038091E4
:10281000850390918603A0918703B0918803019668
:10282000A11DB11D8093850390938603A093870318
:10283000B0938803BF91AF919F918F913F912F915A
:102840000F900FBE0F901F9018950196A11DB11DFE
:10285000D4CF2FB7F89460918A0370918B03809145
:102860008C0390918D032FBF08953FB7F89480910A
:10287000850390918603A0918703B091880326B5C4
:10288000A89B05C02F3F19F00196A11DB11D3FBFA8
:10289000BA2FA92F982F8827BC01CD01620F711D77
:1028A000811D911D42E0660F771F881F991F4A9571
:1028B000D1F708958F929F92AF92BF92CF92DF92FD
:1028C000EF92FF926B017C010E9435144B015C0179
:1028D000C114D104E104F104E9F00E94BB180E9484
:1028E0003514681979098A099B09683E7340810586
:1028F000910570F321E0C21AD108E108F10888EED1
:10290000880E83E0981EA11CB11CC114D104E104FF
:10291000F10429F7FF90EF90DF90CF90BF90AF9038
:102920009F908F900895789484B5836084BD85B519
:10293000836085BDEEE6F0E0808181608083E1E820
:10294000F0E082E08083808181608083E0E8F0E0D5
:10295000808181608083E1EBF0E08081846080830E
:10296000E0EBF0E080818160808387E880937A00EB
:102970001092C1000895843081F028F48230E9F08B
:102980008330F9F00895883071F0893091F0853006
:10299000B9F4809180008F7D03C0809180008F7793
:1029A0008093800008958091B0008F778093B0006D
:1029B00008958091B0008F7DF9CF84B58F7784BD65
:1029C000089584B58F7DFBCFCF93DF9390E0FC011A
:1029D000EB5BF94F2491845A994FFC018491882331
:1029E000C9F090E0880F991FFC01E957F94FA591B4
:1029F000B491FC01E358F94FC591D49161110DC018
:102A00009FB7F8948C91209582238C9388812823FA
:102A100028839FBFDF91CF910895623051F49FB713
:102A2000F8943C91822F809583238C93E8812E2B00
:102A3000EFCF8FB7F894EC912E2B2C938FBFEACF6A
:102A40001F93CF93DF93282F30E0F901E25DF94F18
:102A50008491F901EB5BF94FD491F901E45AF94FF4
:102A6000C491CC23A9F0162F81110E94BB14EC2F26
:102A7000F0E0EE0FFF1FE358F94FA591B4918FB727
:102A8000F894EC91111108C0D095DE23DC938FBF30
:102A9000DF91CF911F910895DE2BF8CFCF93DF9375
:102AA000282F30E0F901E25DF94F8491F901EB5BE9
:102AB000F94FD491F901E45AF94FC491CC23A1F014
:102AC00081110E94BB14EC2FF0E0EE0FFF1FED58B8
:102AD000F94FA591B491EC91ED2381E090E009F4D8
:102AE00080E0DF91CF91089580E090E0FACFFC0183
:102AF000918D228D892F90E0805C9F4F821B9109E0
:102B00008F7399270895FC01918D828D981731F06C
:102B1000828DE80FF11D858D90E008958FEF9FEF76
:102B20000895FC01918D828D981761F0A28DAE0FF2
:102B3000BF2FB11D5D968C91928D9F5F9F73928F79
:102B400090E008958FEF9FEF0895FC01538D448D21
:102B5000252F30E0842F90E0821B930B541710F048
:102B6000CF960895019708958AEF96E1892B49F051
:102B700080E090E0892B29F00E94FA1681110C94D4
:102B800000000895FC01A48DA80FB92FB11DA35A10
:102B9000BF4F2C91848D90E001968F739927848F7D
:102BA000A689B7892C93A089B1898C9180648C9374
:102BB000938D848D981306C00288F389E02D80815F
:102BC0008F7D80830895CF93DF93EC01888D8823D8
:102BD000B9F0AA89BB89E889F9898C9185FD03C080
:102BE000808186FD0DC00FB607FCF7CF8C9185FF65
:102BF000F2CF808185FFEDCFCE010E94C215E9CFD3
:102C0000DF91CF910895EF92FF920F931F93CF938F
:102C1000DF93EC0181E0888F9B8D8C8D981316C01B
:102C2000E889F989808185FF11C0EE89FF89608379
:102C3000E889F98980818064808381E090E0DF9178
:102C4000CF911F910F91FF90EF900895F62E0B8D6D
:102C500010E00F5F1F4F0F731127E02E8C8D8E1128
:102C60000CC00FB607FCFACFE889F989808185FF8F
:102C7000F5CFCE010E94C215F1CFEB8DEC0FFD2FE9
:102C8000F11DE35AFF4FF0820B8FEA89FB898081A7
:102C90008062D2CFCF92DF92EF92FF921F93CF93B9
:102CA000DF93EC016A017B01122FE889F98982E048
:102CB0008083C11481EED806E104F104A1F060E044
:102CC00079E08DE390E0A70196010E94D018215091
:102CD0003109410951095695479537952795211591
:102CE00080E1380798F0E889F989108260E874E893
:102CF0008EE190E0A70196010E94D0182150310981
:102D0000410951095695479537952795EC85FD85DD
:102D10003083EE85FF852083188EEC89FD89108332
:102D2000EA89FB89808188698083EA89FB898081BF
:102D30008F7D8083DF91CF911F91FF90EF90DF9087
:102D4000CF9008951F920F920FB60F9211242F93D8
:102D50008F939F93EF93FF93E0919E03F0919F03D6
:102D60008081E091A403F091A50382FD1BC09081B6
:102D70008091A7038F5F8F732091A803821741F082
:102D8000E091A703F0E0E257FC4F958F8093A703F3
:102D9000FF91EF919F918F912F910F900FBE0F9008
:102DA0001F9018958081F4CF1F920F920FB60F924B
:102DB00011242F933F934F935F936F937F938F9340
:102DC0009F93AF93BF93EF93FF938EE893E00E949E
:102DD000C215FF91EF91BF91AF919F918F917F911C
:102DE0006F915F914F913F912F910F900FBE0F9078
:102DF0001F9018958EE893E00E94771521E0892BAB
:102E000009F420E0822F0895EEE8F3E013821282A5
:102E100088EE93E0A0E0B0E084839583A683B78337
:102E20008EE791E09183808385EC90E0958784879D
:102E300084EC90E09787868780EC90E0918B808B84
:102E400081EC90E0938B828B82EC90E0958B848B6D
:102E500086EC90E0978B868B118E128E138E148EDB
:102E60000895AF92BF92CF92DF92EF92FF920F93AD
:102E70001F93CF93DF936C017B018B01040F151F10
:102E8000EB015E01AE18BF08C017D10759F0699178
:102E9000D601ED91FC910190F081E02DC6010995DC
:102EA000892B79F7C501DF91CF911F910F91FF9089
:102EB000EF90DF90CF90BF90AF900895FB0101900D
:102EC0000020E9F73197AF01461B570BDC01ED916C
:102ED000FC910280F381E02D0994EF92FF920F9311
:102EE0001F93CF93DF938C017B01D0E0C0E0F7010B
:102EF000EC0FFD1F6491662361F0D801ED91FC9108
:102F00000190F081E02DC8010995892B11F02196DF
:102F1000EECFCE01DF91CF911F910F91FF90EF90F7
:102F200008956CE871E00C945E170F931F93CF9394
:102F3000DF93EC010E946D178C01CE010E94911766
:102F4000800F911FDF91CF911F910F9108950F93E3
:102F50001F93CF93DF938C01D0E0C0E06115710522
:102F600019F00E945E17EC01C8010E9491178C0FA6
:102F70009D1FDF91CF911F910F9108958F929F9286
:102F8000AF92BF92EF92FF920F931F93CF93DF9375
:102F9000CDB7DEB7A1970FB6F894DEBF0FBECDBF99
:102FA0007C01FA01CB0119A2223008F42AE08E013B
:102FB0000F5D1F4F822E912CB12CA12CBF01A501BA
:102FC00094010E94D018F901CA016A300CF5605DC5
:102FD000D8016E938D01232B242B252B79F790E0BC
:102FE00080E0109721F0BD01C7010E945E17A196F5
:102FF0000FB6F894DEBF0FBECDBFDF91CF911F910A
:103000000F91FF90EF90BF90AF909F908F90089599
:10301000695CDECF2115310541F4DC01ED91FC91B5
:103020000190F081E02D642F09940C94BE179A0151
:10303000462F50E070E060E00C940A180F931F9345
:10304000CF93DF93EC010E9417188C01CE010E94F0
:103050009117800F911FDF91CF911F910F910895CC
:103060009A01AB0170E060E00C940A180F931F9373
:10307000CF93DF93EC010E9430188C01CE010E94A7
:103080009117800F911FDF91CF911F910F9108959C
:103090000F931F93CF93DF93EC010E94291468874D
:1030A00079878A879B87E881F9810284F385E02DFF
:1030B000CE01099597FF15C00E942914088519852E
:1030C0002A853B85601B710B820B930B0C811D8144
:1030D0002E813F81601771078207930720F38FEFDE
:1030E0009FEFDF91CF911F910F910895FC014483D1
:1030F0005583668377830895AF92BF92CF92DF9214
:10310000EF92FF920F931F93CF93DF935C017B01AC
:103110008B01040F151FEB016E01CE18DF08C017DD
:10312000D10739F0C5010E94481897FD02C0899364
:10313000F3CFC601DF91CF911F910F91FF90EF90D8
:10314000DF90CF90BF90AF9008950E946A1A0895C3
:103150000E9493140E94A7180E944B08C4EBD5E16B
:103160000E94470B2097E1F30E94B415F9CF0C940D
:1031700045190C94E119089597FB072E16F4009455
:1031800007D077FD09D00E94221907FC05D03EF434
:10319000909581959F4F0895709561957F4F089503
:1031A000A1E21A2EAA1BBB1BFD010DC0AA1FBB1F4B
:1031B000EE1FFF1FA217B307E407F50720F0A21BBD
:1031C000B30BE40BF50B661F771F881F991F1A942A
:1031D00069F760957095809590959B01AC01BD0154
:1031E000CF010895052E97FB1EF400940E94091943
:1031F00057FD07D00E94D01807FC03D04EF40C9462
:10320000091950954095309521953F4F4F4F5F4F8D
:10321000089590958095709561957F4F8F4F9F4F42
:103220000895EE0FFF1F0590F491E02D09940E9480
:103230003619A59F900DB49F900DA49F800D911DF0
:1032400011240895AA1BBB1B51E107C0AA1FBB1F75
:10325000A617B70710F0A61BB70B881F991F5A9522
:10326000A9F780959095BC01CD010895A29FB0016A
:10327000B39FC001A39F700D811D1124911DB29FAA
:10328000700D811D1124911D08950F931F93CF93ED
:10329000DF938230910510F482E090E0E0912D04FC
:1032A000F0912E0430E020E0B0E0A0E0309799F4F7
:1032B0002115310509F44AC0281B390B243031058A
:1032C000D8F58A819B816115710589F1FB01938392
:1032D0008283FE0111C04081518102811381481710
:1032E0005907E0F04817590799F4109761F01296C2
:1032F0000C93129713961C933296CF01DF91CF91C6
:103300001F910F91089500932D0410932E04F4CF74
:103310002115310551F04217530738F0A901DB019F
:103320009A01BD01DF01F801C1CFEF01F9CF909300
:103330002E0480932D04CDCFFE01E20FF31F819365
:1033400091932250310939832883D7CF20912B04C0
:1033500030912C04232B41F4209102013091030180
:1033600030932C0420932B04209100013091010113
:103370002115310541F42DB73EB74091040150911C
:103380000501241B350BE0912B04F0912C04E2176E
:10339000F307A0F42E1B3F0B2817390778F0AC0178
:1033A0004E5F5F4F2417350748F04E0F5F1F509355
:1033B0002C0440932B04819391939FCFF0E0E0E0A5
:1033C0009CCFCF93DF930097E9F0FC0132971382F3
:1033D0001282A0912D04B0912E04ED0130E020E086
:1033E0001097A1F420813181820F931F20912B042B
:1033F00030912C042817390709F061C0F0932C0490
:10340000E0932B04DF91CF910895EA01CE17DF07F7
:10341000E8F54A815B819E0141155105B1F7E9014B
:10342000FB83EA8349915991C40FD51FEC17FD071F
:1034300061F4808191810296840F951FE90199833F
:103440008883828193819B838A83F0E0E0E01296F7
:103450008D919C9113970097B9F52D913C911197FF
:10346000CD010296820F931F20912B0430912C04E2
:103470002817390739F6309751F510922E0410921B
:103480002D04B0932C04A0932B04BCCFD383C28310
:1034900040815181840F951FC817D90761F44E5F91
:1034A0005F4F88819981480F591F518340838A81DA
:1034B0009B81938382832115310509F0B0CFF0936E
:1034C0002E04E0932D049ECFFD01DC01C0CF1382BA
:1034D0001282D7CF81E090E0F8940C946F1A13E039
:1034E000CBE4D3E004C0FE010E9411192196CC3434
:1034F000D107C9F7F894FFCF00002F048000146FA4
:103500006E6C696E6500696E7365727465640072D5
:10351000656D6F766564002E004275696C74206F6E
:103520006E20417072203136203230323220617488
:103530002031353A33343A3234000000000076034B
:103540007C0377030000000000000000A5180000C5
:103550000000020F3117DE0E5E0F770FE10E5F0FD6
:103560000000000032123117DE0ED31283115A11FF
:1035700070110000000003163117A515E31577152B
:08358000911583150D0A0000EE
:107E000001C0B7C0112484B790E89093610010922C
:107E10006100882361F0982F9A70923041F081FFC1
:107E200002C097EF94BF282E80E0C6D0E9C085E05D
:107E30008093810082E08093C00088E18093C1003C
:107E400080E18093C40086E08093C2008EE0B4D0CD
:107E5000259A84E020E33CEF91E030938500209365
:107E6000840096BBB09BFECF1D9AA8954091C000A0
:107E700047FD02C0815089F793D0813479F490D0C6
:107E8000182FA0D0123811F480E004C088E0113817
:107E900009F083E07ED080E17CD0EECF823419F40B
:107EA00084E198D0F8CF853411F485E0FACF853598
:107EB00041F476D0C82F74D0D82FCC0FDD1F82D0DC
:107EC000EACF863519F484E085D0DECF843691F58B
:107ED00067D066D0F82E64D0D82E00E011E05801AB
:107EE0008FEFA81AB80A5CD0F80180838501FA10D8
:107EF000F6CF68D0F5E4DF1201C0FFCF50E040E0DC
:107F000063E0CE0136D08E01E0E0F1E06F0182E067
:107F1000C80ED11C4081518161E0C8012AD00E5F9A
:107F20001F4FF601FC10F2CF50E040E065E0CE01BB
:107F300020D0B1CF843771F433D032D0F82E30D086
:107F400041D08E01F80185918F0123D0FA94F11070
:107F5000F9CFA1CF853739F435D08EE11AD085E934
:107F600018D08FE097CF813509F0A9CF88E024D0D1
:107F7000A6CFFC010A0167BFE895112407B600FCF3
:107F8000FDCF667029F0452B19F481E187BFE89594
:107F900008959091C00095FFFCCF8093C60008958E
:107FA0008091C00087FFFCCF8091C00084FD01C09C
:107FB000A8958091C6000895E0E6F0E098E19083EE
:107FC00080830895EDDF803219F088E0F5DFFFCF80
:107FD00084E1DFCFCF93C82FE3DFC150E9F7CF9122
:027FE000F1CFDF
:027FFE00000879
:00000001FF
