:020000040000FA
:100000000C9469000C9491000C9491000C94280AB3
:100010000C94280A0C94280A0C9491000C949100DA
:100020000C9491000C9491000C941B0C0C947E0B7E
:100030000C94C50C0C9491000C9491000C949100BC
:100040000C947F0F0C9491000C94500E0C94820E23
:100050000C9491000C9491000C9491000C949100DC
:100060000C9491000C949100000000090003020020
:10007000000405080000000000000000000000016E
:10008000020408102040800102040810200102042C
:100090000810204080400404040404040404020204
:1000A000020202020303030303030202030000002F
:1000B0000023002600290000000000250028002B56
:1000C0000000000000240027002A00009608B20E5D
:1000D0002A0911241FBECFEFD8E0DEBFCDBF11E04B
:1000E000A0E0B1E0E2E2F5E202C005900D92A0349A
:1000F000B107D9F723E0A0E4B1E001C01D92A23C12
:10010000B207E1F710E0C8E6D0E004C02197FE0195
:100110000E943A11C636D107C9F70E946C0F0C94A1
:1001200084120C9400000895DC011E96ED91FC9160
:10013000099460E170E00C947D0FFC012081318115
:100140002C3DF5E03F0728F4265F3F4FFC0131834B
:1001500020838DE00E94EE1061E0892B09F060E0C1
:100160008DE00C94C010FC0131962FEF3FEF079605
:10017000E817F90721F04191241B3109F9CFC90192
:1001800001960895CF93DF93EC010E94B3009F8303
:100190008887DF91CF910895CF93DF93EC010E9480
:1001A000B3002F81388532272327322741E02817D3
:1001B000390709F040E0842FDF91CF910895EF9245
:1001C000FF920F931F93CF93DF93CDB7DEB72A979C
:1001D0000FB6F894DEBF0FBECDBF8C01F62EEE2415
:1001E000E39441E050E0BE016F5F7F4FD80112966B
:1001F0008D919C910E94400F8130D9F589818E3775
:1002000081F749E050E0BE016E5F7F4FF8018281C7
:1002100093810E94400F8F5F8A3058F18A818F3F0F
:1002200041F58B81863029F58A858F3E11F5CE0107
:1002300001960E94CC008823E1F09C812E813F81B1
:10024000322723273227FF2051F1F91245C0C90177
:100250002A960FB6F894DEBF0FBECDBFDF91CF91C7
:100260001F910F91FF90EF900895C8010E949D008B
:1002700030C080912C0290912D02019690932D0216
:1002800080932C02F80182819381DC01ED91FC9135
:100290000084F185E02D0995892B51F41AC09F3314
:1002A00021F048F49A539230A0F4D8011A96EC92B7
:1002B000F11097CF0EC0903461F480912C02909190
:1002C0002D02019690932D0280932C02233031054C
:1002D00061F230E020E0BBCF9F3339F320F49A5332
:1002E000923018F37ECF903409F07BCFE6CFCF93D6
:1002F000DF93EC018A819B81DC01ED91FC9100840C
:10030000F185E02D09950A972CF060E0CE010E945E
:10031000DF00F0CFDF91CF9108958F929F92AF923F
:10032000BF92EF92FF920F931F93CF93DF93CDB7BE
:10033000DEB72A970FB6F894DEBF0FBECDBF8C0193
:10034000790186E0FE013596DF01982F1D929A957E
:10035000E9F79EE799839FEF9A838B838FEE8A87D5
:100360006C835E834F83CE0101960E94C200D80148
:100370008D919C91E80EF91E0E94C90FF8018480AE
:100380009580A680B780AB01BC01481959096A095C
:100390007B0980859185B0E0A0E0481759076A077E
:1003A0007B0750F4C8010E94770161E070E080E0B3
:1003B00090E00E94FA0FE0CFF186E086828193817F
:1003C000DC01ED91FC910280F381E02D4AE050E0E8
:1003D000BE016F5F7F4F09950E94C90FF8016483CA
:1003E0007583868397832A960FB6F894DEBF0FBE77
:1003F000CDBFDF91CF911F910F91FF90EF90BF90F4
:10040000AF909F908F900895462F50E030E020E00D
:1004100066E00C948D0130E020E050E040E066E1C1
:100420000C948D0182E491E00E940B0284E08093A1
:100430002B020895CF93823049F4611107C0C82F71
:1004400082E491E00E940B02C0932B02CF910895A9
:1004500030E020E050E040E069E182E491E00C947B
:100460008D018F929F92AF92BF92CF92DF92EF92C7
:10047000FF926C010E94C90F4B015C01F12CE12C31
:100480000E94C90F681979098A099B096C157D05B5
:100490008E059F0558F482E491E00E94770161E0A7
:1004A00070E080E090E00E94FA0FEACFFF90EF90BA
:1004B000DF90CF90BF90AF909F908F9008951F9343
:1004C000CF93DF9390912B02933009F110910601A5
:1004D000C82FD0E0123050F01150612F82E491E02B
:1004E0000E940402CE010E943102F4CF82E491E026
:1004F0000E940B0282E390E00E94310260910601AB
:1005000082E491E0DF91CF911F910C940402DF917E
:10051000CF911F9108954F925F926F927F928F9229
:100520009F92AF92BF92EF92FF920F931F93CF9340
:10053000DF938F3008F469C0E42EF62EC82F80E1D7
:10054000681719F09FE669133CC0EE2009F4B9C0A2
:100550004E2D50E030E020E062E182E491E00E9424
:100560008D0181E080932B02C03159F50E94C90FA3
:100570004B015C0180E190E00E947B0FEC01950152
:10058000840144EF51E060E070E00E949F098BE03D
:1005900091E09983888388E292E09F878E87D09349
:1005A0004101C093400181E090E09B878A87809160
:1005B0002E0290912F02892BB9F5D0932F02C09370
:1005C0002E028FEF8F0D8230A0F4CE2DD0E0D59586
:1005D000C795D595C795809106018C1739F06C2F7A
:1005E00082E491E00E940402C093060185E08093BA
:1005F0002B026DEF6F0D623040F48E2D869586953F
:100600000E945F0283E080932B02DF91CF911F91C4
:100610000F91FF90EF90BF90AF909F908F907F9041
:100620006F905F904F9008950E94C90F4B015C013D
:10063000E0912E02F0912F0230E020E0309709F295
:10064000468157816085718582819381A481B581BE
:10065000840F951FA61FB71FAC01BD01481959098A
:100660006A097B098E819F81A885B9854A805B8054
:100670006C807D80840D951DA61DB71D8819990974
:10068000AA09BB0984179507A607B70794F4211593
:10069000310551F0D9011D96DC93CE931C97FD874F
:1006A000EC878FCFFC01CACFD0932F02C0932E02CC
:1006B000F6CF848595859F010097A1F7D587C487DC
:1006C00080CF82E491E00E940B0282E080932B02B3
:1006D00078CFCF93C82F8F3061F4683141F4842FE5
:1006E000869586950E945F0283E080932B02CF91CE
:1006F00008958130E1F7462F50E030E020E062E1DC
:1007000082E491E00E948D01C0932B02F0CFCF9341
:10071000C0E082E491E00E940B0230E020E050E073
:1007200040E068E182E491E00E948D018091440103
:1007300090914501DC01ED91FC910084F185E02D63
:1007400009951816190634F460E082E491E00E94DD
:10075000DF00ECCF30E020E050E040E062E482E4F3
:1007600091E00E948D0162E482E491E00E94DF004A
:100770009C013D7F232B19F08131924071F48091CF
:100780004201909143018C3D25E0920708F60A96BC
:100790009093430180934201BBCFCF5FCA3008F4EE
:1007A000B8CF80914201909143018C3DA5E09A071A
:1007B00028F40A96909343018093420182E491E0E9
:1007C000CF910C940B02CF93DF9361E08DE00E94F8
:1007D000841063E876E080E090E00E94D90A48EE59
:1007E00053E060E070E080914401909145010E94E7
:1007F0003A0F0E94C90F609346017093470180939E
:100800004801909349018EE190E0909343018093D9
:10081000420128E532E050E040E06CE082E491E003
:100820000E948D0110924C0184EF91E00E943102F0
:1008300060E082E491E00E94040228EC30E042E0B3
:1008400050E069E082E491E00E948D01C4E1D0E0D3
:1008500084E690E00E94310280914C01811102C037
:100860002197B1F70E9487036091060182E491E02D
:100870000E94040230E020E045E050E067E082E4BE
:1008800091E00E948D0184EF91E00E94310230E0FE
:1008900020E048EE53E062E182E491E00E948D01A5
:1008A00088EB9BE00E9431028BE892E0909362011A
:1008B0008093610182E192E09093820180938101B3
:1008C00089E693E090936401809363018AE192E06A
:1008D00090935E0180935D01E0918301F09184012A
:1008E00026E042E15AE760E070E0808191810E9459
:1008F000F80D1092850110928701109286011092D6
:100900008E0110928D0110928C0110928B018FEF4D
:100910009FEF9093900180938F0190939201809329
:1009200091010E94C90F60931B0270931C02809377
:100930001D0290931E0210921802109295011092BF
:100940009401109296011092970110921A0210923F
:10095000190280919301817082608160809393017C
:10096000DF91CF910895CF93DF93EC01E881F98176
:10097000309711F0CB9609958CAD823F09F49EC05B
:1009800090F5803C09F486C090F4803909F454C095
:1009900030F4803809F445C0DF91CF910895803A52
:1009A00009F475C0803BC1F7EA85FB853CC0803EF9
:1009B00009F459C058F4803D79F7EE85FF853097EA
:1009C00059F36DAD8BADDF91CF910994803F09F460
:1009D00064C0813F09F7EC89FD893097E9F28DAD5C
:1009E000DF91CF9109948A3F91F180F4863F09F419
:1009F00077C028F4833F81F6E88DF98DEECF883FEC
:100A0000F1F0893F49F6E8A1F9A11BC08C3F29F11B
:100A100008F18E3F29F18F3F09F0BECFE8A5F9A577
:100A200010C0EC81FD81309709F4B6CF4EAD6DADAD
:100A30008BADDF91CF910994EE81FF81F4CFEC8DE6
:100A4000FD8D309709F4A8CFDF91CF910994EE8DF9
:100A5000FF8DF7CFEAA1FBA1F4CFECA1FDA1F1CF6F
:100A6000EEA1FFA1EECFE889F989309709F494CF80
:100A70006EAD20E8629FB001112460787F738DAD68
:100A80008F77682B70528BADDF91CF910994E885F9
:100A9000F985C9CFEC85FD8592CFEA89FB8930972E
:100AA00009F47ACF6DAD7EAD6138710510F060E864
:100AB00070E0CE01CF96DF91CF910994EE89FF8946
:100AC000309709F469CF8EAD20E8829FC0011124D0
:100AD00080789F732DAD2F77822BDF91CF91099472
:100AE000EA8DFB8DAECF982F9F7E282F2F7C20384C
:100AF00039F0803E29F081E0903C19F080E00895C3
:100B000081E0089587FF0AC09CE0980F923030F092
:100B10008D3F21F0803F18F4807F089580E0089594
:100B2000DC018D919C91DC01ED91FC910190F081B3
:100B3000E02D09946D3F48F46A3F10F4683F39F4A2
:100B4000FC01808191810C9490056E3FC8F7089557
:100B5000EF92FF920F931F93CF93DF93613E38F58F
:100B60000150003178F567FF2DC0D22F142FC62F0A
:100B70007C01602F6C2BFC0182A593A50E9490053F
:100B8000612F6F77F70182A593A50E949005CF7E14
:100B9000C03CC1F06D2F6F77F70182A593A5DF915F
:100BA000CF911F910F91FF90EF900C949005683FAB
:100BB00048F08A96DF91CF911F910F91FF90EF90AF
:100BC0000C949A05DF91CF911F910F91FF90EF90B8
:100BD0000895EF92FF920F931F93CF93DF93EC0151
:100BE0009AAD292F217090FF1EC0892F8E7FD9F0DA
:100BF000362F6CAD80E8860F8136F8F40BAD031705
:100C000019F021E0311120E09695923051F09330A7
:100C100089F0913041F42EAD4DADCE010E94A80572
:100C200002C02111F8CFDF91CF911F910F91FF905A
:100C3000EF9008952111F7CFEECFE0E1E60FE0311C
:100C400090F7F0E0EA5DF94F0C943A114006840603
:100C50006B065906130613063606130636061306E8
:100C6000360636063606130636063606CE018A9650
:100C7000DF91CF911F910F91FF90EF900C949A0507
:100C80007E018FE3E80EF11C0DAD1EAD013811059C
:100C900010F000E810E00E0D1F1DE016F10609F43B
:100CA000C2CFF70161917F018AA59BA50E949005A3
:100CB000F4CF1DAD63EF8AA59BA50E949005612F1F
:100CC0006F778AA59BA5DF91CF911F910F91FF9020
:100CD000EF900C9490050EADF0E80F9F8001112469
:100CE0008DAD082B62EF8AA59BA50E949005602F11
:100CF0006F778AA59BA50E949005000F012F001F0A
:100D0000110B1195602FDCCF6DAD80E1689FB001B4
:100D1000112460771EAD1F70162B61EF8AA59BA56D
:100D20000E949005612FCDCFEF92FF921F93CF933A
:100D3000DF9382E491E00E9477010E94B50910914F
:100D40008501113108F076C0E0918301F0918401B2
:100D500080819181DC01ED91FC910084F185E02D91
:100D60000995892B09F466C0809128028E7F8093B3
:100D70002802E0918301F091840180819181DC015E
:100D8000ED91FC910284F385E02D0995C82F8D3FEC
:100D900009F450C080918D0190918E01009709F067
:100DA000F6C0C0938801D09186018D2F0E948205E4
:100DB0000E947305882361F0C7FD0AC0D0938801A3
:100DC000C093890181E090E090938E0180938D0122
:100DD000C09188018C2F0E948205813F09F496C042
:100DE000F0F5803B39F048F4803921F0803A11F079
:100DF000803851F423E030E08BC0803D09F486C098
:100E0000F8F4803C09F482C08091280281608093CC
:100E10002802E0915B01F0915C01309709F009959F
:100E200010928E0110928D0110928C0110928B0104
:100E300010928601DF91CF911F91FF90EF9008955E
:100E4000803EC1F2803F01F720E830E030938C0112
:100E500020938B0110928601809398015DC0873F9B
:100E600099F308F04CC0833F09F450C018F2863F54
:100E700059F6809395011092940110929601109268
:100E8000970181E08093180210928E0110928D01DB
:100E900010928C0110928B0180919501803939F468
:100EA00080919701811103C080E880939501809122
:100EB00095018058813638F480919401181719F003
:100EC000C0E0111105C089E591E00E94B304C1E0C2
:100ED000612F89E591E00E94E905CC2309F4AACFAE
:100EE0008DE00E94EE1061E0892B09F060E08DE05A
:100EF000DF91CF911F91FF90EF900C94C0108D3F28
:100F000008F4B7CF8E3F08F0B4CF7ECF22E030E0B8
:100F100030938C0120938B01C13811F0C03B31F428
:100F200022E030E030938C0120938B0120918D01E1
:100F300030918E0140918B0150918C0141505109AB
:100F400024173507E8F080939501CF70CF5FC093E9
:100F5000940180918901809396011092970181E01C
:100F600090E090931A028093190210928E011092D1
:100F70008D0110928C0110928B01809318028CCFFE
:100F80002F5F3F4F30938E0120938D0153CFC7FFCA
:100F90000CC0CD3F08F04DC0C83F08F04DC0C03F69
:100FA00009F459C0C73F09F456C020918801FC01DB
:100FB000E75AFE4F203F19F0273F09F075C0C7AF31
:100FC000E0908B01F0908C0197012150310982173C
:100FD000930708F4A9C0D0918801D03F19F0D73FFA
:100FE00009F064C0C091170280EF809317028093CC
:100FF000950180E8809396011092970110929401D8
:1010000080E890E090931A028093190281E0809327
:10101000180289E591E00E94B30487EF809398015C
:10102000C093990182E090E090938E0180938D01AE
:1010300001CFCE3F08F4B9CFC0939501109296012D
:10104000109297011092940181E090E090931A021F
:101050008093190292CF20919801203F19F0273FE9
:1010600009F0D2CE9C012F5F3F4F875A9E4FFC0163
:10107000C7AF80EF8093950120939601309397013D
:101080001092940130931A022093190281E0809308
:10109000180210928E0110928D0110928C01109204
:1010A0008B0110928601F8CEC7A78ACF8D2F0E94A0
:1010B0008205C82F809395010E947305882349F10A
:1010C0008D2F8F708F5F8093940180918901809321
:1010D000960180918A01F3E0EF16F10409F080E0B7
:1010E0008093970110928E0110928D0110928C01C5
:1010F00010928B0181E080931802C03B39F060F4BC
:10110000C03921F0C03A11F0C03859F6D0938601A9
:10111000C3CE10929401D9CFC03DC1F3C03EB1F30C
:10112000C03C09F0BECFF2CF01967ECF88E193E0BC
:1011300090932A0280932902E9E5F1E0118210825E
:1011400013821282158214821782168211861086EB
:10115000138612861586148617861686118A108ABB
:10116000138A128A158A148A178A168A118E108E8B
:10117000138E128E158E148E178E168E11A210A23B
:1011800013A212A215A214A217A216A211A610A6AB
:1011900089E292E093A782A714A615A616A613AA21
:1011A00012AA15AA14AA8FEF9FEF97AB86AB91AF47
:1011B00080AF83E08093930113AE14AE15AE16AEEC
:1011C00010921802E8E9F1E080E8DF011D928A95AB
:1011D000E9F710921B0210921C0210921D0210924D
:1011E0001E0210921F0210922002109221021092F1
:1011F00022021092230210922402109225021092D1
:1012000026021092270210922802ADE4B1E0139654
:101210001C921E92129748EE53E060E070E0149624
:101220004D935D936D937C9317978FE191E01196A9
:101230009C938E93E2E4F1E08AE090E091838083D6
:10124000B383A28391878087128610924101109206
:10125000400108958FE191E090934E0180934D01FC
:101260000C94110D8F929F92AF92BF92CF92DF920A
:10127000EF92FF92CF93DF9320912E0230912F02B5
:10128000232B79F490932F0280932E02DF91CF913C
:10129000FF90EF90DF90CF90BF90AF909F908F9096
:1012A0000895EC010E94C90F6B017C01E0912E02B0
:1012B000F0912F0230E020E0309741F346815781D2
:1012C0006085718582819381A481B581840F951F8A
:1012D000A61FB71FAC01BD014C195D096E097F093E
:1012E0008E819F81A885B9858A809B80AC80BD80D6
:1012F000880D991DAA1DBB1D8C199D09AE09BF093A
:1013000084179507A607B70794F42115310551F006
:10131000D9011D96DC93CE931C97FD87EC87B6CF41
:10132000FC01CACFD0932F02C0932E02F6CF848542
:1013300095859F010097A1F7D587C487A7CF0F9305
:101340001F93FC0185E191E0918380834283538365
:1013500064837583068317832087318713861286FB
:10136000158614861F910F910895CF92DF92EF9208
:10137000FF920F931F9380912E0290912F02892B41
:1013800009F45CC00E94C90F6B017C01A0912E0280
:10139000B0912F0216964D915D916D917C911997A8
:1013A0009C018601041B150B260B370B12964D91E1
:1013B0005D916D917C9115974017510762077307F6
:1013C000E8F5ED91FC9111970480F581E02DCD01B8
:1013D0000995A0912E02B0912F02109779F11C96D9
:1013E0008D919C911D9790932F0280932E021A96B7
:1013F0008D919C911B97029799F41696CD92DD9250
:10140000ED92FC9219971D961C921E921C97CD018D
:101410001F910F91FF90EF90DF90CF900C943209C5
:10142000ED91FC9111970280F381E02DCD011F9188
:101430000F91FF90EF90DF90CF9009941F910F9143
:10144000FF90EF90DF90CF90089590E080E00895B6
:101450001F920F920FB60F9211242F933F934F9329
:101460005F936F937F938F939F93AF93BF93EF930C
:10147000FF93E0917202F0917302309749F0A685D4
:10148000B7858585968D91FF14C09C918923A1F421
:10149000FF91EF91BF91AF919F918F917F916F914C
:1014A0005F914F913F912F910F900FBE0F901F9022
:1014B00018959C91892361F7A389B4899C918589AA
:1014C000809589238C93868997890197F1F7608DA0
:1014D000718DA685B785558538E020E0CB01019751
:1014E000F1F7822F90E095958795282F4C91452311
:1014F00009F02068315091F7868D81FD209580910B
:10150000310290E001968F7399273091300238179D
:1015100099F0A0913102B0E0AE5CBD4F2C93809366
:101520003102828D938D0197F1F7A389B4898C9153
:101530009589892B8C93ACCF868D8160868FF1CF76
:1015400080910E0390910D03891769F09F5F90358C
:1015500008F090E0E92FF0E0E354FD4F8081909394
:101560000D0390E008958FEF9FEF089580910E0393
:10157000E0910D038E1751F0EF5FE03508F0E0E0E9
:10158000F0E0E354FD4F808190E008958FEF9FEFEE
:10159000089550910E0340910D03852F90E0242F64
:1015A00030E0541718F0821B930B0895805B9F4F17
:1015B000FACF9B01AC01213668E1360741055105A0
:1015C00040F410926F001092800081E880938100B7
:1015D00018C0DC01C90173E0B695A795979587956A
:1015E0007A95D1F7813668E19607A105B105C8F56E
:1015F00010926F001092800022E8209381009C01DD
:10160000AD013093170320931603A5E2B0E00E94CA
:10161000401122E096958795779567952A95D1F7A1
:101620007093100360930F0362E088E00E948410BF
:1016300061E089E00E94C01061E089E00E948410AE
:101640001092150310920E0310920D031092BC021B
:101650001092B9021092B80280E286BB80936F00AC
:101660000895232F342F452F5527213688E1380739
:1016700041055105A8F710926F001092800084E890
:10168000A5CF9091B9029F5F943408F090E020912B
:10169000B8022917E1F32FB7F8943091BC02332335
:1016A00049F0E92FF0E0EC58FD4F80839093B902A8
:1016B0002FBF089591E09093BC028093BB021092DB
:1016C000BA0282E086BB80916F00826080936F00D7
:1016D000809180008F7B806880938000809184005F
:1016E0009091850040969093890080938800E0CF88
:1016F000862F0E94410B81E090E008951F920F9287
:101700000FB60F9211242F933F934F935F936F93D4
:101710007F938F939F93EF93FF932091BC026091EF
:10172000BB028091880090918900409116035091EE
:1017300017033091BA022A3070F5840F951F762F67
:101740007170293009F471E066952F5F371799F3AE
:10175000309180007723E1F0306C309380009093DB
:101760008900809388007093BA026093BB02209333
:10177000BC02FF91EF919F918F917F916F915F914B
:101780004F913F912F910F900FBE0F901F90189582
:101790003F7B3068E2CF3091B902E091B8023E134E
:1017A00019C02A3051F42BE02093BC02840F951FFE
:1017B0009093890080938800DCCF1092BC028091C6
:1017C00080008F738093800080916F008D7F809365
:1017D0006F00CFCFEF5FE43408F0E0E0E093B802B1
:1017E000F0E0EC58FD4F30813093BB021092BA020A
:1017F000309180003F7B3068309380002A3071F454
:101800002091160330911703820F931F9093890044
:101810008093880081E08093BC02ABCF80918400EC
:10182000909185004096F2CF8091BC028111FCCF4F
:1018300008950C94140C1F920F920FB60F9211245E
:101840002F933F934F935F936F937F938F939F93C8
:10185000AF93BF93EF93FF938091860090918700A1
:1018600040911303209181004423F1F12F7B2093B9
:101870008100109213033091150331113CC04111C6
:1018800022C020910F0330911003280F391F30938D
:101890008B0020938A0024E026BB20916F002460F7
:1018A00020936F002091160330911703820F931F2E
:1018B00036952795280F391F309312032093110373
:1018C00081E080931503FF91EF91BF91AF919F91BC
:1018D0008F917F916F915F914F913F912F910F90D9
:1018E0000FBE0F901F90189520642093810020E870
:1018F00020931303C0CF40911103509112036091C4
:10190000160370911703DB01A095B0952091140385
:10191000E0911303841B950BA817B90768F126956E
:101920002E2B460F571F3F5F861B970B3930A0F3B6
:101930002093140380916F008B7F80936F008091C0
:101940000E038F5F803508F080E090910D039817AB
:1019500049F0E82FF0E090911403E354FD4F908399
:1019600080930E03809181008F7B80938100109281
:10197000130310921503A7CF20931403509312035F
:1019800040931103309315039ECF1F920F920FB611
:101990000F9211242F938F939F93EF93FF93809136
:1019A0006F008B7F80936F00809181008F7B80938D
:1019B0008100809115032091130320589091140306
:1019C000893020F49695922B8F5FFACF9093140371
:1019D00080910E038F5F803508F080E020910D0329
:1019E000281739F0E82FF0E0E354FD4F90838093FF
:1019F0000E0310921503809181008F7B80938100EC
:101A000010921303FF91EF919F918F912F910F905F
:101A10000FBE0F901F90189580910D0380930E03B9
:101A20000895CF93DF93CFE6D0E088818B7F8883C2
:101A300088818F7D88830E940C0D0E94140C888100
:101A40008D7F8883DF91CF910895FC01918D228D48
:101A5000892F90E0805C9F4F821B91098F7399279B
:101A60000895FC01918D828D981731F0828DE80FD9
:101A7000F11D858D90E008958FEF9FEF0895FC0193
:101A8000918D828D981761F0A28DAE0FBF2FB11D81
:101A90005D968C91928D9F5F9F73928F90E00895D9
:101AA0008FEF9FEF0895FC01538D448D252F30E07B
:101AB000842F90E0821B930B541710F0CF9608955B
:101AC0000197089588EA9EE0892B49F080E090E034
:101AD000892B29F00E94A80E81110C940000089512
:101AE000FC01A48DA80FB92FB11DA35ABF4F2C9193
:101AF000848D90E001968F739927848FA689B7898A
:101B00002C93A089B1898C9180648C93938D848D62
:101B1000981306C00288F389E02D80818F7D808331
:101B20000895CF93DF93EC01888D8823B9F0AA89BB
:101B3000BB89E889F9898C9185FD03C0808186FD88
:101B40000DC00FB607FCF7CF8C9185FFF2CF8081D7
:101B500085FFEDCFCE010E94700DE9CFDF91CF91CF
:101B60000895EF92FF920F931F93CF93DF93EC01B1
:101B700081E0888F9B8D8C8D981316C0E889F98938
:101B8000808185FF11C0EE89FF896083E889F9892A
:101B900080818064808381E090E0DF91CF911F910C
:101BA0000F91FF90EF900895F62E0B8D10E00F5FD0
:101BB0001F4F0F731127E02E8C8D8E110CC00FB6A6
:101BC00007FCFACFE889F989808185FFF5CFCE013E
:101BD0000E94700DF1CFEB8DEC0FFD2FF11DE35A3C
:101BE000FF4FF0820B8FEA89FB8980818062D2CF20
:101BF000CF92DF92EF92FF921F93CF93DF93EC018E
:101C00006A017B01122FE889F98982E08083C1147F
:101C100081EED806E104F104A1F060E079E08DE303
:101C200090E0A70196010E94181121503109410945
:101C300051095695479537952795211580E1380725
:101C400098F0E889F989108260E874E88EE190E004
:101C5000A70196010E94181121503109410951092B
:101C60005695479537952795EC85FD853083EE850C
:101C7000FF852083188EEC89FD891083EA89FB8912
:101C8000808188698083EA89FB8980818F7D808358
:101C9000DF91CF911F91FF90EF90DF90CF9008954B
:101CA0001F920F920FB60F9211242F938F939F9331
:101CB000EF93FF93E0912803F09129038081E09155
:101CC0002E03F0912F0382FD1BC090818091310380
:101CD0008F5F8F7320913203821741F0E0913103BF
:101CE000F0E0E85EFC4F958F80933103FF91EF9118
:101CF0009F918F912F910F900FBE0F901F9018956D
:101D00008081F4CF1F920F920FB60F9211242F9360
:101D10003F934F935F936F937F938F939F93AF9373
:101D2000BF93EF93FF9388E193E00E94700DFF91C2
:101D3000EF91BF91AF919F918F917F916F915F9143
:101D40004F913F912F910F900FBE0F901F901895BC
:101D500088E193E00E94250D21E0892B09F420E021
:101D6000822F0895E8E1F3E01382128288EE93E077
:101D7000A0E0B0E084839583A683B78381E391E0FC
:101D80009183808385EC90E09587848784EC90E054
:101D90009787868780EC90E0918B808B81EC90E038
:101DA000938B828B82EC90E0958B848B86EC90E019
:101DB000978B868B118E128E138E148E0895AF9290
:101DC000BF92CF92DF92EF92FF920F931F93CF9328
:101DD000DF936C017B018B01040F151FEB015E018A
:101DE000AE18BF08C017D10759F06991D601ED911F
:101DF000FC910190F081E02DC6010995892B79F7BE
:101E0000C501DF91CF911F910F91FF90EF90DF906F
:101E1000CF90BF90AF9008950F931F93CF93DF9310
:101E2000EC010E94C90F688779878A879B87E881C0
:101E3000F9810284F385E02DCE01099597FF15C045
:101E40000E94C90F088519852A853B85601B710B87
:101E5000820B930B0C811D812E813F8160177107CE
:101E60008207930720F38FEF9FEFDF91CF911F91B0
:101E70000F910895FC014483558366837783089509
:101E8000AF92BF92CF92DF92EF92FF920F931F9388
:101E9000CF93DF935C017B018B01040F151FEB01D6
:101EA0006E01CE18DF08C017D10739F0C5010E94B6
:101EB0000C0F97FD02C08993F3CFC601DF91CF913C
:101EC0001F910F91FF90EF90DF90CF90BF90AF9058
:101ED00008950E947F1208950E9433100E946B0F94
:101EE0000E94E303C2E6DDE00E9494062097E1F33E
:101EF0000E94620DF9CF0C945A110C94F6111F92A6
:101F00000F920FB60F9211242F933F938F939F93AD
:101F1000AF93BF938091BA039091BB03A091BC0390
:101F2000B091BD033091B90323E0230F2D3768F141
:101F300026E8230F0296A11DB11D2093B9038093BB
:101F4000BA039093BB03A093BC03B093BD038091ED
:101F5000B5039091B603A091B703B091B803019671
:101F6000A11DB11D8093B5039093B603A093B70351
:101F7000B093B803BF91AF919F918F913F912F91F3
:101F80000F900FBE0F901F9018950196A11DB11DC7
:101F9000D4CF2FB7F8946091BA037091BB038091AE
:101FA000BC039091BD032FBF08953FB7F894809173
:101FB000B5039091B603A091B703B091B80326B5CD
:101FC000A89B05C02F3F19F00196A11DB11D3FBF71
:101FD000BA2FA92F982F8827BC01CD01620F711D40
:101FE000811D911D42E0660F771F881F991F4A953A
:101FF000D1F708958F929F92AF92BF92CF92DF92C6
:10200000EF92FF926B017C010E94D50F4B015C01A6
:10201000C114D104E104F104E9F00E9417110E94F7
:10202000D50F681979098A099B09683E73408105B3
:10203000910570F321E0C21AD108E108F10888EE99
:10204000880E83E0981EA11CB11CC114D104E104C8
:10205000F10429F7FF90EF90DF90CF90BF90AF9001
:102060009F908F900895789484B5836084BD85B5E2
:10207000836085BDEEE6F0E0808181608083E1E8E9
:10208000F0E082E08083808181608083E0E8F0E09E
:10209000808181608083E1EBF0E0808184608083D7
:1020A000E0EBF0E080818160808387E880937A00B4
:1020B0001092C1000895843081F028F48230E9F054
:1020C0008330F9F00895883071F0893091F08530CF
:1020D000B9F4809180008F7D03C0809180008F775C
:1020E0008093800008958091B0008F778093B00036
:1020F00008958091B0008F7DF9CF84B58F7784BD2E
:10210000089584B58F7DFBCFCF93DF9390E0FC01E2
:10211000E158FF4F24918A569F4FFC0184918823F8
:10212000C9F090E0880F991FFC01EF53FF4FA59174
:10213000B491FC01E954FF4FC591D49161110DC0D8
:102140009FB7F8948C91209582238C9388812823C3
:1021500028839FBFDF91CF910895623051F49FB7DC
:10216000F8943C91822F809583238C93E8812E2BC9
:10217000EFCF8FB7F894EC912E2B2C938FBFEACF33
:102180001F93CF93DF93282F30E0F901E859FF4FD9
:102190008491F901E158FF4FD491F901EA56FF4FBC
:1021A000C491CC23A9F0162F81110E945B10EC2F53
:1021B000F0E0EE0FFF1FE954FF4FA591B4918FB7E8
:1021C000F894EC91111108C0D095DE23DC938FBFF9
:1021D000DF91CF911F910895DE2BF8CFCF93DF933E
:1021E000282F30E0F901E859FF4F8491F901E158B7
:1021F000FF4FD491F901EA56FF4FC491CC23A1F0CF
:1022000081110E945B10EC2FF0E0EE0FFF1FE355F1
:10221000FF4FA591B491EC91ED2381E090E009F49A
:1022200080E0DF91CF91089580E090E0FACF0895AB
:10223000A1E21A2EAA1BBB1BFD010DC0AA1FBB1FCA
:10224000EE1FFF1FA217B307E407F50720F0A21B3C
:10225000B30BE40BF50B661F771F881F991F1A94A9
:1022600069F760957095809590959B01AC01BD01D3
:10227000CF010895EE0FFF1F0590F491E02D099412
:102280000E944B11A59F900DB49F900DA49F800DAF
:10229000911D11240895A29FB001B39FC001A39F77
:1022A000700D811D1124911DB29F700D811D11248F
:1022B000911D08950F931F93CF93DF938230910563
:1022C00010F482E090E0E091C003F091C10330E0AF
:1022D00020E0B0E0A0E0309799F42115310509F431
:1022E0004AC0281B390B24303105D8F58A819B81DF
:1022F0006115710589F1FB0193838283FE0111C091
:10230000408151810281138148175907E0F0481735
:10231000590799F4109761F012960C93129713963F
:102320001C933296CF01DF91CF911F910F910895A9
:102330000093C0031093C103F4CF2115310551F070
:102340004217530738F0A901DB019A01BD01DF01F3
:10235000F801C1CFEF01F9CF9093C1038093C0037F
:10236000CDCFFE01E20FF31F8193919322503109EB
:1023700039832883D7CF2091BE033091BF03232B0D
:1023800041F420910201309103013093BF03209367
:10239000BE0320910001309101012115310541F466
:1023A0002DB73EB74091040150910501241B350B18
:1023B000E091BE03F091BF03E217F307A0F42E1BD8
:1023C0003F0B2817390778F0AC014E5F5F4F241799
:1023D000350748F04E0F5F1F5093BF034093BE0375
:1023E000819391939FCFF0E0E0E09CCFCF93DF9378
:1023F0000097E9F0FC01329713821282A091C0038A
:10240000B091C103ED0130E020E01097A1F42081EC
:102410003181820F931F2091BE033091BF03281793
:10242000390709F061C0F093BF03E093BE03DF9169
:10243000CF910895EA01CE17DF07E8F54A815B8165
:102440009E0141155105B1F7E901FB83EA834991EA
:102450005991C40FD51FEC17FD0761F4808191815C
:102460000296840F951FE901998388838281938165
:102470009B838A83F0E0E0E012968D919C91139704
:102480000097B9F52D913C911197CD010296820FDD
:10249000931F2091BE033091BF032817390739F6E7
:1024A000309751F51092C1031092C003B093BF034F
:1024B000A093BE03BCCFD383C28340815181840FDC
:1024C000951FC817D90761F44E5F5F4F88819981C6
:1024D000480F591F518340838A819B819383828354
:1024E0002115310509F0B0CFF093C103E093C0038B
:1024F0009ECFFD01DC01C0CF13821282D7CF81E0D5
:1025000090E0F8940C94841210E0C8E6D0E004C087
:10251000FE010E943A112196C936D107C9F7F894F5
:10252000FFCF0000C2038000140000000093009958
:102530000094000000000000000000690F0000008F
:1025400000780BDF0E250A190CC90AA00AB60A008A
:10255000000000B10DDF0E530D910D250D3F0D3123
:022560000D006C
:107E000001C0B7C0112484B790E89093610010922C
:107E10006100882361F0982F9A70923041F081FFC1
:107E200002C097EF94BF282E80E0C6D0E9C085E05D
:107E30008093810082E08093C00088E18093C1003C
:107E400080E18093C40086E08093C2008EE0B4D0CD
:107E5000259A84E020E33CEF91E030938500209365
:107E6000840096BBB09BFECF1D9AA8954091C000A0
:107E700047FD02C0815089F793D0813479F490D0C6
:107E8000182FA0D0123811F480E004C088E0113817
:107E900009F083E07ED080E17CD0EECF823419F40B
:107EA00084E198D0F8CF853411F485E0FACF853598
:107EB00041F476D0C82F74D0D82FCC0FDD1F82D0DC
:107EC000EACF863519F484E085D0DECF843691F58B
:107ED00067D066D0F82E64D0D82E00E011E05801AB
:107EE0008FEFA81AB80A5CD0F80180838501FA10D8
:107EF000F6CF68D0F5E4DF1201C0FFCF50E040E0DC
:107F000063E0CE0136D08E01E0E0F1E06F0182E067
:107F1000C80ED11C4081518161E0C8012AD00E5F9A
:107F20001F4FF601FC10F2CF50E040E065E0CE01BB
:107F300020D0B1CF843771F433D032D0F82E30D086
:107F400041D08E01F80185918F0123D0FA94F11070
:107F5000F9CFA1CF853739F435D08EE11AD085E934
:107F600018D08FE097CF813509F0A9CF88E024D0D1
:107F7000A6CFFC010A0167BFE895112407B600FCF3
:107F8000FDCF667029F0452B19F481E187BFE89594
:107F900008959091C00095FFFCCF8093C60008958E
:107FA0008091C00087FFFCCF8091C00084FD01C09C
:107FB000A8958091C6000895E0E6F0E098E19083EE
:107FC00080830895EDDF803219F088E0F5DFFFCF80
:107FD00084E1DFCFCF93C82FE3DFC150E9F7CF9122
:027FE000F1CFDF
:027FFE00000879
:00000001FF
